:020000040800F2
:10000000C0C9002029030008D77800089B630008B6
:1000100079760008111700086590000800000000BC
:10002000000000000000000000000000690200085D
:100030006D27000800000000C5020008898700083D
:100040004303000843030008430300084303000878
:100050004303000843030008430300084303000868
:1000600043030008912B0008972B00084303000866
:100070008D260008430300084303000843030008DB
:100080004303000843030008430300083518000831
:100090002917000843030008430300089D2B0008AC
:1000A0004303000843030008430300084303000818
:1000B0004303000843030008430300084303000808
:1000C00043030008430300084303000843030008F8
:1000D000430300081D900008430300083590000802
:1000E00043030008430300084303000843030008D8
:1000F00043030008430300084303000843030008C8
:1001000043030008430300084303000843030008B7
:10011000430300084303000859880008430300080C
:10012000430300089926000843030008430300081E
:1001300043030008430300084303000811190008A3
:100140007D18000843030008430300084303000828
:10015000A5260008B1260008BD2600084D9000081D
:100160004303000843030008430300084303000857
:100170004303000843030008430300080000000095
:10018000430300084303000800F002F800F05CF8A5
:100190000AA090E8000C82448344AAF10107DA45E2
:1001A00001D100F051F8AFF2090EBAE80F0013F0D8
:1001B000010F18BFFB1A43F001031847A0ED000020
:1001C000C0ED00000A444FF0000C10F8013B13F0A2
:1001D000070408BF10F8014B1D1108BF10F8015BA0
:1001E000641E05D010F8016B641E01F8016BF9D193
:1001F00013F0080F1EBF10F8014BAD1C0C1B09D1EA
:100200006D1E58BF01F801CBFAD505E014F8016B5B
:1002100001F8016B6D1EF9D59142D6D370470000ED
:100220000023002400250026103A28BF78C1FBD8FF
:10023000520728BF30C148BF0B6070471FB50DF093
:1002400001FE1FBD10B510BD00F072FA1146FFF798
:10025000F5FF0BF069F900F090FA03B4FFF7F2FF35
:1002600003BC00F0F5FA00002C4B19680868B0E8F0
:10027000F04F80F30988BFF36F8F4FF0000080F3D9
:10028000118870470000000008480068006880F38B
:1002900008884FF0000080F3148862B661B6BFF39F
:1002A0004F8FBFF36F8F00DF00BF00BF08ED00E08E
:1002B000DFF80C00016841F470010160704700BF75
:1002C00088ED00E0EFF30980BFF36F8F134B1A68DE
:1002D0001EF0100F08BF20ED108A20E9F04F1060CB
:1002E00009B44FF0500080F31188BFF34F8FBFF374
:1002F0006F8F0CF00DF84FF0000080F3118809BCEF
:1003000019680868B0E8F04F1EF0100F08BFB0EC95
:10031000108A80F30988BFF36F8F704718000020A0
:10032000EFF30580704700000948804709480047FF
:10033000FEE7FEE7FEE7FEE7FEE7FEE7FEE7FEE795
:10034000FEE7FEE704480549054A064B70470000F2
:100350004988000889010008C0C30020C0C90020E6
:10036000C0C50020C0C500209FED1A1AF5EE000A96
:1003700040EE010ABDEEE00AF5EEC00A10EE100AEA
:10038000F1EE10FA38BF401E00EE100A1349F7EEE6
:10039000001AB8EEC00A30EEC00ADFED0F0A20EEF8
:1003A000200AFCEEC00A10EE900AC0F3080000EE2E
:1003B000900A01EB8000F8EE600A90ED011A70EEF1
:1003C000600A90ED000A71EEE01A21EE800A00EE5C
:1003D000810A704783F9223E0000004440E600088D
:1003E000DFED190AB5EEC00A60EE200ABDEEE01A94
:1003F00011EE100AF1EE10FA38BF401E00EE100A9E
:100400001349F7EE001AB8EEC00A30EEC00ADFED6D
:100410000F0A60EE200ABCEEE00A10EE100AC0F3EC
:10042000080000EE100A01EB8000B8EE400A90EDE3
:10043000011A70EEC00A90ED000A71EEE01A21EE8A
:10044000800A00EE810A704783F9223E00000044D2
:1004500040E6000853EA020C00F069802DE9F04BF9
:100460004FF00006002B1FBFB3FA83F503FA05F423
:1004700024FA05F65E4012BF1643B2FA82F502FA7C
:1004800005F4C5F120051EBF22FA05FC44EA0C0460
:10049000203556EA044C4FEA144418BF641C4FF050
:1004A00000084FF00009904271EB030C39D300298A
:1004B00019BFB1FA81F701FA07F6B0FA80F700FA2E
:1004C00007F6C7F120071EBF20FA07FC46EA0C0614
:1004D0002037B6FBF4FCA7EB0507103F07F01F0B16
:1004E000CBF120060CFA0BFB2CFA06F644BFB34600
:1004F0000026202FA4BF5E464FF0000B5BEA060CDF
:1005000008BF4FF0010B19EB0B09ABFB027C48EB6A
:100510000608C01B06FB02CC0BFB03CC71EB0C01E5
:10052000C1E70B46024641464846BDE8F08B13B58D
:100530004FF000004FF00001AFF30080BDE81C4019
:100540007047032A40F2308010F0030C00F0158051
:1005500011F8013BBCF1020F624498BF11F801CBC6
:1005600000F8013B38BF11F8013BA2F1040298BF2B
:1005700000F801CB38BF00F8013B11F0030300F095
:100580002580083AC0F0088051F8043B083A51F839
:1005900004CBA0E80810F5E7121D5CBF51F8043B3E
:1005A00040F8043BAFF30080D20724BF11F8013BB1
:1005B00011F801CB48BF11F8012B24BF00F8013B13
:1005C00000F801CB48BF00F8012B704710B5203A66
:1005D000C0F00B80B1E81850203AA0E81850B1E8FC
:1005E0001850A0E81850BFF4F5AF5FEA027C24BFB2
:1005F000B1E81850A0E8185044BF18C918C0BDE8A9
:1006000010405FEA827C24BF51F8043B40F8043B71
:1006100008BF7047D20728BF31F8023B48BF11F826
:10062000012B28BF20F8023B48BF00F8012B704780
:1006300002F0FF0343EA032242EA024200F002B85A
:100640004FF000020429C0F0128010F0030C00F0FB
:100650001B80CCF1040CBCF1020F18BF00F8012B79
:10066000A8BF20F8022BA1EB0C0100F00DB85FEA47
:10067000C17C24BF00F8012B00F8012B48BF00F813
:10068000012B70474FF0000200B513469446964682
:10069000203922BFA0E80C50A0E80C50B1F1200195
:1006A000BFF4F7AF090728BFA0E80C5048BF0CC043
:1006B0005DF804EB890028BF40F8042B08BF7047A1
:1006C00048BF20F8022B11F0804F18BF00F8012B13
:1006D000704770477047704710B500F009F8006820
:1006E00010BD10B5044600F003F8046010BD000012
:1006F000004870475CC300201FB584B000200A9CEE
:1007000006AB04AA02A90094AFF3008018B1DDE99A
:10071000020108B010BD0348204000F037F8002067
:100720000146F6E70000207C004870475CC30020CB
:100730007546FFF7F9FFAE4605006946534620F0BF
:100740000700854618B020B5FFF7FCFDBDE8204046
:100750004FF000064FF000074FF000084FF0000B7D
:1007600021F00701AC46ACE8C009ACE8C009ACE830
:10077000C009ACE8C0098D46704710B50446AFF318
:1007800000802046BDE81040FFF767BD10B500F0BF
:1007900009F8BDE81040AFF30080002801D000F058
:1007A00057B8704710B5022803D0410103D50DA1F9
:1007B00012E0002010BD010101D50FA10CE0C10025
:1007C00001D511A108E0810001D512A104E040008B
:1007D00001D513A100E0002115A000F03FF8012091
:1007E00010BD0000496E76616C6964204F706572BF
:1007F0006174696F6E000000446976696465204227
:1008000079205A65726F00004F766572666C6F775B
:1008100000000000556E646572666C6F7700000022
:10082000496E657861637420526573756C7400005D
:100830005349474650453A2041726974686D657462
:10084000696320657863657074696F6E3A20000093
:1008500001491820ABBEFEE72600020070B5054630
:100860000C460A2000E06D1C00F011F835B1287824
:100870000028F8D102E0641C00F009F814B12078D7
:100880000028F8D1BDE870400A20AFF3008008B519
:1008900069468DF800000320ABBE08BD704708F024
:1008A00063BD08F0F7BDFFF75FBDF0EE400AF5EE5F
:1008B000C00AF1EE10FA02DDB0EE600A7047B1EE48
:1008C000600AFBE7002803D09FED020A80ED000AD2
:1008D0007047000000000000002803D0B3EE060AB5
:1008E00080ED000A7047000070B52DED0C8B84B0D0
:1008F00006460C4615469FED990AF0EE408A9FED9C
:10090000970AB0EE409A9FED950AF0EE40BA9FED3F
:10091000930AF0EE409A9FED910AB0EE40AA0EB114
:1009200004B11DB904B0BDEC0C8B70BD8C48FFF751
:10093000C9FF8C48FFF7D0FF8A48D0ED000A9FED31
:100940008A1A60EE810AB0EE600A00F025F9F0EE36
:10095000408A28EEA80AF0EE408A8248D0ED000ACC
:10096000B0EE001A60EE810A9FED7F1A60EE810AF8
:10097000B0EE600A00F010F9B0EE409A29EE090AD4
:10098000B0EE409ADFED790AB7EE000A00EEA80A51
:10099000DFED770A00EEC90ADFED760A20EE200AC5
:1009A000754880ED000A6E4890ED000ADFED730A8D
:1009B00080EE201AB7EE000A31EE000A20EE000A9F
:1009C0006D48D0ED000A80EE801A6D4880ED001A67
:1009D00094ED000AB5EEC00AF1EE10FA0DD194EDD7
:1009E000010AB5EEC00AF1EE10FA06D194ED020A42
:1009F000B5EEC00AF1EE10FA46D09FED580AB0EEFF
:100A0000408A0020019002900390D4ED000A60EE2D
:100A1000A00A94ED011AD4ED011A41EE210A94EDD9
:100A2000021AD4ED021A41EE210AB0EE600A00F07B
:100A3000A9F8B0EE408A94ED000A20EE080A8DED88
:100A4000010A94ED010A20EE080A8DED020A94EDE8
:100A5000020A20EE080A8DED030ADDED010AF1EE2F
:100A6000600AB0EE600AFFF71AFFF0EE409A9DEDC3
:100A7000031AF0EE410A9DED021AB0EE410AFFF7AB
:100A800010FFB0EE40AA07E09FED340AF0EE409A66
:100A90009FED320AB0EE40AA95ED000AB5EEC00A0D
:100AA000F1EE10FA0DD195ED010AB5EEC00AF1EEA6
:100AB00010FA06D195ED020AB5EEC00AF1EE10FA71
:100AC0003CD0B0EE690A00F067F8B0EE408AB0EEB4
:100AD000690AFFF7E8FEB0EE40DAB0EE4A0A00F02D
:100AE0005BF8F0EE40AAB0EE4A0AFFF7DCFEB0EE8B
:100AF00040BA28EE2A0AD5ED010A20EE200AD5EDEB
:100B0000000A0DEE200A68EE0B0A95ED021A00EEBF
:100B1000810AB0EE40CA95ED010A20EE0B0AD5ED30
:100B2000020A0AEEE00AF0EE40CAF0EE6C0AB0EEFD
:100B30004C0AFFF7B6FEF0EE40BA03E09FED070A5D
:100B4000F0EE40BAB0EE4A1AF0EE690AB0EE6B0A67
:100B5000304609F01BFF00BFE4E600000000000083
:100B60005C0200206002002035FA8E3CC1BFAD3B24
:100B70009DF8C5362F7C1C4164020020506CC24A8F
:100B80006802002010B509F00FFCB7EE001AC1EEA4
:100B9000000AB0EE600A10BDFFF722BC2DE9F0415B
:100BA0002DED028B9AB00546B0EE408A0E461746F0
:100BB0009846002017901890199014901590169050
:100BC0004DB146B13FB1B8F1000F04D0B5EEC08AC7
:100BD000F1EE10FA05D100201AB0BDEC028BBDE891
:100BE000F08196ED000A8DED170A96ED010A8DED64
:100BF000180A96ED020A8DED190A97ED000A8DED9F
:100C0000140A97ED010A8DED150A97ED020A8DED94
:100C1000160A17AA14A9284609F00AFD402104A8BB
:100C2000FFF730FD00200090019002900390002417
:100C300017A904A80BF094F900BF30E004A800EB5A
:100C4000041090ED000AD5ED000A20EE200A04A859
:100C500000EB0410D0ED010A95ED011A00EE810AB7
:100C600004A800EB0410D0ED020A95ED021A00EE84
:100C7000810A04A800EB0410D0ED030A95ED031AD5
:100C800000EE810A20EE080AF0EE000A80EE201A3B
:100C9000684600EB840080ED001A601CC4B2042C8E
:100CA000CCDB002410E005EB840090ED000A6846E0
:100CB00000EB8400D0ED000A30EE200A05EB840042
:100CC00080ED000A601CC4B2042CECDB28460BF05B
:100CD00031F8012080E7000010490A6BE2B191ED84
:100CE000010AB5EEC00AF1EE10FA01DCB1EE400ADD
:100CF000D0ED050AB4EEE00AF1EE10FA0AD291F84E
:100D00003410002903D1416A11B1032101707047E9
:100D10000221FBE70121F9E70021F7E72C970020EA
:100D200070B50446FFF7D8FF25782B4B2B490020E0
:100D30003DB10122012D0DD0022D1CD0032D3CD13F
:100D400022E081F83400A0609FED250AE06083ED89
:100D5000010A32E09FED230A81F8340083ED000A96
:100D6000A06A0028206903D0226A801AA06024E0CB
:100D7000A262206221E02569E5619FED1B0A6262A3
:100D8000A06083ED000A18E0E56923695B1BE3605E
:100D9000A569AB4211D96062A06291ED010AB5EE7E
:100DA000C00AF1EE10FA01DCB1EE400A10EE100AB2
:100DB0000E4B984201DA81F834200D4A486890427F
:100DC00002D3BAEE0E0A04E00A4A904203DBB2EE06
:100DD0000E0A81ED010A70BD6C9600202C97002050
:100DE00000000000BC74933C6F12833BCDCCCC3D23
:100DF000000070C100007041BDEEC01A4FF4B47322
:100E000010B511EE100AF8EEC11A90FBF3F103FBD6
:100E1000110001EE100A30EE610A2348B8EEC11A43
:100E20002249DFED231A31EE000A10EE102A824229
:100E300002DD30EE610A05E010EE102A8A4201D987
:100E400030EE210ABDEEE01A11EE102AB8EEC12AEA
:100E500092FBF3F403FB142201EE102A30EEC22AB7
:100E6000B8EEC11A31EE021A11EE102A824202DDEA
:100E700031EE611A05E011EE102A8A4201D931EEF5
:100E8000211A30EE410A10EE102A824202DD30EEC5
:100E9000610A05E010EE100A884201D930EE210AFD
:100EA00030EE800A10BD000000003443000034C35F
:100EB0000000B44310B500F08FFA214800F076FA34
:100EC000204C08B1022000E0012020701E4800F0F4
:100ED0006DFA10B10320207008E02078022802D0BB
:100EE000032803D006E04FF47A7001E04FF4FA7063
:100EF00003F01EFA07F02CFC05F0BCFD01F052F9DE
:100F000001F082FC01F054FB2078022809D003286C
:100F10000FD0012813D100F0D9FDBDE8104000F03A
:100F2000C1BD01F055FE07F077FABDE8104002F0B0
:100F3000AFBA06F00DFDBDE8104006F06BBF10BD66
:100F4000B477002090010020C477002001221021F6
:100F5000014803F01EBB00000000024000221021E7
:100F6000014803F016BB000000000240704700007B
:100F700001221146014803F00CBB000000040240AE
:100F800000220121014803F004BB000000040240DC
:100F900070470AF0F6BA00F0DBB910B5FFF7E6FFCC
:100FA000FFF7F6FF09F05EFE08B1802402E009F0C9
:100FB000C5FD04460AF024F810B144F0400010BD0D
:100FC00009F0B0FF204310BD2DE9FC410746002089
:100FD00016460D4600900190FFF7C0FF922000F0EA
:100FE000BDF806226946122000F09AF8FFF7AEFF1E
:100FF0009DF801009DF80010000200B2084300EEC9
:10100000100A464CB8EEC00AD4ED000A20EE200AC1
:1010100085ED000A9DF803009DF80210000200B261
:10102000084300EE100AD4ED000AB8EEC00A20EE24
:10103000200A85ED010A9DF805009DF804100002C4
:1010400000B2084300EE100AB8EEC00A20EE200AF3
:1010500085ED020AFFF794FF08226946002000F0A0
:101060005FF8FFF785FF9DF800000F2830D19DF84D
:1010700003009DF80210000200B2084300EE100ABF
:10108000D4ED010AB8EEC00A20EE200A87ED000A6E
:101090009DF805009DF80410000200B2084300EE20
:1010A000100AD4ED010AB8EEC00A20EE200A87ED3E
:1010B000010A9DF807009DF80610000200B20843DF
:1010C00000EE100AB8EEC00A20EE200A87ED020AF0
:1010D000FFF744FFA22000F041F8022269462220D7
:1010E00000F01EF8FFF732FF9DF800009DF8011098
:1010F000C00040EA5110B0F5806F01DBA0F5006040
:1011000000EE100AB4EE001AF8EEC00AB3EE070AB9
:1011100000EE810A86ED000ABDE8FC81F0000020A7
:1011200070B514460D4640F0800000F017F806E058
:10113000552000F013F8641E05F8010BE4B2002CF2
:10114000F6D170BD10B50C4640F0800000F006F8F6
:10115000552000F003F8207010BD000001B582B0EA
:101160004FF47A700090012301AA02A9024804F00A
:10117000EFF89DF804000EBD6405002010B50C4684
:10118000FFF7ECFF2046BDE81040FFF7E7BF00B5D2
:101190008BB0012205910021CDE906120091019149
:1011A0000291039104910E21CDE90821694602F0D4
:1011B000FBFA002801D001F0F4FC0BB000BD0000E8
:1011C00070B50D46044600680E49884201D10021E1
:1011D00003E00D49884203D10E212046FFF7D7FFD7
:1011E000204602F069FE08B101F0DBFC29462046EA
:1011F00002F060FA002803D0BDE8704001F0D1BCD5
:1012000070BD000000640040006800402DE9F0411E
:1012100015460E46040016D00020266084F82400EF
:101220002562A3624FF4807310222946201D09F025
:1012300084FF0A4F002500BF57F8250030B16D1C10
:10124000EDB2022DF8D30120BDE8F0810321304634
:10125000FFF7B6FF47F825400020F5E780000020A3
:1012600018B111B1816200207047012070472DE94B
:10127000FF471F4605464FF0010914460026EFF3CD
:101280001088009172B64FF0080A20E0281D09F07E
:1012900068FF18B1002085F824001AE0B81B082860
:1012A00002DB8DF804A001E08DF804002068CDF881
:1012B00005006068CDF809009DF804006946044403
:1012C000304486B2281D09F052FF4FF00009BE429B
:1012D000DCD388F3108895F8240030B9281D09F074
:1012E0003AFF10B9284600F019FB04B04846BDE8A3
:1012F000F0870000064801680648B1FBF0F2064896
:1013000002704FF47A72B1FBF2F141607047000055
:101310001400002040420F008800002070B54FF0FC
:10132000E024002265690949A36949684843A16925
:101330009942FCD002D2A3EB010302E0A5EB010627
:1013400033441A440B468242F1D370BD880000201A
:1013500070B54FF0E024002265690949A369097856
:101360004843A1699942FCD002D2A3EB010302E0F9
:10137000A5EB010633441A440B468242F1D370BDFB
:101380008800002020B1C0E90023017200207047CE
:1013900001207047034610B50846C3E90002042146
:1013A0001972114604F04CFC002010BD81880068C1
:1013B00089B203F0E9B805C800682AB1042A05D04B
:1013C000082A05D001647047416370478163704704
:1013D000C163704703F0E2B838B5FFF78BFF3E4CAE
:1013E0004FF48053224603213C48FFF7CBFF3B4894
:1013F0004FF40053224603211030FFF7C3FF374854
:10140000082237492030FFF7C5FF34480422344909
:101410003030FFF7BFFF3148002231494030FFF73D
:10142000B9FF2E4800222F495030FFF7B3FF2B4859
:1014300008222D496030FFF7ADFF284808222B49CC
:101440007030FFF7A7FF25482949803000F0A4F845
:101450002415284B214865102A46A3F500718030D9
:10146000009400F0D3F81D4800232A46224980301A
:1014700000F0ACF819482149BC3000F08DF8204B41
:1014800016482A46A3F50071BC30009400F0BEF85F
:10149000124800232A461B49BC3000F097F80F4839
:1014A0001949F83000F078F80C4800231E2217493B
:1014B000F83000F08BF8154A00231E321449154805
:1014C000FFF7A4FE01B01348BDE830400023124AE4
:1014D00012492C30FFF79ABE00040240B477002076
:1014E00094060020240700204C060020040600205B
:1014F000FC07002094490020944D00206C07002038
:101500009451002094550020B407002094570020E7
:10151000C0040020E8780020B2670020E804002022
:10152000F8B5054600680168C9062DD5C068C00633
:101530002AD5E86B0068016821F001010160154EB1
:10154000002400BF56F824002A6801680968914207
:1015500010D1EA6BC18812685268891AC26889B2D0
:101560000AB18068904756F82400C28881682846EE
:1015700004F090FE641CE4B2032CE3D3E86B006833
:10158000016841F00101016028680168406800902D
:10159000F8BD00004079002070B50D4604000CD065
:1015A0003C21FFF76FF808480021256050F8212002
:1015B0002AB1491CC9B20329F8D3012070BD40F8F3
:1015C0002140002070BD00004079002038B5A0B156
:1015D000012404718160C280C360016809680A68DF
:1015E0004A680092CA6842F01002CA60C2888168E4
:1015F000006804F04FFE002038BD012038BD18B14E
:1016000011B1C160002070470120704770B5049C83
:1016100078B1012505744161028343630487002189
:1016200080F83A10224619461C3009F01BFE0020B3
:1016300070BD012070BD2DE9F0410F4606002ED08F
:10164000307C60B396F83A0030B1348F4FF000052B
:1016500094421AD9144618E0358B954202D91546A2
:10166000002405E0348F2819904201D9501B84B220
:101670005DB12A467069FEF764FF012086F83A00E2
:101680002A467169306804F015FE5CB1791922466A
:1016900006F11C0009F0F1FDC0B2A04202D0012009
:1016A000BDE8F0810020FBE770B5FFF793FE40F640
:1016B000B831884223D3124940F6C4138A68821A8B
:1016C0009A4203D94A780A70886017E00A78002A9B
:1016D00015D0CB684C88C31AA34203D296214FF48D
:1016E000FA7005E08D882C44A34205D200210846FB
:1016F000BDE8704000F00EB8521E0A70C86070BDA0
:10170000E00000200149487070470000E000002020
:10171000FEE70000034A12681268D0620148FFF732
:101720004ABE000014780020014802F055B90000BC
:10173000C004002010B5B0F5806F22D00FDC134A32
:10174000A0F50070053816D001281DD1D2F8A801E7
:1017500006F04AF80920BDE8104006F0EDB8B0F5F3
:10176000A06F0ED0B0F5E06F0ED1094892B2BDE87F
:10177000104000F0C5BCD2F8E40006F035F80A20AD
:10178000E9E792B20348F2E710BD000000940020A0
:10179000FC850020548F002010B5B0F5806F08D074
:1017A000B0F5C06F0ED192B2074800F0A9FC12202C
:1017B00004E092B2044800F0A3FC1320BDE81040FE
:1017C00006F0BAB810BD00009C9D002010B5A0F531
:1017D000807041380FD0A0F54070BF3815D0B0F5FB
:1017E000807F12D0B0F5007F12D10A4892B2BDE8D6
:1017F000104000F085BC0848D0F8B00005F03DFF6F
:10180000BDE810400A2006F097B892B20348EEE710
:1018100010BD0000E8B30020ECC1002040BD002056
:101820000B4602464FF4E0610148FFF720BD00007F
:10183000E8780020014802F0CFB80000C004002082
:101840000B4602464FF4C0610148FFF710BD00008F
:10185000E87800200B4602464FF4A0610148FFF7EC
:1018600006BD0000E87800200B4602464FF4806178
:101870000148FFF7FCBC0000E8780020014802F0B6
:10188000ABB80000E804002010B5A0F500700C46CD
:1018900001380DD0012812D0022817D107F0AEF977
:1018A000214605F0A1FF0E20BDE8104006F044B827
:1018B00001F086F9214605F097FF0C20F4E701F0CE
:1018C00083F9214605F090FF0D20EDE710BD0000E3
:1018D00010B5A0F50072013A05D0012A03D0022A02
:1018E00001D0032A0FD1401EC4B2074A04EB840082
:1018F00002EB0010406A05F077FF641DE0B2BDE81E
:10190000104006F019B810BDA0AB002070470000D1
:10191000014802F061B80000E80400202DE9F04120
:101920008CB004000CD0EFF3108572B6201D09F0C6
:1019300012FC0026D8B184F8246000BF85F310881B
:101940000CB0BDE8F0816946201D09F0D7FB009876
:10195000069604909DF804000796089084F8248069
:101960000AAB7A1D04A9206801F0B6FE02E06F46BA
:101970004FF00108206802F019F80028DED0201D81
:1019800009F0E9FB0028DED0D8E7000000487047E6
:101990009C7E002010B50A88DFED180A00EE102AA0
:1019A00004464888B8EE401A8B88897981EE200A6F
:1019B00001EE100AB8EE411AC1EE201A01EE103AFB
:1019C00084ED000AB8EE412A82EE201AC4ED011A15
:1019D00084ED021A60EE010A2173BCEEE00A10EEFB
:1019E000100A607306F0E6FB617B00EE101AB8EE99
:1019F000400A10EE101A416010BD00000000C842FD
:101A00000A460146014800F07BBB000050840020DC
:101A10000A4610B50146044800F072FBBDE81040CC
:101A2000102005F089BF0000F4A600200A460146F8
:101A3000014800F065BB00003CB200200A460146A8
:101A40000148FFF7F8BD0000347800200A4601463F
:101A50000148FFF7F0BD0000347800200A46014637
:101A6000014800F04DBB000050840020704700008A
:101A700007490868807948B1012807D0032805D0B4
:101A8000022803D0042801D0052800D1087370472C
:101A9000A0AB0020024900EBC00001EB80007047C2
:101AA000B07B002000B587B01C2206496846FEF7CF
:101AB0008DFD0021684609F083FD0349086007B0E9
:101AC00000BD0000FCE500080402002030B52DED4B
:101AD000048B81B000F08EFD5C4C206004F03EFF72
:101AE00060605B48A060002020739FED5A0A84ED7F
:101AF000040A9FED590A84ED050A84ED060A9FED5C
:101B0000578A054684ED078A84ED088ADFED548AFA
:101B10009FED549A2846FFF7BDFF014605EB85006F
:101B200004EB0010B0EE002A4162F0EE481AB1EE6C
:101B3000001AF0EE680AB0EE490A0321283009F0D5
:101B400025FE6D1CEDB2042DE4D3B7EE002AF0EEB5
:101B5000481AB7EE001ADFED440A9FED440A03214C
:101B6000434809F013FE012364220021052005F0FB
:101B7000D5FE022364220021062005F0CFFE0323B8
:101B800064220021072005F0C9FE042364220021FD
:101B9000082005F0C3FE002364220121102005F077
:101BA000BDFE012364221946122005F0B7FE022370
:101BB00064220021132005F0B1FE032364220021DA
:101BC000162005F0ABFE012364220021172005F04A
:101BD000A5FE29494FF48064264B2246A1F1AC00B2
:101BE00000F072FB2548264A00902346AA21A2F164
:101BF000AC0000F0AFFA2449224B2246A1F1AC0020
:101C000000F062FB2148224A00902346A521A2F160
:101C1000AC0000F09FFA052200211E4806F052FD9C
:101C20001D491E48FFF7EBFC1D491E48FFF7E7FC66
:101C30001D491E48FFF714FB01B01D490448BDECC7
:101C4000048BBDE83040FFF70BBB0000A0AB0020C9
:101C5000147900200000EF438F02A9430000000028
:101C60000000FA4300401C46000048420000964332
:101C700014B00020551800089C99002069900008B5
:101C8000489E002021180008F4A20020A980000826
:101C9000A0A70020A58B00082D260008AC78002006
:101CA000111A00083478002099170008E8780020FD
:101CB000D118000810B50A4A0446111F00F0C0F8F8
:101CC00004F5806090ED301A05482038D0ED080A00
:101CD00090ED070A2046BDE8104005F0DBBB000090
:101CE0002802002070B504462DED048B9FED4B8A31
:101CF00006F0D0F9050003D0102000F0EFF910B184
:101D0000DFED478A27E0022D19D0662D17D006F0A7
:101D100051FA008900EE100AF8EE408A06F04EFAF9
:101D200018EE900A3F49884213DA18EE900A3E49AD
:101D3000884207DDDFED3D0A88EEA00A04E0DFED12
:101D40003C8A08E09FED3B0ADFED3B0A60EE208A0B
:101D500001E0DFED3A8A002505EB850004EB001079
:101D6000B0F970000BF046F941EC100B07F0E8FCFD
:101D7000B0EE409AF0EE609A18EE100A0BF0ACFF4D
:101D800053EC192B0AF038FE0AF0D4FC6D1C08EE57
:101D9000100AEDB2042DDFD3B4EEE88AF1EE10FAAA
:101DA00038DD88EE880A34F9700F00EE900AF8EEFC
:101DB000E00A60EE800AFDEEE00A10EE900A24F8D8
:101DC000500B34F9500B00EE900AF8EEE00A60EE8A
:101DD000800AFDEEE00A10EE900A24F8500CB4F9E7
:101DE000000000EE900AF8EEE00A60EE800AFDEED8
:101DF000E00A10EE900A24F8500BB4F9000000EE4F
:101E0000900AF8EEE00A20EE800ABDEEC00A10EE5D
:101E1000100A2080BDEC048B70BD000000000000A3
:101E200000C0DA46000048420000A04000004842DE
:101E300000007A47CDCCCC3D00007A4600A00C478C
:101E40002DE9F0410F462DED048B1646017B9FEDE9
:101E5000350A052903D00022042936D000E00122EA
:101E6000002100F58064304DD4ED350A0A432ED0B0
:101E700030EE800A10EE900A84ED370A0BF02CFF4A
:101E80009FED2A8B53EC182B0BF024FC9FED299B24
:101E900053EC192B0AF0F0FE0AF04CFC00EE100A8D
:101EA000FEF79EFA85ED000AD4F8D4000BF014FF7B
:101EB00053EC182B0BF00EFC53EC192B0AF0DCFE44
:101EC0000AF038FC00EE100A0DE00121C9E79FED91
:101ED0001B8A80EE880AFEF783FA85ED000AD4EDAE
:101EE000350A80EE880AFEF73FFA85ED010AD4ED47
:101EF0002E0AD4ED2F1A20EE801AD5ED000A00EE3E
:101F0000A11A87ED001A94ED2F1A21EE000A94ED24
:101F10002E1A00EEC10A86ED000ABDEC048BBDE866
:101F2000F0810000D7A378C10802002066666666CB
:101F300066A634400000006066A64C40333365421C
:101F40002DED028B82B0DFED5D8A9FED5D8A5D4EE7
:101F500006F5806405F086FE90ED010A84ED350AF1
:101F600001F048F890ED010A84ED360AFFF780FD94
:101F7000307B022806D0032817D0042821D005285A
:101F800052D12EE03068F0EE680A90ED030A84ED3D
:101F90002E0A90ED040A4C4884ED2F0A94ED350A80
:101FA000B1EE400A09F036FB39E0306890ED030AE3
:101FB00084ED2E0A90ED040A84ED2F0AC4ED308AD8
:101FC00032E03068B0EE000AD0ED030A60EE800A1D
:101FD000C4ED2E0AD0ED040A20EE800A84ED2F0A0B
:101FE00020E005F079FC90ED000ADFED380A9FED66
:101FF000381A384920EE200A84ED2E0AD0ED010A65
:1020000010EE100A60EE810A8842C4ED2F0A09DA48
:10201000F5EEC00AF1EE10FA04D19FED2F0A84ED1F
:10202000300A01E084ED308A2648FFF743FE0025A0
:1020300006EB850000F58060D0ED310A05EB8500E8
:1020400006EB0017C7ED1B0A786AB0F9040000EE32
:10205000100A07F12800B8EEC00A09F0DBFABDEE5D
:10206000C00A6D1CEDB210EE100A042DA7F8700026
:10207000DED31448FFF736FE307B58B90020014606
:1020800000EB800206EB0212401CC0B2A2F87010F6
:102090000428F5D3B6F96011B6F97020B6F9C0304E
:1020A000B6F91001CDE900014FF40071B06805F0F8
:1020B000F3FB022009F065FA4CE700000000000085
:1020C0000000B442A0AB002014B000200000164471
:1020D000000016C49A99193E0000CF42034901EB53
:1020E0000010C078012800D0002070471481002023
:1020F000024901EB00104068704700001481002085
:1021000070B514460D46002815D00830064609F073
:1021100056F8B0F5617F02DA304609F044F83046EF
:1021200009F04DF8A04206DD224629463046BDE8BA
:10213000704009F0A2B870BD70B5054D6C6803E041
:10214000204600F0DDF86468AC42F9D170BD0000B3
:102150009000002070B51646049D040017D00C4A6C
:10216000506802E0A04212D040689042FAD108487C
:1021700002685460C4E90020046084F820101A4604
:10218000314604F1080009F06DF8C4F8A85070BD9C
:1021900090000020FFF7D0FF00F050F8012009F078
:1021A000F0F9F7E700B587B01C2206496846FEF74C
:1021B0000DFA0021684609F003FA0349086007B0E8
:1021C00000BD00008CE50008B80100202DE9F84FA3
:1021D00099460A9E1746884604002DD004F108004F
:1021E000824608F0ECFFB04226DD2546ADF80070CF
:1021F00006F1090087B22134802F01D9002714E0AD
:1022000084F80080A4F80160BDF80000E88405218E
:10221000204608F082FC3246494605F12800FEF7C8
:1022200090F93946204608F067FC3A462146504668
:10223000BDE8F84F09F021B8BDE8F88FF0B5A1B0BE
:1022400080216846FEF71EFA124E74681EE000BF39
:1022500004F10800074609F04AF805042D0C14D0D3
:10226000D4F8A80018B18047A84200D20546802DB6
:1022700000D980252A466946384608F0B8FFD4F8C8
:10228000A42012B12946684690476468B442DFD161
:1022900021B0F0BD9800002070B514460D4600280E
:1022A00010D00830064608F08AFFA11C884209DDDC
:1022B000284608F021FCA21C29463046BDE87040A3
:1022C00008F0DBBF70BD000070B51D46040013D0E0
:1022D0000A4B586802E0A0420ED040689842FAD1FA
:1022E000064803685C60C4E90030046004F108003B
:1022F00008F0B8FFC4F8A45070BD0000980000209A
:102300002DE9F041044600F12605002600F10807FA
:1023100063E0384608F055FF94F8211006293CD2B6
:10232000DFE801F0031118252D3E94F820108142BA
:1023300007D1012184F82110618C4A1C6284485520
:102340004BE0668449E0A084628C511C6184505546
:10235000022011E0A18C41EA0021A184628C511C71
:1023600061845055A08C772817D2032004E0618C3B
:102370004A1C62844855042084F821002DE0618CB9
:102380004A1C62844855608C052826D105212846C0
:102390000AF006F808B10520EEE784F82160D0E7DE
:1023A000A18C628C09318A4202D2511C6184505541
:1023B000A18C608C093188420FD384F82160668437
:1023C000284609F0D3FF40B12946D4F8A83031F8A7
:1023D000012F8888E91D03B19847384608F087FF28
:1023E000002896D1BDE8F08130B51348134B4FF06B
:1023F000000400781A6B050911484FF0010104D15F
:10240000012A02D080F8281001E080F82840052534
:102410004571C171012A07D00322027285715A6A7F
:1024200032B180F8201030BD042202728271F6E7CA
:1024300080F8204030BD0000A10000202C97002033
:10244000E880002070B50D46012807D002281FD172
:102450000E221048FEF775F8162015E0FEF7BAFFB9
:102460000D4CA0601520FFF743FEE060A168081A3C
:1024700060602168884200D92060064814222946FD
:102480001438FEF75EF81520BDE8704005F054BA28
:1024900070BD0000797A0020CC000020404F414EF2
:1024A000DFF804A1414C4FF0030B01254FF0000968
:1024B0004FF002082068B0F91400B84201DA357014
:1024C0000CE000F1DB01B1F5DB7F02D886F800B04B
:1024D00004E0B0F5DC7F01DD86F80080314831781A
:1024E000401C05F0C3FD207920B101282CD0022822
:1024F00048D13BE09AF80000022804D001280AD015
:10250000032808D03EE000F075FD0078012815D0C2
:1025100000F070FD06E005F0A5FB007801280DD065
:1025200005F0A0FB007848B1257184F805B084F867
:1025300006B084F807800520207223E084F8049018
:102540006571A57125721DE02068007A032804D00A
:10255000012805D0022806D014E005F071FC11E036
:10256000FFF742FF0EE001F00FF80BE01720FFF736
:10257000B5FD88B184F8059084F8069084F8089039
:1025800084F807901720FFF7A9FD08B184F80480AC
:10259000052008F0F6FF8DE784F80490F2E70000CC
:1025A00048FEFFFFA401002090010020E8800020E9
:1025B00000B587B005F056FD0B49012208600020E8
:1025C00008714A718A710222CA7181F820001C22A6
:1025D00006496846FDF7FAFF0021684608F0F0FF5B
:1025E0000349C86007B000BDE880002070E500081E
:1025F000A401002000487047E880002038B50C4650
:10260000054605F02FFD2246294605F0B9FC2B466C
:102610000122AA2104480094FFF7D8FDBDE8384004
:10262000172005F089B90000A88A002038B50C46AB
:10263000054605F017FD2246294605F0A1FC2B466C
:102640000122AA2104480094FFF7C0FDBDE83840EC
:10265000172005F071B90000F098002038B50C463D
:10266000054605F0FFFC2246294605F089FC2B466D
:102670000122AA2104480094FFF7A8FDBDE83840D4
:10268000172005F059B9000094B80020014801F066
:10269000DDBC000004090020014801F0D7BC0000A7
:1026A00064090020014801F0D1BC0000440800206A
:1026B000014801F0CBBC0000C4090020014801F032
:1026C000C5BC0000A408002001681823CAB2103A53
:1026D000B2FBF3F2054B6FF30901032A9B5CC36560
:1026E00000D9091D8165084670470000F8E100081F
:1026F00010B5014600208B698A6A4FF0C07453B14F
:10270000B3F5005F15D072B1012A0CD0022A0AD0AD
:10271000032A09D104E01AB1012A06D0022A03D102
:10272000C96AC90100D5012010BDC96AA142FAD009
:1027300010BD002AF7D0012AF2D0022AF3D0032AD2
:10274000F3D010BD30B50468256825F480252560D8
:10275000046863608368402B036803D09960006855
:10276000C26030BD9A600068C16030BD7047000033
:1027700000487047917A0020214C00BFFEF72AFEE6
:102780000025FF23012217464FEA050604EB02113C
:10279000D1F804C0D1F808E0A0EB0C0CF4450BD93B
:1027A00091F800C0BCF1000F06D0CF708978994233
:1027B00003D20B46D5B200E0CE70521C192AE5DBDD
:1027C00085B104EB0515287BFEF79CFFA87810B1B6
:1027D000012802D00DE00B4801E06FF0FF0007F088
:1027E000E9FE06E04FF0FF2007F0E4FE0020FEF7D0
:1027F00089FFFEF759FF142008F0C3FEBEE7000072
:10280000148100200000FFFF00B587B01C2206499C
:102810006846FDF7DBFE0021684608F0D1FE03495B
:10282000086007B000BD0000A8E50008BC0100205A
:1028300010B504462DED028BB0EE418AB0EE601A61
:10284000F0EE400AC0ED220AB0EE410A80ED230A04
:1028500008F0E0FED4ED0B0AB0EE480AC4ED240AFD
:1028600084ED258A04F1440008F0D4FE94ED1C0A9E
:10287000BDEC028B10BD000010B5334C9FED310A4A
:102880009FED3A1B2DED028B84ED0B0A84ED0C0AB3
:1028900084ED0D0A84ED0E0A84ED0F0A84ED100A12
:1028A00084ED110A84ED120A84ED080A84ED090A08
:1028B0009FED260A84ED000AB2EE040A84ED070AB1
:1028C0009FED230A84ED010A9FED220A84ED020A9E
:1028D0009FED210A84ED030A9FED200A84ED040A8E
:1028E0009FED1F0A84ED050AB0EE000A84ED060A8A
:1028F000B3EE0E0A84ED130A9FED1A0B06F02CFFBF
:102900009FED1C8B51EC100B53EC182B0AF0E6FBDF
:1029100009F010FF2065E0690BF0DEF941EC100BC7
:10292000B0EE481AF0EE681A06F016FF53EC182BBA
:1029300051EC100B0AF0D2FB09F0FCFE6065BDEC17
:10294000028B10BD000000004C7900206F12033B89
:102950006F12833A2DB23D3FA97F633ECDCCCC3D73
:102960006666E63F00000000000024400000000012
:1029700000000040000000000000084010B5334C8B
:102980009FED310A9FED391B2DED028B84ED0B0A73
:1029900084ED0C0A84ED0D0A84ED0E0A84ED0F0A15
:1029A00084ED100A84ED110A84ED120A84ED080A00
:1029B00084ED090A9FED260A84ED000AB1EE040AAF
:1029C00084ED070A9FED230A84ED010A9FED220A98
:1029D00084ED020A9FED210A84ED030A9FED200A8F
:1029E00084ED040AB2EE020A84ED050AB0EE000A94
:1029F00084ED060AB2EE0E0A84ED130A9FED190B60
:102A000006F0AAFE9FED1B8B51EC100B53EC182B1C
:102A10000AF064FB09F08EFE2065E0690BF05CF9BA
:102A200041EC100BB0EE481AF0EE681A06F094FE76
:102A300053EC182B51EC100B0AF050FB09F07AFE06
:102A40006065BDEC028B10BD00000000A479002081
:102A50006F12033B6F12833A3333B33FCDCC4C3FFD
:102A6000CDCCCC3E0000000000001440000000006F
:102A700000000040000000000000084070B50D4656
:102A80002DED028BB0EE418A91ED0C1A044630EE2A
:102A9000411AB0EE600A80ED221AC0ED230AF0EE72
:102AA000410A08F0B7FDB0EE480A84ED250AD4EDDE
:102AB0000B0A95ED0D1A04F1440070EEC10AC4ED45
:102AC000240A08F0A7FD94ED1C0AD5ED0E0A30EE9D
:102AD000600A84ED1C0ABDEC028B70BD90ED0F1AEC
:102AE00090ED080A71EE401AC0ED0B1AD0ED100AF5
:102AF00090ED132AB0EE600A02EE610A90ED002A12
:102B000002EE001A80ED0C1A90ED010A90ED023AE7
:102B1000D0ED042AD0ED053A20EE030AD0ED144A98
:102B200062EEA33A80EE234A90ED110AF0EE402ABD
:102B300044EEE12AD0ED124A44EE242A90ED034AF5
:102B400023EE044A84EE233A43EE602A42EE220A40
:102B5000C0ED0D0AD0ED152A62EE222AB0EE402A11
:102B600002EEE12A01EE901AF8EEE11A80ED0E2A4B
:102B700031EEC00AD0ED061AC0EE212AC0ED122AAD
:102B800080ED0F1AC0ED100A80ED112A0020704769
:102B9000082001F0F5BB102001F0F2BB202001F06D
:102BA000EFBB72B6FEE70178C27841EA0261827833
:102BB0004078120442EA0020014300EE101A7047E8
:102BC00000487047187D0020004870473C7D002079
:102BD00010B52DED048B82B000F0C2FAA44CC4F8FD
:102BE000E40000F0B9FAC4F8A801FFF703FD206083
:102BF00003F0B4FE9F490122C4E90101227340F6AB
:102C00009951A4F8E81041F2D151A4F8AC119FED0C
:102C10009A0A84ED610A84ED920A9FED980A84ED88
:102C2000620A9FED970A002184ED630AB3EE0E0A53
:102C300084ED930ABBEE040A84ED940A90ED140A25
:102C400090484FF42F7380ED000A04F53D70B6EE06
:102C5000000A017041608160C160016180ED050A78
:102C60000162C0E9063141629FED870A816280ED11
:102C70000B0A9FED860AB1EE002A80ED0C0A9FED4B
:102C8000848AB2EE0E1AF0EE481AF0EE480ADFED32
:102C9000818A42630321B0EE680AA0F5027008F051
:102CA00075FDB0EE482A9FED7C9AF0EE491A9FED33
:102CB0007B1ADFED7B0ADFED7B9A032104F5987028
:102CC000B0EE690A08F062FDB7EE002AF0EE481A8D
:102CD0009FED751AF0EE480AB0EE680A032104F57C
:102CE000D87008F053FDB0EE482AF0EE491A9FED77
:102CF0006F1ADFED6F0AB0EE690A032104F5FA706E
:102D000008F044FDB7EE002AF0EE481AB6EE001ABD
:102D1000DFED680A9FED680A032104F1180008F04E
:102D200035FD9FED669AF0EE481AB0EE492A9FED08
:102D3000641ADFED648A032104F51B70F0EE680A63
:102D4000B0EE680A08F022FDB0EE492AF0EE481A0B
:102D50009FED5D1AF0EE680AB0EE680A032104F5F3
:102D60002C7008F013FD0023C8220121152004F067
:102D7000D5FD002364221946092004F0CFFD00236D
:102D8000642219460A2004F0C9FD00236422194672
:102D90000C2004F0C3FD0023642219460D2004F02A
:102DA000BDFD0023642219460E2004F0B7FD002368
:102DB00064220121102004F0B1FD022364220021CD
:102DC000132004F0ABFD012364220021172004F03E
:102DD000A5FD3F494FF480743C4B2246A1F1AC0065
:102DE000FFF772FA052200213A4805F06BFC3A48D9
:102DF0003A4A009023465521A2F1AC00FFF7AAF908
:102E00003748384AA40000902346A521A2F1AC001F
:102E1000FFF7A0F93549344B2246A1F1AC00FFF78A
:102E200053FA0A220021324805F04CFC3148324A5C
:102E300000902346AA21A2F1AC00FFF78BF92F499D
:102E40002F48FEF7DCFB2F492F48FEF7D8FB2F4910
:102E50002F48FEF7D4FB2F490648FEF701FA02B0CF
:102E60002D492E48BDEC048BBDE81040FEF7F8B9A3
:102E700000940020E87800200000343D00008C42DF
:102E800000008CC2C001002000C05A4596430B3C94
:102E9000000000000000FA44CDCCCC3D00005C42B4
:102EA00000803B450060EA460000A0420000F0427E
:102EB0000080BB450000484200009643CDCCCC3E8C
:102EC0005839B43C00004843CDCCCC3C3D1A0008F6
:102ED000508300207192000845240008FC840020E3
:102EE000A9800008A886002041180008548B002003
:102EF000B92F00086990000800900020FD25000807
:102F0000AC780020011A0008347800205D1A00080F
:102F100070780020351700088918000814790020FF
:102F20000849087B48730868407948B1012807D0F0
:102F3000022805D0032803D0042801D0052800D199
:102F400008737047009400201948022180F89011FE
:102F500080F85412016890ED960AD1ED060A70EEE1
:102F6000200A9FED140AC0ED960A80ED650A90EDE7
:102F7000631AB4EEC10AF1EE10FA06D990ED621AA6
:102F8000B4EEC10AF1EE10FA01DB80ED651A90EDA6
:102F9000940AF4EEC00AF1EE10FA06D990ED930A05
:102FA000F4EEC00AF1EE10FA01DB80ED960A7047EC
:102FB000009400200000000038B500F01BF8044623
:102FC00006F00CF9094A01462346107B207092ED69
:102FD000670A032284ED010A086BA0600C200090B0
:102FE000AA210348FFF7F2F8002038BD0094002022
:102FF000A88A002000487047A47A002010B5204C11
:103000002DED028B607B012808D064211D4808F05B
:10301000EFFE1C486421143008F0EAFE022084F818
:10302000900184F854021748143008F0C5FEB7EE3A
:10303000008A78EE400A94ED980A60EE800AB0EEBD
:10304000C00A10EE100AC4ED960AB0F1804F13DCEE
:103050000C4808F0B1FE78EE400A94ED670A0A4980
:1030600060EE800AB0EEC00A10EE100AC4ED650AE8
:10307000884201DC03202073BDEC028B10BD0000F0
:1030800000940020D00100200000404090F8AD20C6
:1030900090F8AC108A4213D021B1012909D002293D
:1030A0000AD00DE0B0F9B42000EE102AB8EEC00A44
:1030B00004E090ED2F0A01E090ED2E0A80ED2C0A3D
:1030C00080F8AD107047000010B50446FFF7DEFF32
:1030D00094F8AC1004F10800024661B1012917D040
:1030E000022933D194ED301AD4ED2E0A94ED2C0A36
:1030F000FFF79EFB24E094ED2C0ABDEEC00A10EE13
:10310000100AA4F8B400BDE81040104607F0DDBF77
:103110000F484079042809D0052807D094ED301ACB
:10312000D4ED2F0A94ED2C0A1046E1E794ED301A05
:10313000D4ED2F0A94ED2C0A0649104606F056F8F5
:10314000BDEEC00A10EE100AA4F8B40010BD0000D5
:10315000E88000204C79002000487047F47C002073
:1031600000487047D07C002010B5174C012084F82F
:103170009001022084F85402206894ED650AD0ED95
:10318000070A30EE200AD4ED680AFDF735FE84ED1B
:10319000650A206894ED960AD0ED060A30EE200A02
:1031A00084ED960AD4ED940AB4EEE00AF1EE10FA3A
:1031B00006D9D4ED930AB4EEE00AF1EE10FA01DB81
:1031C000C4ED960A10BD00000094002010B5244CF8
:1031D000D4F8E400B4F9E810B0F9000004F046FBBC
:1031E00000EE100AD4ED610AB8EEC00A20EE200A03
:1031F00084ED670AD4F8A801B4F9AC11B0F9000065
:1032000004F034FB00EE100AD4ED920AB8EEC00AC6
:1032100020EE200A84ED980A606890ED140A84ED8F
:10322000680A90ED120A84ED990AD0ED020A9FED2A
:103230000D0A60EE800AC4ED690AD0ED000A20EEA6
:10324000800A84ED9A0A04F00DFD90ED010A84EDE8
:10325000040A04F007FD90ED020A84ED050A10BD92
:1032600000940020E12E654270B52DED028B04F034
:1032700033FB514D514C0220296BE1B3012184F8FD
:10328000901184F854024E48FDF74AFD4C4808F06E
:1032900091FA4C4895ED010AD0ED0C0A4A4830EEFF
:1032A000600A85ED010A94ED960AD5ED000A70EEEC
:1032B000200A08F0AFF92068D0ED060A434830EE46
:1032C000200AD4ED960A30EE200A84ED960A94ED99
:1032D000650AD5ED010A70EE200A08F09BF9206816
:1032E000D0ED070A30EE200AD4ED650A30EE200A50
:1032F00084ED650A00E01AE0D4ED960A94ED941A84
:10330000F4EEC10AF1EE10FA06D994ED931AF4EE38
:10331000C10AF1EE10FA01DB84ED961AD4ED680AC9
:10332000FDF76AFD84ED650ABDEC028B70BD84F883
:103330009001274D84F8540294ED650AD5ED010AF9
:1033400030EE208AD4ED670AB0EE480AFDF754FD4E
:1033500084ED650A94ED960AD5ED000A18EE100A80
:103360001C4930EE200A884284ED960A06D395ED7A
:10337000011AF6EE001A31EE211A06E018EE100AD4
:103380001549884203DBBEEE001A85ED011A10EEE6
:10339000100A1249884204D39FED110A30EE800AC8
:1033A00006E010EE100A0F498842BDDB9FED0E0AC1
:1033B00085ED000AB8E700002C970020009400205B
:1033C000F49600204C790020B09600206C960020E6
:1033D000C401002000008CC200008C42000020C10B
:1033E000CDCCCC3E0000E841CDCCCCBE1CB5254CAC
:1033F000002704F1E40604F5D47540F2FF1800BF7D
:10340000FFF7E4FE05F078FEFFF78AFD207B062833
:1034100012D2DFE800F0110306090C0FFFF7EEFDF2
:103420000AE0FFF791FD07E0FFF79EFE04E000F0E1
:1034300045F801E0FFF718FF3046FFF745FE284644
:10344000FFF742FE207B50B90E48EC3007F03DFEFE
:103450000D4807F03AFEA4F89871A4F85C720222B5
:1034600000210A4805F02EF9B4F99821B4F95C322C
:10347000009701974146A06804F00EFA052008F075
:1034800080F8BDE700940020B0950020DD2A0008F8
:1034900000B587B0FFF7F0F91C2206496846FDF732
:1034A00095F80021684608F08BF80349886007B05A
:1034B00000BD0000C4E50008C401002070B52C4C1C
:1034C000012084F89001022084F854022948FDF775
:1034D00027FC284808F06EF9274D284895ED010A89
:1034E000D0ED0C0A264830EE600A85ED010A94ED15
:1034F000960AD5ED000A70EE200A08F08BF82068D5
:10350000D0ED060A1F4830EE200AD4ED960A30EEC0
:10351000200A84ED960A94ED650AD5ED010A70EE55
:10352000200A08F077F82068D0ED070A30EE200A6C
:10353000D4ED650A30EE200A84ED650A94ED961A02
:10354000D4ED940AB4EEE01AF1EE10FA06D9D4EDF7
:10355000930AB4EEE01AF1EE10FA01DBC4ED960A1C
:10356000D4ED680AFDF748FC84ED650A70BD0000E3
:1035700000940020F49600202C9700204C79002025
:10358000B09600206C96002070B5434801684C7AD4
:10359000DFED420A9FED420ADFED421A9FED421A2B
:1035A00002220323032C06D004260525022C06D074
:1035B000012C07D036E043718271027205E042713E
:1035C000867101E0467183710572B1F9064002EE21
:1035D000104AF8EEC22A82EEA02A22EE002A80EDDE
:1035E000032AB1F9044002EE104AB8EEC22AC2EE34
:1035F000202A22EE800A80ED040AB1F9024000EE92
:10360000104AB8EEC00A20EE210A80ED060AB1F990
:103610000010494200EE101AB8EEC00A20EE010A6E
:1036200080ED070A214DC4790126A978022C14D017
:10363000012C11D10D2914D06C1E0E2913D02A781B
:103640000021022A1AD01A4A526A12B14279042A77
:103650001FD080F82010616070BD0D29FCD1C671AB
:1036600070BDC27170BD80F82060FDF7B3FE00EE42
:10367000100AB8EE400A84ED040A70BD6268521C5C
:103680006260322A02D980F8203070BD80F82010A4
:1036900070BD80F8206070BDE880002000002544E7
:1036A00000007A446F1283BA6F12833AA50100209A
:1036B0002C97002090F82020012A07D0022A05D05C
:1036C000416A41F4802141620120704700684269EB
:1036D0000A43426100207047F0B590F8205004681A
:1036E000A468012D05D0022D03D0416A41F4802148
:1036F00057E014F0406F01D1E5004FD5C4F30164E9
:103700000125A5401D608D684FF4C0739DB1CE6842
:1037100035434E6845EAC605066803EB0417F551C4
:103720004FF4C275076805EB04150E697E51097DDB
:10373000012905D009E00E88CD6845EA4655EBE73A
:1037400001684E5946F480764E511179D5795679F3
:1037500041EA056195792D0445EA062529434FF490
:10376000C676056806EB0416A9511178D57841EAAA
:103770000561957852782D0445EA022211434FF4F1
:10378000C475026805EB04155151006803EB041180
:10379000425842F0010242500020F0BD416A41F41B
:1037A000001141620120F0BD10B590F82020012ADF
:1037B00007D0022A05D0416A41F4802141620120EC
:1037C00010BD3B48D0F8002242F00102C0F80022B0
:1037D000D0F8002222F47C52C0F80022D0F8002257
:1037E0004B6A42EA0322C0F800220A7D02F01F035E
:1037F00001229A40D0F81C329343C0F81C32CB69A6
:10380000B3B9D0F80C329343C0F80C328C894B68B2
:1038100064F31F434C6900EBC404C4F840320C89C4
:103820000B6864F31F434C6900EBC404C4F84432D2
:10383000CB69012B16D1D0F80C321343C0F80C32EF
:103840000C884B6864F31F434C6900EBC404C4F854
:1038500040320C89CB6864F31F434C6900EBC4040D
:10386000C4F844328B69002BD0F804320ED01343D5
:10387000C0F804320B69002BD0F8143208D013437F
:10388000C0F81432096A012904D008E09343EFE735
:103890009343F5E7D0F81C121143C0F81C12D0F87E
:1038A000001221F00101C0F80012002010BD00003C
:1038B0000064004000F0AABA70B590F82040012CD6
:1038C00005D0022C03D0416A41F4802128E004682D
:1038D00009B32469A40720D04FF4D874056804EB19
:1038E00001142D5915F00405956005682D591AD05D
:1038F000ED08556005682C5904F00204D4604FF4BB
:10390000DA74056804EB01142E5906F00F06082E30
:103910000CD308250DE0E468DCE7416A41F40011AE
:103920004162012070BD6D0D1560E3E72D5905F072
:103930000F05156105682D59C5F3072595610568C3
:103940002C59240C54614FF4DC72046802EB011210
:10395000A4581C700468A458240A5C700468A45815
:10396000240C9C700468A258120EDA704FF4DE72B8
:10397000046802EB0112A4581C710468A458240ABC
:103980005C710468A458240C9C710468A258120E3F
:10399000DA71006829B1016941F02001016100205C
:1039A00070BDC16841F02001C160F8E70246002007
:1039B00092F82010012901D002290CD111688A68DF
:1039C000520100D501208A68120100D5401C896887
:1039D000C90000D5401C70472DE9F05F054600681E
:1039E00000244669D0F804908768D0F80CB0D0F86D
:1039F00010A0D0F81880F10748D0F90714D00121A1
:103A00008160B80703D5284600F084FA0CE07807F7
:103A100002D54FF4006407E0380702D54FF4805414
:103A200002E0284600F074FAF80516D529684FF42C
:103A300080708860B80503D5284600F081FA0CE054
:103A4000780502D544F4005407E0380502D544F463
:103A5000804402E0284600F071FAF80316D5296880
:103A60004FF480308860B80303D5284600F07EFA12
:103A70000CE0780302D544F4004407E0380302D593
:103A800044F4803402E0284600F06EFA300707D58F
:103A90005FEACB6004D52968102044F40074C86044
:103AA00070074FF0080707D55FEA0B7004D5286848
:103AB000C760284600F0BBF9B00706D52868C06883
:103AC000800702D0284600F0B3F9700607D55FEAF8
:103AD000CA6004D52968102044F480640861B006E7
:103AE00007D55FEA0A7004D528680761284600F008
:103AF000BFF9F00606D528680069800702D028467D
:103B000000F0B8F9B00308D55FEAC96005D52968A7
:103B100010204860284600F0CDF9F00307D55FEA91
:103B2000097004D528684760284600F033FA30044D
:103B300046D55FEA497040D5F00504D55FEAC87004
:103B400001D044F00104B00504D55FEA887001D5C6
:103B500044F00204700504D55FEA487001D544F0D2
:103B60000404300529D518F0700F26D008F0700035
:103B7000402815D006DC102809D020280AD030288B
:103B800016D10AE050280ED0602811D10EE044F082
:103B900008040DE044F010040AE044F0200407E0BB
:103BA00044F0400404E044F0800401E044F48074F4
:103BB0002868816921F070018161296804204860CA
:103BC000002C05D0686A204368622846FFF772FE21
:103BD000BDE8F09F70B5040003D094F8200010B148
:103BE00004E0012070BD204600F082F820680168E2
:103BF00041F00101016000F0D1FC0546052604E01A
:103C000000F0CCFC401B0A2811D820684068C0078F
:103C1000F6D02068016821F00201016000F0BEFCCE
:103C200005460BE000F0BAFC401B0A2806D9606A82
:103C300040F40030606284F82060D2E72068406879
:103C40008007EFD4207E0128206801683DD021F054
:103C500080010160607E01282068016838D021F071
:103C600040010160A07E01282068016833D021F066
:103C700020010160E07E0128206801682ED041F01B
:103C800010010160207F01282068016829D021F0FF
:103C900008010160607F01282068016824D021F0BC
:103CA00004010160D4E902010843D4E9041211437C
:103CB00008436168491E08432168C86100206062AA
:103CC000012084F82000002070BD41F08001C0E791
:103CD00041F04001C5E741F02001CAE721F01001A1
:103CE000CFE741F00801D4E741F00401D9E7000033
:103CF000F0B587B0044614216846FCF7C3FC3E4B80
:103D00003E48DFF8F0E01968D4F800C03B4A0325CC
:103D10000226092710300024491CF4452AD11960D5
:103D2000012907D1016841F000710160006800F0CD
:103D300000700590106840F0080010601068CDE930
:103D4000005600F00800CDE9047069462C48CDE922
:103D5000024500F021FB00220521132000F05EFF48
:103D6000132000F04DFF00220521142000F056FF23
:103D700014203AE0DFF88CE0F44538D1D0F800C0E8
:103D80004CF0806CC0F800C0D0F800C001290CF0E5
:103D9000806CCDF814C0196007D1016841F0007142
:103DA0000160006800F000700590106840F00200AB
:103DB0001060106802AB00F0020005906020CDE9B1
:103DC000000683E8B00069460F4800F0E5FA0022DB
:103DD00005213F2000F022FF3F2000F011FF0022CC
:103DE0000521402000F01AFF402000F009FF07B035
:103DF000F0BD0000006400400400002030380240A4
:103E0000000C0240006800400004024090F82020AE
:103E10000021012A08D0022A06D0416A41F48021FB
:103E2000416201210846704700224262FAE770476A
:103E300070B58AB0054607AB6A460021FFF73CFD26
:103E40000A4E00242A6856F8240001680968914245
:103E500005D1836A1BB107A9049A00989847641C8E
:103E6000E4B2022CEED30AB070BD00008000002046
:103E70007047000070B58AB0054607AB6A4600215E
:103E8000FFF71AFD0A4E00242A6856F8240001683C
:103E90000968914205D1836A1BB107A9049A009869
:103EA0009847641CE4B2022CEED30AB070BD000047
:103EB000800000207047000070B5044690F8200094
:103EC000012804D0606A40F40020606218E00220FB
:103ED00084F820002068016821F00101016000F0F1
:103EE0005DFB05460EE000BF00F058FB401B0A28B2
:103EF00008D9606A40F400306062052084F8200030
:103F0000012070BD20684068C007EDD1606270BDBF
:103F10007047000070B5084E054600242A6856F820
:103F2000240001680968914201D1FDF7F7FC641C87
:103F3000E4B2022CF2D370BD800000207047000074
:103F400070B5084E054600242A6856F8240001681A
:103F50000968914201D1FDF7E1FC641CE4B2022C36
:103F6000F2D370BD800000207047000070B5084E8D
:103F7000054600242A6856F8240001680968914221
:103F800001D1FDF7CBFC641CE4B2022CF2D370BD6E
:103F90008000002070472DE9F0410446876D00F055
:103FA000FDFA064694F835000025022806D0802048
:103FB000606584F834500120BDE8F0812068016814
:103FC00021F0160101602068416921F08001416102
:103FD000206C08B9A06C20B12068016821F00801AC
:103FE00001602068016821F0010101600CE000F02F
:103FF000D5FA801B052807D920206065032084F8A6
:10400000350084F83450D7E720680068C007EED147
:1040100094F85C103F208840B860012084F8350097
:1040200084F834500020C7E790F83510022903D0F7
:104030008021416501207047052180F83510006816
:10404000016821F001010160002070472DE9F8436B
:1040500004464FF00009CDF8009063484FF4165124
:10406000A56D0068B0FBF1F72E6894F85C1008208D
:1040700000FA01F131420FD021680A6852070BD5CE
:104080000A6822F004020A6094F85C108840A86074
:10409000606D40F00100606594F85C104FF001081D
:1040A00008FA01F0304208D021684969090604D5B0
:1040B000A860606D40F00200606594F85C10042018
:1040C0008840304208D021680968890704D5A86073
:1040D000606D40F00400606594F85C10102088402A
:1040E000304218D021680968090714D5A8602068F3
:1040F0000168490304D50068000308D5A16C07E0F6
:104100000168C90503D4016821F008010160216C30
:1041100009B12046884794F85C102020884030423E
:1041200031D021680968C9062DD5A86094F83500FA
:1041300005282068016806D0490347D500680003B8
:104140001DD4616C1CE021F01601016020684169FA
:1041500021F080014161206C08B9A06C20B1206879
:10416000016821F00801016094F85C103F2088404C
:10417000A86084F8358084F83490216D1FE0E16BED
:1041800009B120468847606D00282BD0606DC007BC
:1041900014D0052084F835002068016821F0010161
:1041A00001600098401C0090B84203D82068006865
:1041B000C007F6D184F8358084F83490E16C00298A
:1041C00010D001B02046BDE8F04308470168C9059A
:1041D000D5D4016821F01001016084F8358084F89D
:1041E0003490CCE7BDE8F883140000202DE9F041BD
:1041F000044600F0D3F906465CB1022084F835008D
:10420000002584F834502068016821F00101016024
:104210000DE00120BDE8F08100F0C0F9801B052809
:1042200005D920206065032084F83500F2E7206876
:104230000068C007F0D12268116820480140D4E925
:1042400001031843D4E90336334318436369184321
:10425000A3691843E3691843236A18430843616A52
:10426000042903D1D4E90B131943084310602068D3
:104270004069666A20F0070130460E430127042892
:104280000CD1A06A0643E06A40B12046FEF730FA3E
:1042900020B14020606584F83570BAE72068466137
:1042A0002046FEF711FA94F85C203F21914081608E
:1042B000656584F835700020ACE700003F8010F0A1
:1042C0002DE9F0410446866D90F834000025012860
:1042D0000DD0012084F8340094F835700020012FAF
:1042E00007D084F8340002252846BDE8F08102207A
:1042F000FBE7022784F8357060652046FEF722FA56
:1043000094F85C103F208840B0602068016841F05C
:1043100016010160206C20B12068016841F008019D
:1043200001602068016841F001010160DCE70000E4
:1043300070B5044600F032F90546601C02D004480E
:104340000078044400F02AF9401BA042FAD370BD63
:104350000800002070B5094E0546002456F82410C8
:104360004868A84204D1087A052801D1C868804766
:10437000641CE4B20E2CF1D370BD00005C47002039
:10438000044910B50A68024202D00860FFF7E2FF54
:1043900010BD0000143C01402DE9F84FDFF8BCA12E
:1043A0000022012503264FF00F090AF1040BAAF1A0
:1043B000040E00BF0B6805FA02F42340A34270D13B
:1043C0000F7907F00307012F01D0022F16D187685C
:1043D0004FEA420806FA08FC27EA0C07D1F80CC09D
:1043E0000CFA08FC4CEA070CC0F808C04768A74361
:1043F0000C79C4F3001494403C4344600C79E443CA
:10440000A4070AD0C4684FEA420C06FA0CF7BC4372
:104410008F6807FA0CF72743C7600C7904F0030490
:10442000022C12D1D40800EB840CDCF82040570792
:10443000FF0E09FA07F824EA0804D1F8108008FAF8
:1044400007F848EA0408CCF8208004684FEA420CD8
:1044500006FA0CF7BC430F7907F0030707FA0CF7CD
:10446000274307604C6814F4403F70D03C4C2768E9
:1044700047F480472760246822F0030704F480444F
:104480000094384C07EB040CDCF8084897074FEA17
:10449000177809FA08F7BC43334FB84202D1002716
:1044A00024E054E0314FB84201D101271EE0304FE3
:1044B000B84201D1022719E02E4FB84201D103279B
:1044C00014E02D4FB84201D104270FE02B4FB84222
:1044D00001D105270AE02A4FB84201D1062705E09D
:1044E000284FB84201D1072700E0082707FA08F74C
:1044F0002743CCF80878DAF800405746D1F804C0D2
:104500009C435FEACC2C00D51C433C60DBF80040A8
:104510005F46D1F804C09C435FEA8C2C00D51C4355
:104520003C60DEF800407746D1F804C09C435FEA67
:104530008C3C00D51C433C60084F083F3C68D1F8D8
:1045400004C09C435FEACC3C00D51C433C60521C39
:10455000102AFFF42FAFBDE8F88F0000083C01409F
:104560004438024000300140000002400004024094
:1045700000080240000C02400010024000140240FB
:1045800000180240001C02400069084000D00120D1
:1045900070470AB1816170470904FBE701488068F0
:1045A000704700000800002070B5040025D094F882
:1045B0003D00002520B984F83C50204600F052FA16
:1045C000242084F83D002068016821F00101016089
:1045D0002068016841F4004101602068016821F40D
:1045E0000041016000F006FC4D4A6168914201D82B
:1045F0004C4900E04C49884201D2012070BD4B4932
:104600002368B0FBF1F15E6826F03F060E435E6062
:104610006368934206D94FF4967359434FF47A7303
:10462000B1FBF3F12368491C1E6A26F03F063143B3
:1046300019626168914210D84900401EB0FBF1F246
:10464000521CC2F30B02042A01D2042022E0B0FB68
:10465000F1F0401CC0F30B001CE0A268F2B301EBC8
:10466000C10303EB0116431EB3FBF6F35B1C43F4DB
:1046700080431B0549D092B301EBC10202EB01114B
:10468000401EB0FBF1F0401CC0F30B0040F4804032
:1046900040F400402168CA694CF6FF739A43104306
:1046A000C861D4E9071001432068026822F0C00203
:1046B00011430160D4E9030101432068826848F294
:1046C000FF339A4311438160D4E90501084321680F
:1046D000CA6822F0FF021043C86001E00EE016E055
:1046E0002068016841F0010101602564202084F800
:1046F0003D00256384F83E50002070BD01EB41066B
:10470000431EB3FBF6F35B1CB3E70120C2E701EBEA
:104710004101401EB0FBF1F0401CC0F30B00B7E7B5
:10472000A086010080841E0000093D0040420F0069
:104730002DE9FF4F83B09A46DDE911879346044681
:10474000DDF84090FFF72AFF054694F83D00202849
:1047500070D11923012274492046009501F034FFDD
:104760000028F5D194F83C00012863D0012084F89A
:104770003C0020680168C90703D1016841F00101CC
:1047800001602068016821F400610160222084F842
:104790003D00402084F83E0000262664C4F82490A2
:1047A000A4F82A80608D20856048E062CDE900751C
:1047B00053465A462046049901F008FE002879D154
:1047C000208DD0B1012821D00228206824D0416951
:1047D00080690090208D032866D801282BD0544989
:1047E00002283B464FF00002009557D088462046ED
:1047F00001F0EAFE00285DD13AE020684169816954
:104800000091016841F4007101607DE02068016859
:1048100021F480610160F0E7016821F480610160AA
:104820002068016841F40061016020684169806985
:10483000009069E075E02A463946204601F06AFF9B
:1048400088BB54E02068016841F400710160206871
:104850000069616A0870606A401C6062218D491EAF
:104860002185618D491E618521680969017042E0D9
:104870002068016821F48061016020680069616A34
:104880000870606A401C6062208D401E2085608D2B
:10489000401E60853B46002241460095204601F0BF
:1048A00093FE00B9CEE705E02A463946204601F0DE
:1048B00031FF18B1012007B0BDE8F08F2068006912
:1048C000616A0870606A401C6062208D401E81B27F
:1048D0002185608D401E608520684269D243520761
:1048E00012D4032903D1016821F48061016020689A
:1048F0000069616A0870606A401C6062208D401E19
:104900002085608D401E6085208D00287FF462AF79
:10491000202084F83D0084F83E6084F83C6000204C
:10492000C9E70220C7E70000020010000000FFFFF7
:10493000040001002DE9FF4F83B09A46DDE911978D
:1049400093460446DDF84080FFF728FE054694F8BC
:104950003D0020287FD1192301224049204600959F
:1049600001F032FE002876D194F83C00012872D084
:10497000012084F83C0020680168C90703D1016860
:1049800041F0010101602068016821F400610160CB
:10499000212084F83D00402084F83E000026266453
:1049A000C4F82480A4F82A90608D20852C48E06209
:1049B000CDE9007553465A462046049901F084FD1E
:1049C00070B930E02A463946204601F0DBFE58B186
:1049D000206C042804D12068016841F40071016052
:1049E000012007B0BDE8F08F606A21680078086197
:1049F000606A401C6062218D491E89B22185628DEA
:104A0000521E628522685369DB435B070BD469B190
:104A100000781061606A401C6062208D401E208515
:104A2000608D401E6085208D0028CBD12A463946F6
:104A3000204601F09DFD0028CAD154F83D0B0168C5
:104A400041F400710160202004F81E09E6776677C2
:104A50000020C6E7FFE70220C3E7000002001000C5
:104A60000000FFFFF0B587B0044614216846FBF74D
:104A700009FE1A49206888422DD11948016841F081
:104A800004010160016801F004010591016841F031
:104A9000010101600068122400F0010005904FF44C
:104AA00000700125032604278DE8F10069460D48B2
:104AB000FFF772FC28028DE8F10069460A48FFF70B
:104AC0006BFC07481030016841F400010160006888
:104AD00000F40000059007B0F0BD0000005C00404D
:104AE000303802400008024000000240024881685D
:104AF0000278114481607047080000200B4810B50F
:104B0000016841F400710160016841F48061016055
:104B1000016841F480710160032000F09FF80020DB
:104B200000F006F800F050F8002010BD003C0240F4
:104B300030B505461F4887B00024016841F01001D8
:104B40000160006806A900F01000009001A800F0C4
:104B500031F90498A8B100F04DF940001649174A00
:104B6000B0FBF1F11648491E026040F2E732C0E99D
:104B70000324C0E90114846100F056FD040003D051
:104B800015E000F037F9E9E70D4800F0C3FD040037
:104B90000DD1362000F034F8102D07D2002229461E
:104BA000362000F03BF80748056000E0012407B01C
:104BB000204630BD4038024040420F000010004007
:104BC000240A00200C0000200C4882B0016841F447
:104BD00080410160006800F4804000900748001F99
:104BE000016841F0805101600068002200F08050AF
:104BF00000900F21901E02B000F010B8443802401F
:104C0000002809DB00F01F020121914040098000CB
:104C100000F1E020C0F8001170470000F0B40E4B26
:104C20001B680C46C3F30223C3F10705042D00D90A
:104C30000425191D072901D2002300E0DB1E0126EF
:104C400006FA05F1491E214099409E40761E164005
:104C50003143F0BC04F077BB0CED00E0064900F0F6
:104C6000070208684FF6FF03184040EA0220034A93
:104C700010430860704700000CED00E00000FA05EA
:104C80002DE9F0470E46050065D0DFF81481D8F80D
:104C90000000F7B200F00700B04207D288F80070B9
:104CA000D8F8000000F00700B04254D128683D4C0D
:104CB000810712D5400703D5206840F4E0502060FA
:104CC0002878000703D5206840F460402060206801
:104CD000A96820F0F000084320602878C0072DD094
:104CE000304968680839012812D0022813D00328F7
:104CF00011D00968890700292DDA216821F0030104
:104D000001432160FFF74AFC814641F2883A0EE0F8
:104D100009688903EFE709688901ECE7FFF73EFCC2
:104D2000A0EB0901514502D90320BDE8F0872068B6
:104D3000696800F00C00B0EB810FEFD1D8F80010DB
:104D4000404601F00701B14207D90770006800F042
:104D50000700B04201D00120E7E72878400705D5D9
:104D60002068E96820F4E0500843206028780007B4
:104D700006D52068296920F4604040EAC10020601F
:104D800000F058F82168084AC1F30311515CC8408B
:104D90000649086006480068FFF7CAFE0020C4E71D
:104DA000003C02400838024000E2000814000020E5
:104DB0000C0000200F2202600C4A136803F003036A
:104DC0004360136803F0F0038360136803F4E05357
:104DD000C36012684FF4E05303EAD2020261044850
:104DE000006800F0070008607047000008380240C3
:104DF000003C02400448054900680968044AC1F3C0
:104E00008221515CC84070471400002008380240DD
:104E100010E200080448054900680968044AC1F323
:104E20004231515CC84070471400002008380240ED
:104E300010E20008154810B5006810F00C02144884
:104E400013D01449042A0FD0082A0ED10F4C241F66
:104E50002268236802F03F025B0207D52068C0F396
:104E60008810A0FB010106E0084610BD2168C1F3CF
:104E70008811A1FB00010023FBF7ECFA2168C1F3C4
:104E80000141491C4900B0FBF1F010BD0838024057
:104E90000024F400001BB7002DE9F84F04006ED089
:104EA0002078DFF84C93C007A9F104054AD009F136
:104EB00004000168C1F38101012908D00068C0F332
:104EC000810002280AD1D9F80000400206D52868DE
:104ED000800337D560680028E1D033E06068B0F522
:104EE000803F10D0B0F5A02F286810D020F480307B
:104EF0002860286820F4802028606068A8B1FFF747
:104F00004DFB06460DE0286840F48030F4E740F49D
:104F100080202860F7E700BFFFF740FB801B642874
:104F200073D828688003F7D50CE0FFF737FB0646F7
:104F300005E000BFFFF732FB801B6428F0D828682B
:104F40008003F7D42078DFF8AC8280074FF0000AA6
:104F50003ED5A748001D016811F00C0F08D000686D
:104F6000C0F3810002280BD1D9F80000400207D419
:104F70002868800716D5E068012800D112E033E1E7
:104F8000E068B8B10120C8F80000FFF707FB06464B
:104F900005E000BFFFF702FB801B0228C0D828688D
:104FA0008007F7D52868216920F0F80040EAC100A1
:104FB00028600DE0C8F800A0FFF7F0FA064604E00C
:104FC000FFF7ECFA801B02281FD828688007F7D467
:104FD0002078000722D5864F87486169703771B104
:104FE00001210160FFF7DAFA064604E0FFF7D6FA7E
:104FF000801B022809D838688007F7D50EE0C0F872
:1050000000A0FFF7CBFA064605E082E0FFF7C6FAFC
:10501000801B02287DD838688007F7D420784007A5
:1050200068D5DFF8CCB100270BF13C0BDBF80000B2
:10503000C0000BD4DBF8001041F08051CBF8001019
:10504000DBF80000012700F0805000906B4E3068C4
:10505000C00510D4306840F480703060FFF79EFACD
:10506000009005E0FFF79AFA0099401A022850D8FC
:105070003068C005F6D55E4EA0686C3601280FD0AA
:105080000528306810D020F001003060306820F032
:1050900004003060A068B8B1FFF780FA00900FE01C
:1050A000306840F00100F4E740F004003060F7E7BA
:1050B000FFF774FA0099411A41F28830814266D8AC
:1050C00030688007F4D50EE0FFF768FA009007E03B
:1050D000FFF764FA0099411A41F28830814256D8AC
:1050E00030688007F4D42FB1DBF8001021F0805134
:1050F000CBF80010A069C8B33D49091D0968C1F388
:10510000810102294AD00228504607D0C8F8600021
:1051100000E03CE0FFF742FA04463BE04746C8F8AF
:105120006000FFF73BFA064605E000BFFFF736FADE
:10513000801B02282BD828688001F7D4D4E9070106
:105140000843A16A2E4A490802EB0141626A41EA1A
:105150008211084394F82C1040EA0161C9F800104C
:1051600001203866FFF71AFA044606E03EE000BF69
:10517000FFF714FA001B022809D828688001F7D528
:1051800034E000BFFFF70AFA001B022802D903200F
:10519000BDE8F88F28688001F4D427E00128F7D013
:1051A000D9F80000E26900F4800191421CD1226A22
:1051B00000F03F01914217D147F6C071626A014089
:1051C000B1EB821F10D1A26A4FF0FF3300F44031DF
:1051D00003EB5202B1EB024F06D194F82C1000F011
:1051E0007060B0EB016F01D00120D1E70020CFE764
:1051F0000438024000004742800E474200700040E1
:105200000000FFFF70B5040009D0606A002540B1BE
:1052100025616561A56294F8510040B10CE0012060
:1052200070BD6068B0F5827FF4D0E561F2E784F884
:105230005050204600F044F8022084F851002068C5
:10524000016821F040010160A088218900F482708A
:1052500001F404410843A18901F400610843217C61
:1052600001F002010843217D01F001010843218B77
:1052700001F400710843217F01F03801084394F8DC
:10528000201001F080010843218D01F400510843F2
:1052900021680860A069042101EA104094F82410F4
:1052A00001F010010843216848602068C16921F4B9
:1052B0000061C1616565012084F85100002070BD66
:1052C000F0B587B0044614216846FBF7DBF91C49AA
:1052D0002068884232D11B480024016841F4805183
:1052E0000160006800F48050059016481438016889
:1052F00041F002010160016801F0020105910168BD
:1053000041F0010101600068022500F001000590F4
:105310001820CDE9000502AA0326052782E8D0005F
:1053200069460948FFF738F88020CDE9000502AA50
:10533000694682E8D0000548FFF72EF807B0F0BDB7
:1053400000300140443802400004024000000240A6
:105350002DE9FF4F81B0044690F8500000260E9FC3
:105360001D4693464FF0010901280FD04FF0010A66
:1053700084F850A0FFF712F9804694F85100616854
:1053800001280DD0B1F5827F08D103E0022005B0DD
:10539000BDE8F08FA16809B9042801D00226C9E050
:1053A0000298002865D0BBF1000FFBD0002DF9D08A
:1053B00094F85100042802D0052084F85100002000
:1053C0006065C4F838B0E587A58702992163E58652
:1053D000A5862064606420680168490603D40168DA
:1053E00041F040010160E068B0F5006F606803D0F3
:1053F000F0B3012D47D081E008B1012D3CD1206BE5
:1054000021680088C860206B801C2063E08E401EED
:10541000E08631E02068816889070FD5E18E69B1A7
:10542000B9F1010F0AD1216B0988C160206B801C82
:105430002063E08E401EE0864FF0000920688168FE
:10544000C9070CD0E18F51B1C068A16B0880A06B77
:10545000801CA063E08F401EE0874FF00109FFF73A
:105460009DF8A0EB0800B84206D3781C04D001E0F8
:1054700009E05BE003265BE0E08E0028CAD1E08F04
:105480000028C7D140E0206B216800780873206BAA
:10549000401C2063E08E401EE0862FE0206881687B
:1054A00089070FD5E18E69B1B9F1010F0AD1216BDE
:1054B00009780173206B401C2063E08E401EE0865B
:1054C0004FF0000920688168C9070CD0E18F51B105
:1054D000C068A16B0870A06B401CA063E08F401EE9
:1054E000E0874FF00109FFF759F8A0EB0800B84238
:1054F00002D3781C02D0BAE7002FB8D0E08E002883
:10550000CCD1E08F0028C9D142463946204602F06E
:1055100061FE18B10126202060650BE0A06818B973
:105520002068C16880680090606D08B1012601E0C4
:1055300084F851A0002084F85000304627E77047D7
:10554000704710B590F83C20012A22D0012280F843
:105550003C20CA688C6822F4407222434C6822F4D2
:10556000806222430C6822F4006222430C6922F418
:10557000805222434C6922F400522243C96900231D
:1055800022F480420A4301684A6480F83C300020DB
:1055900010BD022010BD000070B590F83C20012A1B
:1055A00032D0012480F83C40022280F83D2003687C
:1055B0005A689D6822F070060A6832435A60134B9D
:1055C00002689A4214D0B2F1804F11D0104B9A4227
:1055D0000ED0104B9A420BD00F4B9A4208D00F4B73
:1055E0009A4205D00E4B9A4202D00E4B9A4204D1F9
:1055F000496825F080031943916080F83D400021FF
:1056000080F83C10084670BD022070BD00000140CB
:105610000004004000080040000C0040000401406D
:10562000004001400018004010B5040003D094F879
:105630003D0010B107E0012010BD002084F83C00BF
:10564000204600F01FF8022084F83D00211D20684C
:1056500003F008F9012084F8460084F83E0084F83D
:105660003F0084F8400084F8410084F8420084F848
:10567000430084F8440084F8450084F83D0000208D
:1056800010BD000008B51D4902681D488A4207D1B7
:10569000016841F001010160006800F001000AE0CA
:1056A0001749184B091F9A4207D1086840F00200B9
:1056B0000860086814E0009008BD134B9A4207D1B7
:1056C000086840F008000860086800F00800F2E789
:1056D0000E498A4207D1016841F002010160006869
:1056E00000F00200E7E70A498A42E5D1016841F487
:1056F00000310160006800F40030DCE70000014088
:105700004438024000040040000C00400004014006
:105710000044014090F83D10012901D0012070475C
:10572000022180F83D100168CA6842F00102CA6097
:1057300000681149884214D0B0F1804F11D00F4950
:1057400088420ED00E4988420BD00E49884208D0BC
:105750000D49884205D00D49884202D00C49884243
:1057600004D1816801F00701062903D0016841F0E6
:10577000010101600020704700000140000400406A
:1057800000080040000C00400004014000400140BF
:105790000018004070B5044690F83C000025012830
:1057A00017D0012684F83C60022084F83D00206870
:1057B000826822F0770222F47F42826008685028D3
:1057C00038D00DDC20284FD005DC90B3102811D143
:1057D0004AE0022070BD302846D040280AD13BE084
:1057E00060282FD070280DD0B0F5805F03D0B0F5C1
:1057F000005F12D0012584F83D60002084F83C0051
:10580000284670BDCB68D1E90121206803F0A3F8D8
:105810002068816841F0770109E0CB68D1E9012176
:10582000206803F098F82068816841F48041816025
:10583000E1E719E0CA684968206803F061F950217E
:10584000206806E0CA684968206803F06AF96021A8
:10585000206803F08AF8CEE7CA684968206803F038
:105860004FF940212068F4E7226801461046F0E72E
:1058700070472DE9F04104460068C66805694FF09D
:105880000007A90713D5B10711D5F91E0161012041
:105890002077206880698007204602D0FFF7E8FF64
:1058A00004E000F023F9204600F0C8F927776807E4
:1058B00016D5700714D521686FF004000861022026
:1058C00020772068806910F4407F204602D0FFF7DF
:1058D000CFFF04E000F00AF9204600F0AFF9277787
:1058E000280715D5300713D521686FF00800086127
:1058F000042020772068C0698007204602D0FFF787
:10590000B7FF04E000F0F2F8204600F097F927779F
:10591000E80616D5F00614D521686FF0100008616E
:10592000082020772068C06910F4407F204602D00C
:10593000FFF79EFF04E000F0D9F8204600F07EF962
:105940002777E80708D0F00706D021686FF001003C
:105950000861204600F0D8F9280608D5300606D59B
:1059600021686FF0800008612046FFF7E8FD6806B7
:1059700008D5700606D521686FF040000861204602
:1059800000F0CCF9A8060AD5B00608D521686FF05A
:10599000200008612046BDE8F041FFF7D1BDBDE819
:1059A000F081000030B587B0044614216846FAF74C
:1059B00069FE2368404C002140480222A34211D1D5
:1059C000036843F010030360006800F010000590C6
:1059D00010020090CDE901210120CDE903106946B4
:1059E000374812E0374CA34213D1036843F0040355
:1059F0000360006800F004000590A0150090CDE958
:105A00000121CDE9031269462F48FEF7C5FC07B016
:105A100030BD2E4CA34210D1036843F0080303604D
:105A2000006800F00800059020140090CDE90121E5
:105A3000CDE9031269462648E7E7264CA34211D177
:105A4000036843F080030360006800F08000059065
:105A50004FF4E0500090CDE90121CDE903126946F1
:105A60001D48D2E71D4D0324AB4210D1036843F417
:105A700080730360006800F48070059080200090BF
:105A8000CDE90121CDE9031469461548BDE7154D5F
:105A9000AB42BCD1036843F020030360006800F010
:105AA0002000059040200090CDE90121CDE90314AC
:105AB00069460D48A9E70000000001403038024067
:105AC00000100240000400400008024000080040AE
:105AD000000C0240000C0040001C02400004014089
