:020000040800F2
:10000000C0C9002029030008337C00087769000874
:10001000717A0008D91600084D9C00080000000005
:10002000000000000000000000000000690200085D
:100030004D2C000800000000C50200087193000864
:100040004303000843030008430300084303000878
:100050004303000843030008430300084303000868
:10006000430300086D3000087330000843030008A4
:100070006D2B0008430300084303000843030008F6
:10008000430300084303000843030008E117000886
:10009000F116000843030008430300087930000804
:1000A0004303000843030008430300084303000818
:1000B0004303000843030008430300084303000808
:1000C00043030008430300084303000843030008F8
:1000D00043030008059C0008430300081D9C00081A
:1000E00043030008430300084303000843030008D8
:1000F00043030008430300084303000843030008C8
:1001000043030008430300084303000843030008B7
:100110004303000843030008419400084303000818
:1001200043030008792B0008430300084303000839
:10013000430300084303000843030008D9180008DC
:10014000291800084303000843030008430300087C
:10015000852B0008912B00089D2B0008359C00087A
:100160004303000843030008430300084303000857
:100170004303000843030008430300080000000095
:10018000430300084303000800F002F800F05CF8A5
:100190000AA090E8000C82448344AAF10107DA45E2
:1001A00001D100F051F8AFF2090EBAE80F0013F0D8
:1001B000010F18BFFB1A43F001031847280A01007A
:1001C000480A01000A444FF0000C10F8013B13F0FC
:1001D000070408BF10F8014B1D1108BF10F8015BA0
:1001E000641E05D010F8016B641E01F8016BF9D193
:1001F00013F0080F1EBF10F8014BAD1C0C1B09D1EA
:100200006D1E58BF01F801CBFAD505E014F8016B5B
:1002100001F8016B6D1EF9D59142D6D370470000ED
:100220000023002400250026103A28BF78C1FBD8FF
:10023000520728BF30C148BF0B6070471FB50FF091
:100240006BFB1FBD10B510BD00F072FA1146FFF731
:10025000F5FF0CF035FE00F090FA03B4FFF7F2FF63
:1002600003BC00F0F5FA00002C4B19680868B0E8F0
:10027000F04F80F30988BFF36F8F4FF0000080F3D9
:10028000118870470000000008480068006880F38B
:1002900008884FF0000080F3148862B661B6BFF39F
:1002A0004F8FBFF36F8F00DF00BF00BF08ED00E08E
:1002B000DFF80C00016841F470010160704700BF75
:1002C00088ED00E0EFF30980BFF36F8F134B1A68DE
:1002D0001EF0100F08BF20ED108A20E9F04F1060CB
:1002E00009B44FF0500080F31188BFF34F8FBFF374
:1002F0006F8F0DF0D9FC4FF0000080F3118809BC1E
:1003000019680868B0E8F04F1EF0100F08BFB0EC95
:10031000108A80F30988BFF36F8F704718000020A0
:10032000EFF30580704700000948804709480047FF
:10033000FEE7FEE7FEE7FEE7FEE7FEE7FEE7FEE795
:10034000FEE7FEE704480549054A064B70470000F2
:100350003194000889010008C0C30020C0C90020F2
:10036000C0C50020C0C500209FED1A1AF5EE000A96
:1003700040EE010ABDEEE00AF5EEC00A10EE100AEA
:10038000F1EE10FA38BF401E00EE100A1349F7EEE6
:10039000001AB8EEC00A30EEC00ADFED0F0A20EEF8
:1003A000200AFCEEC00A10EE900AC0F3080000EE2E
:1003B000900A01EB8000F8EE600A90ED011A70EEF1
:1003C000600A90ED000A71EEE01A21EE800A00EE5C
:1003D000810A704783F9223E00000044140101089D
:1003E000DFED190AB5EEC00A60EE200ABDEEE01A94
:1003F00011EE100AF1EE10FA38BF401E00EE100A9E
:100400001349F7EE001AB8EEC00A30EEC00ADFED6D
:100410000F0A60EE200ABCEEE00A10EE100AC0F3EC
:10042000080000EE100A01EB8000B8EE400A90EDE3
:10043000011A70EEC00A90ED000A71EEE01A21EE8A
:10044000800A00EE810A704783F9223E00000044D2
:100450001401010853EA020C00F069802DE9F04B09
:100460004FF00006002B1FBFB3FA83F503FA05F423
:1004700024FA05F65E4012BF1643B2FA82F502FA7C
:1004800005F4C5F120051EBF22FA05FC44EA0C0460
:10049000203556EA044C4FEA144418BF641C4FF050
:1004A00000084FF00009904271EB030C39D300298A
:1004B00019BFB1FA81F701FA07F6B0FA80F700FA2E
:1004C00007F6C7F120071EBF20FA07FC46EA0C0614
:1004D0002037B6FBF4FCA7EB0507103F07F01F0B16
:1004E000CBF120060CFA0BFB2CFA06F644BFB34600
:1004F0000026202FA4BF5E464FF0000B5BEA060CDF
:1005000008BF4FF0010B19EB0B09ABFB027C48EB6A
:100510000608C01B06FB02CC0BFB03CC71EB0C01E5
:10052000C1E70B46024641464846BDE8F08B13B58D
:100530004FF000004FF00001AFF30080BDE81C4019
:100540007047032A40F2308010F0030C00F0158051
:1005500011F8013BBCF1020F624498BF11F801CBC6
:1005600000F8013B38BF11F8013BA2F1040298BF2B
:1005700000F801CB38BF00F8013B11F0030300F095
:100580002580083AC0F0088051F8043B083A51F839
:1005900004CBA0E80810F5E7121D5CBF51F8043B3E
:1005A00040F8043BAFF30080D20724BF11F8013BB1
:1005B00011F801CB48BF11F8012B24BF00F8013B13
:1005C00000F801CB48BF00F8012B704710B5203A66
:1005D000C0F00B80B1E81850203AA0E81850B1E8FC
:1005E0001850A0E81850BFF4F5AF5FEA027C24BFB2
:1005F000B1E81850A0E8185044BF18C918C0BDE8A9
:1006000010405FEA827C24BF51F8043B40F8043B71
:1006100008BF7047D20728BF31F8023B48BF11F826
:10062000012B28BF20F8023B48BF00F8012B704780
:1006300002F0FF0343EA032242EA024200F002B85A
:100640004FF000020429C0F0128010F0030C00F0FB
:100650001B80CCF1040CBCF1020F18BF00F8012B79
:10066000A8BF20F8022BA1EB0C0100F00DB85FEA47
:10067000C17C24BF00F8012B00F8012B48BF00F813
:10068000012B70474FF0000200B513469446964682
:10069000203922BFA0E80C50A0E80C50B1F1200195
:1006A000BFF4F7AF090728BFA0E80C5048BF0CC043
:1006B0005DF804EB890028BF40F8042B08BF7047A1
:1006C00048BF20F8022B11F0804F18BF00F8012B13
:1006D000704770477047704710B500F009F8006820
:1006E00010BD10B5044600F003F8046010BD000012
:1006F0000048704760C300201FB584B000200A9CEA
:1007000006AB04AA02A90094AFF3008018B1DDE99A
:10071000020108B010BD0348204000F037F8002067
:100720000146F6E70000207C0048704760C30020C7
:100730007546FFF7F9FFAE4605006946534620F0BF
:100740000700854618B020B5FFF7FCFDBDE8204046
:100750004FF000064FF000074FF000084FF0000B7D
:1007600021F00701AC46ACE8C009ACE8C009ACE830
:10077000C009ACE8C0098D46704710B50446AFF318
:1007800000802046BDE81040FFF767BD10B500F0BF
:1007900009F8BDE81040AFF30080002801D000F058
:1007A00057B8704710B5022803D0410103D50DA1F9
:1007B00012E0002010BD010101D50FA10CE0C10025
:1007C00001D511A108E0810001D512A104E040008B
:1007D00001D513A100E0002115A000F03FF8012091
:1007E00010BD0000496E76616C6964204F706572BF
:1007F0006174696F6E000000446976696465204227
:1008000079205A65726F00004F766572666C6F775B
:1008100000000000556E646572666C6F7700000022
:10082000496E657861637420526573756C7400005D
:100830005349474650453A2041726974686D657462
:10084000696320657863657074696F6E3A20000093
:1008500001491820ABBEFEE72600020070B5054630
:100860000C460A2000E06D1C00F011F835B1287824
:100870000028F8D102E0641C00F009F814B12078D7
:100880000028F8D1BDE870400A20AFF3008008B519
:1008900069468DF800000320ABBE08BD704709F023
:1008A00047BB09F049BEFFF75FBDF0EE400AF5EE29
:1008B000C00AF1EE10FA02DDB0EE600A7047B1EE48
:1008C000600AFBE7002803D09FED020A80ED000AD2
:1008D0007047000000000000002803D0B3EE060AB5
:1008E00080ED000A7047000070B52DED0C8B84B0D0
:1008F00006460C4615469FED990AF0EE408A9FED9C
:10090000970AB0EE409A9FED950AF0EE40BA9FED3F
:10091000930AF0EE409A9FED910AB0EE40AA0EB114
:1009200004B11DB904B0BDEC0C8B70BD8C48FFF751
:10093000C9FF8C48FFF7D0FF8A48D0ED000A9FED31
:100940008A1A60EE810AB0EE600A00F025F9F0EE36
:10095000408A28EEA80AF0EE408A8248D0ED000ACC
:10096000B0EE001A60EE810A9FED7F1A60EE810AF8
:10097000B0EE600A00F010F9B0EE409A29EE090AD4
:10098000B0EE409ADFED790AB7EE000A00EEA80A51
:10099000DFED770A00EEC90ADFED760A20EE200AC5
:1009A000754880ED000A6E4890ED000ADFED730A8D
:1009B00080EE201AB7EE000A31EE000A20EE000A9F
:1009C0006D48D0ED000A80EE801A6D4880ED001A67
:1009D00094ED000AB5EEC00AF1EE10FA0DD194EDD7
:1009E000010AB5EEC00AF1EE10FA06D194ED020A42
:1009F000B5EEC00AF1EE10FA46D09FED580AB0EEFF
:100A0000408A0020019002900390D4ED000A60EE2D
:100A1000A00A94ED011AD4ED011A41EE210A94EDD9
:100A2000021AD4ED021A41EE210AB0EE600A00F07B
:100A3000A9F8B0EE408A94ED000A20EE080A8DED88
:100A4000010A94ED010A20EE080A8DED020A94EDE8
:100A5000020A20EE080A8DED030ADDED010AF1EE2F
:100A6000600AB0EE600AFFF71AFFF0EE409A9DEDC3
:100A7000031AF0EE410A9DED021AB0EE410AFFF7AB
:100A800010FFB0EE40AA07E09FED340AF0EE409A66
:100A90009FED320AB0EE40AA95ED000AB5EEC00A0D
:100AA000F1EE10FA0DD195ED010AB5EEC00AF1EEA6
:100AB00010FA06D195ED020AB5EEC00AF1EE10FA71
:100AC0003CD0B0EE690A00F067F8B0EE408AB0EEB4
:100AD000690AFFF7E8FEB0EE40DAB0EE4A0A00F02D
:100AE0005BF8F0EE40AAB0EE4A0AFFF7DCFEB0EE8B
:100AF00040BA28EE2A0AD5ED010A20EE200AD5EDEB
:100B0000000A0DEE200A68EE0B0A95ED021A00EEBF
:100B1000810AB0EE40CA95ED010A20EE0B0AD5ED30
:100B2000020A0AEEE00AF0EE40CAF0EE6C0AB0EEFD
:100B30004C0AFFF7B6FEF0EE40BA03E09FED070A5D
:100B4000F0EE40BAB0EE4A1AF0EE690AB0EE6B0A67
:100B500030460BF0DBFB00BFE4E6000000000000C5
:100B60003C0200204002002035FA8E3CC1BFAD3B64
:100B70009DF8C5362F7C1C4144020020506CC24AAF
:100B80004802002010B50AF05CFDB7EE001AC1EE75
:100B9000000AB0EE600A10BDFFF722BC2DE9F0415B
:100BA0002DED028B9AB00546B0EE408A0E461746F0
:100BB0009846002017901890199014901590169050
:100BC0004DB146B13FB1B8F1000F04D0B5EEC08AC7
:100BD000F1EE10FA05D100201AB0BDEC028BBDE891
:100BE000F08196ED000A8DED170A96ED010A8DED64
:100BF000180A96ED020A8DED190A97ED000A8DED9F
:100C0000140A97ED010A8DED150A97ED020A8DED94
:100C1000160A17AA14A928460BF0CAF9402104A8FD
:100C2000FFF730FD00200090019002900390002417
:100C300017A904A80CF060FE00BF30E004A800EB88
:100C4000041090ED000AD5ED000A20EE200A04A859
:100C500000EB0410D0ED010A95ED011A00EE810AB7
:100C600004A800EB0410D0ED020A95ED021A00EE84
:100C7000810A04A800EB0410D0ED030A95ED031AD5
:100C800000EE810A20EE080AF0EE000A80EE201A3B
:100C9000684600EB840080ED001A601CC4B2042C8E
:100CA000CCDB002410E005EB840090ED000A6846E0
:100CB00000EB8400D0ED000A30EE200A05EB840042
:100CC00080ED000A601CC4B2042CECDB28460CF05A
:100CD000FDFC012080E700001049CA6AE2B191EDF5
:100CE000010AB5EEC00AF1EE10FA01DCB1EE400ADD
:100CF000D0ED050AB4EEE00AF1EE10FA0AD291F84E
:100D00003010002903D1416A11B1032101707047ED
:100D10000221FBE70121F9E70021F7E7DC9600203B
:100D200070B50446FFF7D8FF25782B4B2B490020E0
:100D30003DB10122012D0DD0022D1CD0032D3CD13F
:100D400022E081F83000A0609FED250AE06083ED8D
:100D5000010A32E09FED230A81F8300083ED000A9A
:100D6000A06A0028206903D0226A801AA06024E0CB
:100D7000A262206221E02569E5619FED1B0A6262A3
:100D8000A06083ED000A18E0E56923695B1BE3605E
:100D9000A569AB4211D96062A06291ED010AB5EE7E
:100DA000C00AF1EE10FA01DCB1EE400A10EE100AB2
:100DB0000E4B984201DA81F830200D4A4868904283
:100DC00002D3BAEE0E0A04E00A4A904203DBB2EE06
:100DD0000E0A81ED010A70BD1C960020DC960020F1
:100DE00000000000A69B443C0AD7233CCDCCCC3D60
:100DF000000070C100007041BDEEC01A4FF4B47124
:100E000011EE100AF8EEC11A90FBF1F201FB12008C
:100E100001EE100A30EE610AB8EEC11A31EE001A86
:100E2000BDEEE00A10EE100AF8EEC01A90FBF1F2E7
:100E300001FB120000EE100A70EEE11A0C49B8EE48
:100E4000C00A30EE210A31EE400A9FED0A1A10EE78
:100E5000100A884202DD30EE410A06E010EE100A68
:100E60000549884201D930EE010A30EE800A704708
:100E7000000034430000B443000034C310B500F058
:100E80008FFA214800F076FA204C08B1022000E0E9
:100E9000012020701E4800F06DFA10B10320207070
:100EA00008E02078022802D0032803D006E04FF49F
:100EB000FA6001E04FF47A7003F028FD07F05AFE63
:100EC00006F0C6F801F0E4FD01F0FAFB01F00CFFBA
:100ED0002078022809D003280FD0012813D100F070
:100EE0001BFFBDE8104000F003BF02F0DFF807F081
:100EF0007DFCBDE8104002F087BD06F0CFFEBDE8E6
:100F0000104007F089B910BD9477002098010020A7
:100F1000A477002001221021014803F028BE000020
:100F20000000024000221021014803F020BE000012
:100F3000000002407047000001221146014803F002
:100F400016BE00000004024000220121014803F007
:100F50000EBE00000004024070470BF0DEBF00F040
:100F6000DBB910B5FFF7E6FFFFF7F6FF0BF042FB2A
:100F700008B1802402E00BF0A9FA04460BF008FD4A
:100F800010B144F0400010BD0BF094FC204310BDA4
:100F90002DE9FC410746002016460D4600900190C1
:100FA000FFF7C0FF922000F0BDF80622694612202C
:100FB00000F09AF8FFF7AEFF9DF801009DF80010D1
:100FC000000200B2084300EE100A464CB8EEC00A18
:100FD000D4ED000A20EE200A85ED000A9DF80300FA
:100FE0009DF80210000200B2084300EE100AD4ED92
:100FF000000AB8EEC00A20EE200A85ED010A9DF82D
:1010000005009DF80410000200B2084300EE100A2B
:10101000B8EEC00A20EE200A85ED020AFFF794FF21
:1010200008226946002000F05FF8FFF785FF9DF871
:1010300000000F2830D19DF803009DF80210000237
:1010400000B2084300EE100AD4ED010AB8EEC00A5F
:1010500020EE200A87ED000A9DF805009DF8041097
:10106000000200B2084300EE100AD4ED010AB8EE07
:10107000C00A20EE200A87ED010A9DF807009DF8BE
:101080000610000200B2084300EE100AB8EEC00AD3
:1010900020EE200A87ED020AFFF744FFA22000F0AD
:1010A00041F802226946222000F01EF8FFF732FFC5
:1010B0009DF800009DF80110C00040EA5110B0F505
:1010C000806F01DBA0F5006000EE100AB4EE001A9C
:1010D000F8EEC00AB3EE070A00EE810A86ED000AB8
:1010E000BDE8FC81F800002070B514460D4640F0C4
:1010F000800000F017F806E0552000F013F8641E99
:1011000005F8010BE4B2002CF6D170BD10B50C4609
:1011100040F0800000F006F8552000F003F8207041
:1011200010BD000001B582B04FF47A700090012329
:1011300001AA02A9024804F0F9FB9DF804000EBDC3
:101140004405002010B50C46FFF7ECFF2046BDE833
:101150001040FFF7E7BF00B58BB0012205910021D9
:10116000CDE90612009101910291039104910E21A3
:10117000CDE90821694602F005FE002801D001F002
:101180007EFF0BB000BD000070B50D460446006840
:101190000E49884201D1002103E00D49884203D164
:1011A0000E212046FFF7D7FF204603F073F908B160
:1011B00001F065FF2946204602F06AFD002803D0B1
:1011C000BDE8704001F05BBF70BD000000640040EE
:1011D000006800402DE9F04115460E46040016D087
:1011E0000020266084F824002562A3624FF48073F7
:1011F00010222946201D0BF06DFC0A4F002500BF70
:1012000057F8250030B16D1CEDB2022DF8D3012046
:10121000BDE8F08103213046FFF7B6FF47F82540CF
:101220000020F5E78000002018B111B18162002094
:101230007047012070472DE9FF471F4605464FF0D4
:10124000010914460026EFF31088009172B64FF0A2
:10125000080A20E0281D0BF051FC18B1002085F889
:1012600024001AE0B81B082802DB8DF804A001E076
:101270008DF804002068CDF805006068CDF80900FD
:101280009DF8040069460444304486B2281D0BF0E2
:101290003BFC4FF00009BE42DCD388F3108895F880
:1012A000240030B9281D0BF023FC10B9284600F0AB
:1012B00019FB04B04846BDE8F08700000648016805
:1012C0000648B1FBF0F2064802704FF47A72B1FBA7
:1012D000F2F14160704700001400002040420F000E
:1012E0008800002070B54FF0E024002265690949AC
:1012F000A36949684843A1699942FCD002D2A3EB93
:10130000010302E0A5EB010633441A440B46824276
:10131000F1D370BD8800002070B54FF0E0240022AA
:1013200065690949A36909784843A1699942FCD0D4
:1013300002D2A3EB010302E0A5EB010633441A44F9
:101340000B468242F1D370BD8800002020B1C0E975
:10135000002301720020704701207047034610B53A
:101360000846C3E9000204211972114604F056FF31
:10137000002010BD8188006889B203F0F3BB05C866
:1013800000682AB1042A05D0082A05D001647047F4
:101390004163704781637047C163704703F0ECBBE2
:1013A00038B5FFF78BFF3E4C4FF4805322460321A4
:1013B0003C48FFF7CBFF3B484FF400532246032144
:1013C0001030FFF7C3FF3748082237492030FFF7B6
:1013D000C5FF3448042234493030FFF7BFFF31489D
:1013E000002231494030FFF7B9FF2E4800222F4933
:1013F0005030FFF7B3FF2B4808222D496030FFF72C
:10140000ADFF284808222B497030FFF7A7FF254879
:101410002949803000F0A4F82415284B2148651094
:101420002A46A3F500718030009400F0D3F81D48DF
:1014300000232A462249803000F0ACF8194821499F
:10144000BC3000F08DF8204B16482A46A3F50071F9
:10145000BC30009400F0BEF8124800232A461B4915
:10146000BC3000F097F80F481949F83000F078F8D0
:101470000C4800231E221749F83000F08BF8154A5B
:1014800000231E3214491548FFF7A4FE01B013488B
:10149000BDE830400023124A12492C30FFF79ABEB3
:1014A0000004024094770020740600200407002006
:1014B0002C060020E4050020DC07002074490020F1
:1014C000744D00204C0700207451002074550020FA
:1014D0009407002074570020A0040020C878002042
:1014E00092670020C8040020F8B50546006801682E
:1014F000C9062DD5C068C0062AD5E86B006801680A
:1015000021F001010160154E002400BF56F82400AF
:101510002A6801680968914210D1EA6BC188126893
:101520005268891AC26889B20AB18068904756F831
:101530002400C2888168284605F09AF9641CE4B248
:10154000032CE3D3E86B0068016841F001010160FE
:101550002868016840680090F8BD000020790020EC
:1015600070B50D4604000CD03C21FFF78BF80848FD
:101570000021256050F821202AB1491CC9B2032955
:10158000F8D3012070BD40F82140002070BD00005C
:101590002079002038B5A0B1012404718160C28097
:1015A000C360016809680A684A680092CA6842F024
:1015B0001002CA60C2888168006805F059F90020ED
:1015C00038BD012038BD18B111B1C160002070478D
:1015D0000120704770B5049C78B101250574416104
:1015E000028343630487002180F83A10224619469B
:1015F0001C300BF004FB002070BD012070BD2DE9F4
:10160000F0410F4606002ED0307C60B396F83A00C9
:1016100030B1348F4FF0000594421AD9144618E0C7
:10162000358B954202D91546002405E0348F2819E0
:10163000904201D9501B84B25DB12A467069FEF711
:1016400080FF012086F83A002A467169306805F06B
:101650001FF95CB17919224606F11C000BF0DAFA89
:10166000C0B2A04202D00120BDE8F0810020FBE71B
:1016700070B5FFF793FE40F6B831884223D3124984
:1016800040F6C4138A68821A9A4203D94A780A70CB
:10169000886017E00A78002A15D0CB684C88C31AF6
:1016A000A34203D296214FF4FA7005E08D882C44B2
:1016B000A34205D200210846BDE8704000F00EB8F4
:1016C000521E0A70C86070BDE800002001494870D1
:1016D00070470000E8000020FEE70000034A12689F
:1016E0001268D0620148FFF74ABE0000F47700207C
:1016F000014802F05FBC0000A004002010B5B0F566
:10170000806F22D00CDC134AA0F50070053813D08E
:1017100001281DD1D2F8E40006F013FA0A2010E0E7
:10172000B0F5A06F11D0B0F5E06F11D10A4892B2B8
:10173000BDE8104000F072BFD2F8A80106F001FA2F
:101740000920BDE8104006F09DBA92B20348EFE7C9
:1017500010BD0000B0930020AC850020048F002055
:10176000B0F5806F02D0B0F5C06F03D192B20248DD
:1017700000F054BF70470000489D002010B5A0F550
:10178000807041380FD0A0F54070BF3814D0B0F54C
:10179000807F11D0B0F5007F11D1094892B2BDE829
:1017A000104000F03BBF0748806D06F062F9BDE8CD
:1017B00010400A2006F066BA92B20348EFE710BD67
:1017C00044B4002048C200209CBD00200B460246C5
:1017D0004FF4E0610148FFF72EBD0000C8780020FB
:1017E000014802F0E7BB0000A00400200B460246BF
:1017F0004FF4C0610148FFF71EBD0000C87800200B
:101800000B4602464FF4A0610148FFF714BD0000EB
:10181000C87800200B4602464FF480610148FFF76C
:101820000ABD0000C8780020014802F0C3BB0000D8
:10183000C804002010B5A0F500700C4601380DD08A
:10184000012812D0022817D107F0CCFF214606F05C
:1018500078F90E20BDE8104006F014BA01F01EFC25
:10186000214606F06EF90C20F4E701F01BFC21463E
:1018700006F067F90D20EDE710BD000010B5A0F2ED
:101880000122134B082A21D2DFE802F004040404E9
:101890000E0E0E0ED4B204EB840003EB00100069B0
:1018A00006F04FF9641D0CE0401FC4B204EB0410B5
:1018B00000EB441003EB8000D0F8500106F041F932
:1018C000641CE0B2BDE8104006F0DCB910BD0000B9
:1018D0004CAB002070470000014802F06BBB0000D9
:1018E000C80400202DE9F0418CB004000CD0EFF3C7
:1018F000108572B6201D0BF0FBF80026D8B184F8D5
:10190000246000BF85F310880CB0BDE8F081694603
:10191000201D0BF0C0F80098069604909DF8040076
:101920000796089084F824800AAB7A1D04A92068E1
:1019300002F0C0F902E06F464FF00108206802F0A3
:1019400023FB0028DED0201D0BF0D2F80028DED0CB
:10195000D8E700000A460146014800F05FBE0000DB
:10196000008400200A4610B50146044800F056FEE7
:10197000BDE81040102006F085B90000A0A60020A8
:101980000A460146014800F049BE000098B2002016
:101990000A4601460148FFF732BE000014780020D5
:1019A0000A4601460148FFF72ABE000014780020CD
:1019B0000A460146014800F031BE000000840020C4
:1019C0007047704730B5DFED1C0A9FED1C1ADFED44
:1019D0001C1A00224FF4805402EB021101EB421159
:1019E00000EB8103D3F85011B3F854510988491B17
:1019F00002D501F5005104E0B1F5005F01DBA1F56E
:101A00000051A14201DDA1F5005100EE101A00EBDA
:101A1000820101F58061B8EEC00A521CD2B2042ADC
:101A200020EE200A80EE012A22EE210A81ED3C0AF6
:101A300083ED820AD0D330BDDB0F493ADB0F49403A
:101A4000000034432DE9F84FDFF854A2954A0446CC
:101A500000210AF1600B9FED941A9FED942ADFEDAF
:101A6000940A0AF1300800BF01EB011000EB4110AD
:101A700004EB80000BEB810790ED820A8848C0EEF2
:101A8000021A203000EB8105103800EB810660302F
:101A900000EB810021EEA00A85ED000AD6ED001AC8
:101AA00031EEC00A87ED000AB0EEC00A80ED000AF0
:101AB0007B4871EE401A103800EB81030AEB81007D
:101AC00083ED000AB0EEC00AF0EEE12AC0ED001A84
:101AD000B4EEE20AF1EE10FA01DDC3ED001A93ED67
:101AE000000A6F48403000EB8109F0EEC01A11EE99
:101AF000900A89ED000A904205DD30EEC00A01200F
:101B000083ED000A00E0002004EB410CACF8C804AF
:101B100096ED000A6248DFF89CC130EE200A503092
:101B200000EB810610EE100A86ED000A604503DD29
:101B300030EE410A86ED000A97ED000AB5EEC00AC4
:101B4000F1EE10FA0FDDF0EEC01A11EE900A90429D
:101B500009DCD5ED001AD3ED002A08EB810071EE07
:101B6000A21AC0ED001AB5EEC00AF1EE10FA0FD8B5
:101B7000F0EEC01A11EE900A904209DCD5ED001A81
:101B8000D3ED002A08EB810071EEE21AC0ED001AD5
:101B9000B5EEC00AF1EE10FA33DDB0EEC00A10EE79
:101BA000100A90422DDDD5ED002A93ED000A08EBD6
:101BB0008100009032EEC00A80ED000AD6ED001AD6
:101BC000B4EE610AF1EE10FA1BD0D9F80000904291
:101BD00017DD009831EEE20ADFF8DCC0C0ED001A34
:101BE00010EE100A604501DD012000E000200AF03F
:101BF0004DFF30B1009890ED000A30EE410A80EDC3
:101C0000000A97ED000AB5EEC00AF1EE10FA2FD8DF
:101C1000B0EEC00A10EE100A904229DDD5ED002A80
:101C200093ED000A08EB810332EE800A83ED000A8F
:101C3000D6ED001AB4EE610AF1EE10FA18D0D9F818
:101C40000000904214DD31EEE20A1B4DC3ED001A94
:101C500010EE100AA84201DD012000E000200AF089
:101C600015FF28B193ED000A30EE010A83ED000A5A
:101C700008EB8100491C90ED000AC9B2042920EE4E
:101C8000020AC0EE201AC0ED001AFFF4EDAE044ABD
:101C900004F59C6430320FCA84E80F00BDE8F88F69
:101CA0006CB00020DB0FC93FDB0FC940000034439C
:101CB000DB0F4940DB0F4940E4CB964007490868F9
:101CC000807948B1012807D0032805D0022803D025
:101CD000042801D0052800D1087370474CAB0020C0
:101CE000024900EBC00001EB80007047847B0020BC
:101CF00000B587B01C2206496846FEF767FC002144
:101D000068460BF029F90349486007B000BD0000A0
:101D1000D00001080C0200202DE9F0412DED0C8BC4
:101D200082B000F0D7FE894C206005F005F96060B4
:101D30008748A0600020207341F64750A4F8540162
:101D400041F69920A4F8180240F69A20A4F8DC0283
:101D500041F2BB20A4F8A00300269FED7E9ADFEDA0
:101D60007E9A9FED7EAA9FED7E8ADFED7E8ADFED73
:101D70007EAA9FED7EBADFED7EBA9FED7ECADFEDD3
:101D80007ECA9FED7EDADFED7EDA04F274483046DB
:101D9000FFF7A6FF06EB860104EB0117386130461A
:101DA00000F022FC06EB061101EB461104EB810565
:101DB00005F5F872C5F8500107F11400B7EE002AD6
:101DC000F0EE481AB2EE001AF0EE680AB0EE6A0AB7
:101DD000032182EC039A0BF0A5F905F5AC70B1EE86
:101DE000002AF0EE481AB3EE091AF0EE480AB0EEF7
:101DF0004B0A03210BF096F905F5CE70B0EE482A98
:101E0000F0EE6B1AB0EE4C1AF0EE680AB0EE6C0A07
:101E100003210BF087F9B7EE002AF0EE481AB1EE75
:101E2000001AF0EE4D0AB0EE6D0A032140460BF0A9
:101E300079F9761CF6B2042EA9D30123642200217D
:101E4000052005F011FF022364220021062005F081
:101E50000BFF032364220021072005F005FF042364
:101E600064220021082005F0FFFE012364220021E6
:101E7000184605F0F9FE022364220021184605F0F9
:101E8000F3FE032364220021184605F0EDFE04232F
:101E900064220021184605F0E7FE0123642219465A
:101EA000122005F0E1FE022364220021132005F038
:101EB000DBFE032364220021152005F0D5FE01235B
:101EC00064220021162005F0CFFE2F494FF48064D4
:101ED0002C4B2246A1F1AC0000F084FC2B482C4A8C
:101EE00000902346AA21A2F1AC0000F0C1FB2A49D0
:101EF000284B2246A1F1AC0000F074FC2748284A88
:101F000000902346A521A2F1AC0000F0B1FB052210
:101F10000021244806F0E8FD23492448FFF753FB3D
:101F200023492448FFF74FFB23492448FFF74BFB85
:101F300023492448FFF778F902B023490448BDEC4F
:101F40000C8BBDE8F041FFF76FB900004CAB0020EF
:101F5000F47800200000343D00003443000034C316
:101F60000000000000803B4500007A460000FA4374
:101F7000CDCCCC3D000018420060EA46000048424B
:101F8000000096430118000848990020519C000861
:101F9000F49D0020CD170008A0A200207D84000839
:101FA0004CA700208D9700080D2B00088C7800208E
:101FB0006519000814780020C11900085078002025
:101FC00061170008C87800207D18000810B50A4A7B
:101FD0000446111F00F096F904F5806090ED1A1A7E
:101FE00005481838D0ED060A90ED050A2046BDE8F0
:101FF000104006F0DBBD00002C02002070B5044646
:102000002DED028B9FEDB48A06F02EFAB34D06003B
:1020100003D0102000F0F0FA10B19FEDB10A28E0D3
:10202000022E1DD0662E1BD006F0AEFA4068686006
:1020300006F0AAFA0089AB4900EE100AB8EE400A91
:1020400010EE100A85ED020A88427DDA10EE100AC1
:10205000A549884207DD9FEDA51AC0EE010A04E0FC
:102060009FEDA30A05E0DFEDA30A9FEDA30A20EE92
:10207000800A002185ED000A01EB810004EB0010CD
:10208000B0F95C000AF002FD00EE100A491CC9B26A
:10209000B8EEC00A042930EE088AEDD3D5ED000A67
:1020A000B4EEE08AF1EE10FA39DD80EE880AB4F978
:1020B0005C0000EE900AF8EEE00A60EE800AFDEEA9
:1020C000E00A10EE900AA4F85C00B4F9AC0000EE4F
:1020D000900AF8EEE00A60EE800AFDEEE00A10EEEB
:1020E000900AA4F8AC00B4F9FC0000EE900AF8EEF7
:1020F000E00A60EE800AFDEEE00A10EE900AA4F815
:10210000FC00B4F94C0100EE900AF8EEE00A20EE73
:10211000800ABDEEC00A10EE100AA4F84C01206936
:10212000B0F90600C11700EB5170C0100AF0AEFC08
:102130000146206EB0F90600C21700EB5270C010C5
:102140000AF0A4FC014400E0C2E0D4F8B000B0F909
:102150000600C21700EB5270C0100AF097FC014451
:10216000D4F80001B0F90600C21700EB5270C0109D
:102170000AF08CFC0144D4F85001B0F90600C217F3
:1021800000EB5270C0100AF081FC0144D4F8140234
:10219000B0F90600C21700EB5270C0100AF076FCCE
:1021A0000144D4F8D802B0F90600C21700EB52700F
:1021B000C0100AF06BFC0144D4F89C03B0F906008F
:1021C000C21700EB5270C0100AF060FC084400EE29
:1021D000100A4A49B8EEC00A10EE100A85ED010A4D
:1021E000884272DD34F95C0F00EE100AF8EEC00A86
:1021F000B4EE000A60EE800AFDEEE00A10EE900AEE
:102200002080B4F9500000EE900AF8EEE00A60EE8B
:10221000800AFDEEE00A10EE900AA4F85000B4F92E
:10222000A00000EE900AF8EEE00A60EE800AFDEEF3
:10223000E00A10EE900AA4F8A000B4F9F00000EE55
:10224000900AF8EEE00A20EE800ABDEEC00A10EE19
:10225000100AA4F8F000B4F9A80100EE100AF8EE94
:10226000C00AB6EE000A60EE800AFDEEE00A10EE4B
:10227000900AA4F8A801B4F96C0200EE900AF8EEF6
:10228000E00A60EE800AFDEEE00A10EE900AA4F883
:102290006C02B4F9300300EE900AF8EEE00A60EE4A
:1022A000800AFDEEE00A10EE900AA4F83003B4F9BB
:1022B000F40300EE900AF8EEE00A20EE800ABDEE8C
:1022C000C00A10EE100AA4F8F403BDEC028B70BD36
:1022D0009FED0B0ACDE60000000000001402002074
:1022E0000000FA45000070420000A040000070426B
:1022F00000007A47ABAAAA3D00007A46000040459C
:1023000000A00C472DE9F04106462DED028B9046CA
:10231000007B9FED2F8A2F4D0F4606F58064042821
:1023200015D194ED1B0ADFED2C8A70EE280A80EEA1
:10233000880AFEF755F885ED030A94ED1B0A70EE46
:10234000280A80EE880AFEF70FF885ED040A307B34
:1023500005282BD0D4ED1B0A80EE880AFEF740F842
:1023600085ED030AD4ED1B0A80EE880AFDF7FCFF19
:1023700085ED040A94ED180AD5ED040AD4ED191A76
:1023800020EE201A95ED030A00EE211A87ED001ABF
:1023900094ED191A61EE200A94ED181A40EE410AE4
:1023A000C8ED000ABDEC028BBDE8F08194ED1B0A7C
:1023B000F2EE0A8A70EE280A80EE880AFEF710F81C
:1023C00085ED030A94ED1B0A70EE280ACCE70000A5
:1023D00033336542140200200000204210B5044649
:1023E00090ED301AD0ED2E0A90ED2C0A083000F056
:1023F0008FFCBDEEC00A10EE100AA4F8B40010BDA8
:102400002DED028B82B09FED728A724D05F58064CE
:1024100005F0E0FD90ED010A84ED1B0A01F0AEF835
:1024200090ED010A84ED1C0AFFF748FC287B022886
:1024300006D0032815D004281FD0052830D175E018
:102440002868F0EE480A90ED030A84ED180A90ED32
:10245000040A614884ED190A94ED1B0A0AF0A6FDEE
:102460001CE0286890ED030A84ED180A90ED040A38
:1024700084ED190A84ED1A8A12E02868B0EE000A89
:10248000D0ED030A60EE800AC4ED180AD0ED040A0C
:1024900020EE800A84ED190A9FED500A84ED1A0A95
:1024A0004C48FFF793FD002605EB860000F5806899
:1024B00006EB8600D8ED2E0A05EB0017C7ED160ACD
:1024C0003869B0F9040000EE100A07F11400B8EE04
:1024D000C00A0AF06BFDBDEEC00A10EE100AA7F8A4
:1024E0005C0006EB061000EB461098ED380A05EB91
:1024F000800080ED800AD0F85011B1F9041001EB92
:102500004101490000EE101AB8EEC00A80ED840ABD
:1025100000F5A870FFF762FF761CF6B2042EC3D355
:102520002C48FFF76BFD287BD8B12FE005F082FB2C
:102530002B49D0ED000A098800EE101AB8EE400AC7
:1025400020EE800A84ED180A00EE101AD0ED010A80
:10255000B8EE400A20EEC00A84ED190A9FED210A68
:102560009CE700204FEA000100EB800205EB02121D
:10257000A2F85C1000EB001202EB401205EB8202A5
:10258000401CC0B2A2F804120428EDD3B5F94C11D6
:10259000B5F95C20B5F9AC30B5F9FC00CDE9000126
:1025A0004FF40071A86805F025FBB5F95014B5F992
:1025B0000422B5F9C832B5F98C03CDE9000140F227
:1025C000FF11A86805F016FB05200AF0A6FC1FE71E
:1025D000000000004CAB0020C0AF00200000C8434A
:1025E0000C02002000004843024900EBC00001EB50
:1025F00080007047147C0020034901EB0010C07874
:10260000012800D000207047D4800020024901EB4F
:102610000010406870470000D480002070B5144658
:102620000D46002814D0083006460AF095FA6428B2
:1026300002DA30460AF084FA30460AF08DFAA042F7
:1026400006DD224629463046BDE870400AF0E2BA6F
:1026500070BD000070B5054D6C6803E0204600F0C9
:10266000DDF86468AC42F9D170BD00009000002034
:1026700070B51646049D040017D00C4A506802E05D
:10268000A04212D040689042FAD1084802685460D3
:10269000C4E90020046084F820101A46314604F191
:1026A00008000AF0ACFAC4F8A85070BD90000020F1
:1026B000FFF7D0FF00F050F801200AF02EFCF7E7FA
:1026C00000B587B01C2206496846FDF77FFF002150
:1026D00068460AF041FC0349086007B000BD0000ED
:1026E00060000108BC0100202DE9F84F99460A9EC0
:1026F0001746884604002DD004F1080082460AF0EF
:102700002BFAB04226DD2546ADF8007006F109002F
:1027100087B22134802F01D9002714E084F800808B
:10272000A4F80160BDF80000E8840521204609F006
:10273000B4FE3246494605F12800FDF702FF39464E
:10274000204609F099FE3A4621465046BDE8F84F2A
:102750000AF060BABDE8F88FF0B5A1B080216846F4
:10276000FDF790FF124E74681EE000BF04F10800F0
:1027700007460AF089FA05042D0C14D0D4F8A800F5
:1027800018B18047A84200D20546802D00D9802587
:102790002A46694638460AF0F7F9D4F8A42012B15F
:1027A0002946684690476468B442DFD121B0F0BD45
:1027B0009800002070B514460D46002810D008304F
:1027C00006460AF0C9F9A11C884209DD284609F02D
:1027D00053FEA21C29463046BDE870400AF01ABAE2
:1027E00070BD000070B51D46040013D00A4B586838
:1027F00002E0A0420ED040689842FAD10648036831
:102800005C60C4E90030046004F108000AF0F7F9E4
:10281000C4F8A45070BD0000980000202DE9F041DC
:10282000044600F12605002600F1080763E038465B
:102830000AF094F994F8211006293CD2DFE801F05F
:10284000031118252D3E94F82010814207D1012153
:1028500084F82110618C4A1C628448554BE06684E0
:1028600049E0A084628C511C61845055022011E023
:10287000A18C41EA0021A184628C511C61845055D5
:10288000A08C772817D2032004E0618C4A1C628454
:102890004855042084F821002DE0618C4A1C628494
:1028A0004855608C052826D1052128460BF044FAAE
:1028B00008B10520EEE784F82160D0E7A18C628C96
:1028C00009318A4202D2511C61845055A18C608C1E
:1028D000093188420FD384F82160668428460BF0C2
:1028E00011FA40B12946D4F8A83031F8012F888870
:1028F000E91D03B1984738460AF0C6F9002896D179
:10290000BDE8F0810B484FF005010B4A0078030940
:102910000A484FF00303417181714FF00101C17109
:102920000372126A1AB100BF80F8201070470021AC
:10293000FAE70000A1000020DC960020AC80002017
:1029400070B50D46012807D002281FD10E2210486D
:10295000FDF7F7FD152015E0FEF720FD0D4CA060FA
:102960001420FFF753FEE060A168081A6060216838
:10297000884200D920600648142229461438FDF701
:10298000E0FD1420BDE8704005F07CB970BD00008A
:10299000597A0020CC0000203A4F3B4E3B4C4FF080
:1029A000030A01254FF0040B4FF000094FF0020815
:1029B0002068B0F91400B84201DA35700CE000F17B
:1029C000DB01B1F5DB7F02D886F800A004E0B0F5AA
:1029D000DC7F01DD86F800802B483178401C05F053
:1029E0003BFD207920B1012820D002283CD12FE0E6
:1029F00000F0C4FD007898B100F0C0FD0078012817
:102A00000ED005F0E7FA0078012809D0257184F886
:102A100005A084F806A084F8078084F808B023E0B5
:102A200084F804906571A57125721DE02068007A14
:102A3000032804D0012805D0022806D014E005F0B0
:102A400001FC11E0FFF75EFF0EE001F065F80BE01E
:102A50001620FFF7D1FD88B184F8059084F8069020
:102A600084F8089084F807901620FFF7C5FD08B198
:102A700084F8048005200AF050FA99E784F804905D
:102A8000F2E7000048FEFFFFAC010020AC80002010
:102A900000B587B005F0DCFC0B490122086000207E
:102AA00008714A718A710222CA7181F820001C22C1
:102AB00006496846FDF78AFD002168460AF04CFA8F
:102AC0000349886007B000BDAC80002044000108C5
:102AD000AC01002000487047AC80002038B50C469F
:102AE000054605F0B5FC2246294605F03FFC2B467D
:102AF0000122AA2104480094FFF7F6FDBDE8384002
:102B0000162005F0BFB80000588A002038B50C46E2
:102B1000054605F09DFC2246294605F027FC2B467C
:102B20000122AA2104480094FFF7DEFDBDE83840E9
:102B3000162005F0A7B800009C98002038B50C4678
:102B4000054605F085FC2246294605F00FFC2B467C
:102B50000122AA2104480094FFF7C6FDBDE83840D1
:102B6000162005F08FB80000F0B80020014801F0F1
:102B70005BBD0000E4080020014801F055BD0000E5
:102B800044090020014801F04FBD00002408002046
:102B9000014801F049BD0000A4090020014801F0EE
:102BA00043BD00008408002001681823CAB2103A0F
:102BB000B2FBF3F2054B6FF30901032A9B5CC3657B
:102BC00000D9091D8165084670470000CCFC00084B
:102BD00010B5014600208B698A6A4FF0C07453B16A
:102BE000B3F5005F15D072B1012A0CD0022A0AD0C9
:102BF000032A09D104E01AB1012A06D0022A03D11E
:102C0000C96AC90100D5012010BDC96AA142FAD024
:102C100010BD002AF7D0012AF2D0022AF3D0032AED
:102C2000F3D010BD30B50468256825F480252560F3
:102C3000046863608368402B036803D09960006870
:102C4000C26030BD9A600068C16030BD704700004E
:102C500000487047787A0020214C00BFFEF79EFBA9
:102C60000025FF23012217464FEA050604EB021157
:102C7000D1F804C0D1F808E0A0EB0C0CF4450BD956
:102C800091F800C0BCF1000F06D0CF70897899424E
:102C900003D20B46D5B200E0CE70521C182AE5DBF9
:102CA00085B104EB0515287BFEF710FDA87810B15F
:102CB000012802D00DE00B4801E06FF0FF0009F0A1
:102CC00039F906E04FF0FF2009F034F90020FEF753
:102CD000FDFCFEF7CDFC14200AF01FF9BEE7000052
:102CE000D48000200000FFFF00B587B01C220649F9
:102CF0006846FDF76BFC002168460AF02DF9034990
:102D0000086007B000BD00007C000108C001002081
:102D100010B504462DED028BB0EE418AB0EE601A7C
:102D2000F0EE400AC0ED220AB0EE410A80ED230A1F
:102D30000AF03CF9D4ED0B0AB0EE480AC4ED240ABF
:102D400084ED258A04F144000AF030F994ED1C0A60
:102D5000BDEC028B10BD000010B5334C9FED310A65
:102D60009FED3A1B2DED028B84ED0B0A84ED0C0ACE
:102D700084ED0D0A84ED0E0A84ED0F0A84ED100A2D
:102D800084ED110A84ED120A84ED080A84ED090A23
:102D90009FED260A84ED000AB1EE040A84ED070ACD
:102DA0009FED230A84ED010A9FED220A84ED020AB9
:102DB0009FED210A84ED030A9FED200A84ED040AA9
:102DC0009FED1F0A84ED050AB0EE000A84ED060AA5
:102DD000B2EE0E0A84ED130A9FED1A0B07F068FDA0
:102DE0009FED1C8B51EC100B53EC182B0BF0E0FEFD
:102DF0000BF06CF92065E0690CF0D8FC41EC100B8D
:102E0000B0EE481AF0EE681A07F052FD53EC182B9A
:102E100051EC100B0BF0CCFE0BF058F96065BDECDB
:102E2000028B10BD000000002C7900206F12033BC4
:102E30006F12833A2DB23D3FA97F633ECDCCCC3D8E
:102E40006666E63F0000000000001440000000003D
:102E500000000040000000000000084010B5334CA6
:102E60009FED310A9FED391B2DED028B84ED0B0A8E
:102E700084ED0C0A84ED0D0A84ED0E0A84ED0F0A30
:102E800084ED100A84ED110A84ED120A84ED080A1B
:102E900084ED090A9FED260A84ED000AB1EE040ACA
:102EA00084ED070A9FED230A84ED010A9FED220AB3
:102EB00084ED020A9FED210A84ED030A9FED200AAA
:102EC00084ED040AB2EE020A84ED050AB0EE000AAF
:102ED00084ED060AB2EE0E0A84ED130A9FED190B7B
:102EE00007F0E6FC9FED1B8B51EC100B53EC182BFD
:102EF0000BF05EFE0BF0EAF82065E0690CF056FC82
:102F000041EC100BB0EE481AF0EE681A07F0D0FC56
:102F100053EC182B51EC100B0BF04AFE0BF0D6F8CB
:102F20006065BDEC028B10BD0000000084790020BC
:102F30006F12033B6F12833A3333B33FCDCC4C3F18
:102F40009A99993E00000000000014400000000023
:102F500000000040000000000000084070B50D4671
:102F60002DED028BB0EE418AB0EE401AB0EE600A51
:102F700080ED221A044680ED230AF0EE410A0AF0A1
:102F800015F8B0EE480A84ED250AD4ED0B0A95ED4C
:102F90000D1A04F1440070EEC10AC4ED240A0AF0CF
:102FA00005F894ED1C0AD5ED0E0A30EE600A84EDAA
:102FB0001C0ABDEC028B70BD90ED0F1A90ED080A53
:102FC00071EE401AC0ED0B1AD0ED100A90ED132AE5
:102FD000B0EE600A02EE610A90ED002A02EE001ADD
:102FE00080ED0C1A90ED010A90ED023AD0ED042A22
:102FF000D0ED053A20EE030AD0ED144A62EEA33A72
:1030000080EE234A90ED110AF0EE402A44EEE12AC8
:10301000D0ED124A44EE242A90ED034A23EE044AEE
:1030200084EE233A43EE602A42EE220AC0ED0D0AF6
:10303000D0ED152A62EE222AB0EE402A02EEE12AF5
:1030400001EE901AF8EEE11A80ED0E2A31EEC00A78
:10305000D0ED061AC0EE212AC0ED122A80ED0F1A1B
:10306000C0ED100A80ED112A00207047082001F001
:1030700075BC102001F072BC202001F06FBC72B64C
:10308000FEE70178C27841EA026182784078120452
:1030900042EA0020014300EE101A704700487047D2
:1030A000EC7C002000487047107D002010B52DED0D
:1030B000048B82B000F008FBA24CC4F8E40000F0DE
:1030C000FFFAC4F8A801FFF705FD206003F034FF04
:1030D0009D490122C4E90101227341F20C21A4F8A7
:1030E000E81041F23651A4F8AC119FED980A84ED36
:1030F000610A84ED920A9FED960A84ED620A9FEDC3
:10310000950A002184ED630AB3EE0E0A84ED930A5A
:10311000BBEE040A84ED940A90ED140A8E484FF435
:103120002F7380ED000A04F53D70B0EE000A0170C7
:1031300041608160C160016180ED050A0162C0E902
:10314000063141629FED850A816280ED0B0A9FED99
:10315000840AB0EE082A80ED0C0ADFED828AB2EE16
:103160000C1AF0EE681AF0EE680A9FED7F9A42633F
:103170000321B0EE490AA0F5027009F0D3FFB3EEC7
:103180000E2AF3EE041A9FED798AB0EE481ADFEDAD
:10319000780ADFED789A032104F59870B0EE690A99
:1031A00009F0C0FFB2EE042AF0EE681A9FED721A21
:1031B000F0EE680AB0EE490A032104F5D87009F070
:1031C000B1FFB2EE042ADFED6D1AB3EE091ADFED9E
:1031D0006C0AB0EE690A032104F5FA7009F0A2FF47
:1031E000B7EE002AF0EE681AB6EE001ADFED650AB7
:1031F0009FED650A032104F1180009F093FF9FED8C
:10320000632AF0EE681A9FED621AF0EE480AB0EEFB
:10321000480A032104F51B7009F084FF9FED5D2A25
:10322000F0EE681A9FED5C1AF0EE480AB0EE480A1C
:10323000032104F52C7009F075FF0023C822012139
:10324000142004F011FD002364221946092004F023
:103250000BFD0023642219460A2004F005FD00231B
:10326000642219460C2004F0FFFC00236422194656
:103270000D2004F0F9FC0023642219460E2004F00E
:10328000F3FC002364220121102004F0EDFC022352
:1032900064220021132004F0E7FC012364220021B2
:1032A000162004F0E1FC3E494FF480743B4B22466B
:1032B000A1F1AC00FFF796FA05220021394805F08C
:1032C00013FC3948394A009023465521A2F1AC003D
:1032D000FFF7CEF93648374AA40000902346A521CF
:1032E000A2F1AC00FFF7C4F93449334B2246A1F1F7
:1032F000AC00FFF777FA0A220021314805F0F4FB11
:103300003048314A00902346AA21A2F1AC00FFF7D1
:10331000AFF92E492E48FEF756F92E492E48FEF7F2
:1033200052F92E492E48FEF74EF92E490648FDF770
:103330007BFF02B02C492D48BDEC048BBDE810404A
:10334000FDF772BFB0930020C87800200000343D24
:1033500000008C4200008CC2C401002000C05A450D
:1033600096430B3C000000000000FA440000484374
:1033700000803B450060EA46000070420AD7233CCB
:103380000080BB450000484200009643CDCCCC3DB8
:10339000E3A59B3CAE47E13D5839343C9119000808
:1033A000008300202D9E000841290008AC840020E5
:1033B0007D84000858860020ED170008048B00204B
:1033C0004D350008519C0008B08F0020DD2A000810
:1033D0008C7800205519000814780020B1190008D5
:1033E00050780020FD16000835180008F4780020F9
:1033F0000949087B48730868407958B1012809D009
:10340000022807D0032805D0042803D0052801D0BE
:10341000062800D108737047B093002010B51E4CE9
:103420000220DFED1E0A84F8900184F8540294ED26
:10343000670A04F11800B1EE400A09F0B7FD84ED07
:10344000650A2068D4ED960A90ED061A70EE810A9E
:10345000C4ED960A94ED631AB4EEC10AF1EE10FAC7
:1034600006D994ED621AB4EEC10AF1EE10FA01DB4E
:1034700084ED651A94ED940AF4EEC00AF1EE10FAA8
:1034800006D994ED930AF4EEC00AF1EE10FA01DBCE
:1034900084ED960A10BD0000B093002000000000EB
:1034A00070B52DED028B9FED278A04F0E3FF0078C5
:1034B000254C00F00F05012084F8900184F8540297
:1034C00000F05CF8D4ED680A90ED010A5A2030EE65
:1034D000C01A15FB00F000EE100AB8EE400A31EEFB
:1034E000000AFDF789FC84ED650AD4ED990AB0EE77
:1034F000480AFDF781FC84ED960AD4ED650A94ED47
:10350000631AF4EEC10AF1EE10FA06D994ED621ACC
:10351000F4EEC10AF1EE10FA01DB84ED651AD4ED88
:10352000940AB4EEE00AF1EE10FA06D9D4ED930A4B
:10353000B4EEE00AF1EE10FA01DBC4ED960ABDEC40
:10354000028B70BD00000000B093002008B500F0B1
:1035500015F8084903460322087B187091ED670AA5
:10356000082083ED010A0090AA210348FFF7BCF868
:10357000002008BDB0930020588A00200048704702
:10358000E000002070B5174C607B01280AD040F2A3
:10359000E245294614480AF0F7F813482946143042
:1035A0000AF0F2F8022084F890019FED100A84F8E6
:1035B000540284ED650A84ED960A94ED980AB0EE03
:1035C000C00A10EE100AB0F1804F0ADC94ED670AD1
:1035D0000749B0EEC00A10EE100A884201DC032051
:1035E000207370BDB0930020D401002000000000C3
:1035F0000000404090F8AD2090F8AC108A4213D003
:1036000021B1012909D002290AD00DE0B0F9B42076
:1036100000EE102AB8EEC00A04E090ED2F0A01E097
:1036200090ED2E0A80ED2C0A80F8AD107047000056
:1036300010B50446FFF7DEFF94F8AC1004F1080063
:10364000024661B1012917D0022933D194ED301A15
:10365000D4ED2E0A94ED2C0AFFF75AFB24E094EDEA
:103660002C0ABDEEC00A10EE100AA4F8B400BDE8A2
:103670001040104609F0F1B90F484079042809D0EC
:10368000052807D094ED301AD4ED2F0A94ED2C0ABA
:103690001046E1E794ED301AD4ED2F0A94ED2C0A90
:1036A0000649104606F080FBBDEEC00A10EE100A77
:1036B000A4F8B40010BD0000AC8000202C790020DC
:1036C00000487047C87C002000487047A47C002058
:1036D00010B5174C022084F89001012084F85402A0
:1036E000206894ED650AD0ED070A30EE200AD4ED8B
:1036F000670AFDF781FB84ED650A206894ED960A60
:10370000D0ED060A30EE200A84ED960AD4ED940A34
:10371000B4EEE00AF1EE10FA06D9D4ED930AB4EE55
:10372000E00AF1EE10FA01DBC4ED960A10BD0000CC
:10373000B093002010B5244CD4F8E400B4F9E8109C
:10374000B0F9000004F040FA00EE100AD4ED610A6E
:10375000B8EEC00A20EE200A84ED670AD4F8A8016A
:10376000B4F9AC11B0F9000004F02EFA00EE100A22
:10377000D4ED920AB8EEC00A20EE200A84ED980A31
:10378000606890ED140A84ED680A90ED120A84EDE9
:10379000990AD0ED020A9FED0D0A60EE800AC4ED91
:1037A000690AD0ED010A20EE800A84ED9A0A04F03D
:1037B00011FC90ED010A84ED040A04F00BFC90ED7D
:1037C000020A84ED050A10BDB0930020E12E654287
:1037D00070B5534D534C02202DED028BE96AE1B3D5
:1037E000012184F8901184F8540206F067FA4E48DB
:1037F000FDF796FA4C4809F0A9FC4C4895ED010AF2
:10380000D0ED0C0A4A4830EE600A85ED010A94EDCD
:10381000960AD5ED000A70EE200A09F0C7FB206871
:10382000D0ED060A434830EE200AD4ED960A30EE79
:10383000200A84ED960A94ED650AD5ED010A70EE32
:10384000200A09F0B3FB2068D0ED070A30EE200A09
:10385000D4ED650A30EE200A00E01CE084ED650A34
:10386000D4ED960A94ED941AF4EEC10AF1EE10FA32
:1038700006D994ED931AF4EEC10AF1EE10FA01DBC9
:1038800084ED961AD4ED680AFDF7B6FA84ED650A60
:10389000BDEC028B70BD84F89001274D84F8540272
:1038A00094ED650AD5ED010A30EE208AD4ED670A61
:1038B000B0EE480AFDF7A0FA84ED650A94ED960A89
:1038C000D5ED000A18EE100A1C4930EE200A884295
:1038D00084ED960A06D395ED011ADFED191A31EE43
:1038E000211A06E018EE100A1649884203DB9FED04
:1038F000161A85ED011A10EE100A1449884204DCEC
:103900009FED130A30EE800A06E010EE100A11490E
:103910008842BDDB9FED100A85ED000AB8E7000084
:10392000DC960020B0930020A49600202C79002083
:10393000609600201C960020C8010020000070C284
:10394000CDCC4C3E00007042CDCC4CBE000020419E
:103950009A99993E0000E8419A9999BE1CB5274C66
:10396000002704F1E40604F5D47540F2FF1800BF07
:10397000FFF7E0FE06F0A2F9FFF73AFD207B0728EB
:1039800016D2DFE800F01504070A0D101300FFF748
:10399000F9FD0DE0FFF742FD0AE0FFF799FE07E0B1
:1039A00000F054F804E0FFF713FF01E0FFF778FDA3
:1039B0003046FFF73DFE2846FFF73AFE207B50B920
:1039C0000E48EC3009F049F80D4809F046F8A4F823
:1039D0009871A4F85C72022200210A4805F084F86C
:1039E000B4F99831B4F95C22009701974146A06878
:1039F00004F000F9022009F090FAB9E7B093002032
:103A000060950020B92F000810B540F2E24488B05C
:103A100021460C4809F0B8FE0A482146143009F046
:103A2000B3FEFFF799F91C2207496846FCF7CEFD63
:103A30000021684609F090FA02490C39886008B004
:103A400010BD0000D40100209800010870B52C4C76
:103A5000012084F89001022084F854022948FDF7DF
:103A60005FF9284809F072FB274D284895ED010AB7
:103A7000D0ED0C0A264830EE600A85ED010A94ED7F
:103A8000960AD5ED000A70EE200A09F08FFA206838
:103A9000D0ED060A1F4830EE200AD4ED960A30EE2B
:103AA000200A84ED960A94ED650AD5ED010A70EEC0
:103AB000200A09F07BFA2068D0ED070A30EE200AD0
:103AC000D4ED650A30EE200A84ED650A94ED961A6D
:103AD000D4ED940AB4EEE01AF1EE10FA06D9D4ED62
:103AE000930AB4EEE01AF1EE10FA01DBC4ED960A87
:103AF000D4ED680AFDF780F984ED650A70BD000019
:103B0000B0930020A4960020DC9600202C790020A1
:103B1000609600201C96002070B554490423086864
:103B2000457A9FED530ADFED530A9FED531ADFEDFF
:103B3000531A03240222032D04D0022D0ED0012D8E
:103B40003FD070E04B718C710B72B0F9063002EE11
:103B5000103AF8EEC22A82EE802A0CE04C718B718A
:103B60000A72B0F9063000EE903AF8EEE00A80EE04
:103B7000802ADFED430A22EE202A81ED032AB0F9E4
:103B8000043002EE103AB8EEC22AC2EE002A22EE4B
:103B9000A00A81ED040AB0F9023000EE103AB8EE46
:103BA000C00A20EE010A81ED060AB0F90000404289
:103BB00000EE100AB8EEC00A20EE210A81ED070AD5
:103BC00031E04A718A710B72B0F9063001EE903A19
:103BD000B8EEE12AC2EE001A61EEA01AC1ED031A96
:103BE000B0F9043001EE903AF8EEE11A81EE802A45
:103BF00022EE200ADFED230A81ED040AB0F902303B
:103C000000EE103AB8EEC00A20EE010A81ED060A75
:103C1000B0F90000404200EE100AB8EEC00A20EEF3
:103C2000200A81ED090A1848CE7901258378022EF1
:103C300004D0012E05D10D2B04D004E00D2B00D1B2
:103C4000CD7170BDCA710078022809D00F48006A92
:103C500010B14879042806D0002081F8200070BDFA
:103C600081F8204070BD81F8205070BDAC800020EC
:103C700000002544002099456F1283B96F128339E3
:103C800000009643A69B443AAD010020DC9600203C
:103C900090F82020012A07D0022A05D0416A41F479
:103CA0008021416201207047006842690A434261F5
:103CB00000207047F0B590F820500468A468012DEA
:103CC00005D0022D03D0416A41F4802157E014F061
:103CD000406F01D1E5004FD5C4F301640125A54033
:103CE0001D608D684FF4C0739DB1CE6835434E683A
:103CF00045EAC605066803EB0417F5514FF4C27593
:103D0000076805EB04150E697E51097D012905D070
:103D100009E00E88CD6845EA4655EBE701684E5943
:103D200046F480764E511179D579567941EA05618C
:103D300095792D0445EA062529434FF4C676056892
:103D400006EB0416A9511178D57841EA05619578FA
:103D500052782D0445EA022211434FF4C4750268DB
:103D600005EB04155151006803EB0411425842F071
:103D7000010242500020F0BD416A41F4001141624D
:103D80000120F0BD10B590F82020012A07D0022AAA
:103D900005D0416A41F480214162012010BD3B48B9
:103DA000D0F8002242F00102C0F80022D0F8002230
:103DB00022F47C52C0F80022D0F800224B6A42EA7A
:103DC0000322C0F800220A7D02F01F0301229A405C
:103DD000D0F81C329343C0F81C32CB69B3B9D0F889
:103DE0000C329343C0F80C328C894B6864F31F4348
:103DF0004C6900EBC404C4F840320C890B6864F3CE
:103E00001F434C6900EBC404C4F84432CB69012B56
:103E100016D1D0F80C321343C0F80C320C884B6822
:103E200064F31F434C6900EBC404C4F840320C89AE
:103E3000CB6864F31F434C6900EBC404C4F84432FC
:103E40008B69002BD0F804320ED01343C0F8043233
:103E50000B69002BD0F8143208D01343C0F8143289
:103E6000096A012904D008E09343EFE79343F5E79B
:103E7000D0F81C121143C0F81C12D0F8001221F027
:103E80000101C0F80012002010BD000000640040D5
:103E900000F0AABA70B590F82040012C05D0022C91
:103EA00003D0416A41F4802128E0046809B3246901
:103EB000A40720D04FF4D874056804EB01142D59E1
:103EC00015F00405956005682D591AD0ED08556068
:103ED00005682C5904F00204D4604FF4DA740568C4
:103EE00004EB01142E5906F00F06082E0CD30825FA
:103EF0000DE0E468DCE7416A41F400114162012011
:103F000070BD6D0D1560E3E72D5905F00F051561C6
:103F100005682D59C5F30725956105682C59240CB2
:103F200054614FF4DC72046802EB0112A4581C7057
:103F30000468A458240A5C700468A458240C9C707B
:103F40000468A258120EDA704FF4DE72046802EBB5
:103F50000112A4581C710468A458240A5C710468F6
:103F6000A458240C9C710468A258120EDA710068DF
:103F700029B1016941F020010161002070BDC168D3
:103F800041F02001C160F8E70246002092F82010BD
:103F9000012901D002290CD111688A68520100D58B
:103FA00001208A68120100D5401C8968C90000D52B
:103FB000401C70472DE9F05F054600680024466903
:103FC000D0F804908768D0F80CB0D0F810A0D0F8E2
:103FD0001880F10748D0F90714D001218160B80793
:103FE00003D5284600F084FA0CE0780702D54FF498
:103FF000006407E0380702D54FF4805402E02846F9
:1040000000F074FAF80516D529684FF480708860BE
:10401000B80503D5284600F081FA0CE0780502D5F2
:1040200044F4005407E0380502D544F4804402E02B
:10403000284600F071FAF80316D529684FF480304D
:104040008860B80303D5284600F07EFA0CE07803B8
:1040500002D544F4004407E0380302D544F4803428
:1040600002E0284600F06EFA300707D55FEACB6021
:1040700004D52968102044F40074C86070074FF01C
:10408000080707D55FEA0B7004D52868C760284683
:1040900000F0BBF9B00706D52868C068800702D0D9
:1040A000284600F0B3F9700607D55FEACA6004D568
:1040B0002968102044F480640861B00607D55FEADF
:1040C0000A7004D528680761284600F0BFF9F00699
:1040D00006D528680069800702D0284600F0B8F9A4
:1040E000B00308D55FEAC96005D52968102048608B
:1040F000284600F0CDF9F00307D55FEA097004D532
:1041000028684760284600F033FA300446D55FEA55
:10411000497040D5F00504D55FEAC87001D044F07D
:104120000104B00504D55FEA887001D544F00204AB
:10413000700504D55FEA487001D544F004043005E9
:1041400029D518F0700F26D008F07000402815D03F
:1041500006DC102809D020280AD0302816D10AE021
:1041600050280ED0602811D10EE044F008040DE074
:1041700044F010040AE044F0200407E044F0400456
:1041800004E044F0800401E044F48074286881690C
:1041900021F070018161296804204860002C05D05D
:1041A000686A204368622846FFF772FEBDE8F09F08
:1041B00070B5040003D094F8200010B104E0012091
:1041C00070BD204600F082F82068016841F00101CE
:1041D000016000F0D1FC0546052604E000F0CCFCAF
:1041E000401B0A2811D820684068C007F6D0206814
:1041F000016821F00201016000F0BEFC05460BE001
:1042000000F0BAFC401B0A2806D9606A40F400306E
:10421000606284F82060D2E7206840688007EFD4AD
:10422000207E0128206801683DD021F080010160D6
:10423000607E01282068016838D021F040010160CB
:10424000A07E01282068016833D021F020010160A0
:10425000E07E0128206801682ED041F01001016045
:10426000207F01282068016829D021F00801016021
:10427000607F01282068016824D021F004010160DA
:10428000D4E902010843D4E90412114308436168E8
:10429000491E08432168C86100206062012084F83B
:1042A0002000002070BD41F08001C0E741F04001D6
:1042B000C5E741F02001CAE721F01001CFE741F046
:1042C0000801D4E741F00401D9E70000F0B587B058
:1042D000044614216846FCF7D5F93E4B3E48DFF80A
:1042E000F0E01968D4F800C03B4A032502260927EC
:1042F00010300024491CF4452AD11960012907D146
:10430000016841F000710160006800F000700590E4
:10431000106840F0080010601068CDE9005600F009
:104320000800CDE9047069462C48CDE9024500F04B
:1043300021FB00220521132000F05EFF132000F076
:104340004DFF00220521142000F056FF14203AE012
:10435000DFF88CE0F44538D1D0F800C04CF0806C28
:10436000C0F800C0D0F800C001290CF0806CCDF876
:1043700014C0196007D1016841F000710160006844
:1043800000F000700590106840F0020010601068A6
:1043900002AB00F0020005906020CDE9000683E842
:1043A000B00069460F4800F0E5FA002205213F20E1
:1043B00000F022FF3F2000F011FF002205214020E5
:1043C00000F01AFF402000F009FF07B0F0BD000028
:1043D000006400400400002030380240000C02401D
:1043E000006800400004024090F820200021012ACB
:1043F00008D0022A06D0416A41F48021416201219D
:104400000846704700224262FAE7704770B58AB0EA
:10441000054607AB6A460021FFF73CFD0A4E002423
:104420002A6856F8240001680968914205D1836A18
:104430001BB107A9049A00989847641CE4B2022CA7
:10444000EED30AB070BD000080000020704700006D
:1044500070B58AB0054607AB6A460021FFF71AFD22
:104460000A4E00242A6856F824000168096891421F
:1044700005D1836A1BB107A9049A00989847641C68
:10448000E4B2022CEED30AB070BD00008000002020
:104490007047000070B5044690F82000012804D051
:1044A000606A40F40020606218E0022084F8200076
:1044B0002068016821F00101016000F05DFB054604
:1044C0000EE000BF00F058FB401B0A2808D9606AC4
:1044D00040F400306062052084F82000012070BDA7
:1044E00020684068C007EDD1606270BD7047000071
:1044F00070B5084E054600242A6856F82400016865
:104500000968914201D1FDF7EDF9641CE4B2022C77
:10451000F2D370BD800000207047000070B5084ED7
:10452000054600242A6856F824000168096891426B
:1045300001D1FDF7D7F9641CE4B2022CF2D370BDAF
:10454000800000207047000070B5084E054600242A
:104550002A6856F8240001680968914201D1FDF7E4
:10456000C1F9641CE4B2022CF2D370BD80000020BB
:1045700070472DE9F0410446876D00F0FDFA0646CC
:1045800094F835000025022806D08020606584F864
:1045900034500120BDE8F0812068016821F0160147
:1045A00001602068416921F080014161206C08B9F7
:1045B000A06C20B12068016821F00801016020682A
:1045C000016821F0010101600CE000F0D5FA801BC8
:1045D000052807D920206065032084F8350084F879
:1045E0003450D7E720680068C007EED194F85C101B
:1045F0003F208840B860012084F8350084F83450AA
:104600000020C7E790F83510022903D080214165CA
:1046100001207047052180F835100068016821F0FD
:1046200001010160002070472DE9F84304464FF076
:104630000009CDF8009063484FF41651A56D00684D
:10464000B0FBF1F72E6894F85C10082000FA01F135
:1046500031420FD021680A6852070BD50A6822F050
:1046600004020A6094F85C108840A860606D40F015
:104670000100606594F85C104FF0010808FA01F041
:10468000304208D021684969090604D5A860606DE8
:1046900040F00200606594F85C10042088403042CD
:1046A00008D021680968890704D5A860606D40F0CA
:1046B0000400606594F85C1010208840304218D0E7
:1046C00021680968090714D5A860206801684903B2
:1046D00004D50068000308D5A16C07E00168C9058E
:1046E00003D4016821F008010160216C09B1204662
:1046F000884794F85C1020208840304231D02168EF
:104700000968C9062DD5A86094F8350005282068E9
:10471000016806D0490347D5006800031DD4616CC9
:104720001CE021F0160101602068416921F0800140
:104730004161206C08B9A06C20B12068016821F0AB
:104740000801016094F85C103F208840A86084F85C
:10475000358084F83490216D1FE0E16B09B120466B
:104760008847606D00282BD0606DC00714D00520ED
:1047700084F835002068016821F00101016000988B
:10478000401C0090B84203D820680068C007F6D1EA
:1047900084F8358084F83490E16C002910D001B0A1
:1047A0002046BDE8F04308470168C905D5D4016833
:1047B00021F01001016084F8358084F83490CCE752
:1047C000BDE8F883140000202DE9F041044600F014
:1047D000D3F906465CB1022084F83500002584F840
:1047E00034502068016821F0010101600DE00120D2
:1047F000BDE8F08100F0C0F9801B052805D9202014
:104800006065032084F83500F2E720680068C0077F
:10481000F0D12268116820480140D4E9010318430F
:10482000D4E903363343184363691843A369184333
:10483000E3691843236A18430843616A042903D1D2
:10484000D4E90B1319430843106020684069666A75
:1048500020F0070130460E43012704280CD1A06A3E
:104860000643E06A40B12046FEF7B2F920B140208D
:10487000606584F83570BAE7206846612046FEF727
:1048800093F994F85C203F2191408160656584F83C
:1048900035700020ACE700003F8010F02DE9F041BA
:1048A0000446866D90F83400002501280DD00120C3
:1048B00084F8340094F835700020012F07D084F874
:1048C000340002252846BDE8F0810220FBE70227DC
:1048D00084F8357060652046FEF7A4F994F85C1002
:1048E0003F208840B0602068016841F016010160F7
:1048F000206C20B12068016841F008010160206847
:10490000016841F001010160DCE7000070B5044678
:1049100000F032F90546601C02D0044800780444D7
:1049200000F02AF9401BA042FAD370BD0800002015
:1049300070B5094E0546002456F824104868A84270
:1049400004D1087A052801D1C8688047641CE4B204
:104950000E2CF1D370BD00003C470020044910B577
:104960000A68024202D00860FFF7E2FF10BD0000B3
:10497000143C01402DE9F84FDFF8BCA100220125CD
:1049800003264FF00F090AF1040BAAF1040E00BF31
:104990000B6805FA02F42340A34270D10F7907F0A7
:1049A0000307012F01D0022F16D187684FEA420872
:1049B00006FA08FC27EA0C07D1F80CC00CFA08FC30
:1049C0004CEA070CC0F808C04768A7430C79C4F349
:1049D000001494403C4344600C79E443A4070AD09B
:1049E000C4684FEA420C06FA0CF7BC438F6807FA1A
:1049F0000CF72743C7600C7904F00304022C12D192
:104A0000D40800EB840CDCF820405707FF0E09FAAD
:104A100007F824EA0804D1F8108008FA07F848EAF1
:104A20000408CCF8208004684FEA420C06FA0CF720
:104A3000BC430F7907F0030707FA0CF72743076019
:104A40004C6814F4403F70D03C4C276847F48047D2
:104A50002760246822F0030704F480440094384C53
:104A600007EB040CDCF8084897074FEA177809FAB7
:104A700008F7BC43334FB84202D1002724E054E08A
:104A8000314FB84201D101271EE0304FB84201D169
:104A9000022719E02E4FB84201D1032714E02D4F11
:104AA000B84201D104270FE02B4FB84201D10527AE
:104AB0000AE02A4FB84201D1062705E0284FB84244
:104AC00001D1072700E0082707FA08F72743CCF8A9
:104AD0000878DAF800405746D1F804C09C435FEAF2
:104AE000CC2C00D51C433C60DBF800405F46D1F87D
:104AF00004C09C435FEA8C2C00D51C433C60DEF86C
:104B000000407746D1F804C09C435FEA8C3C00D556
:104B10001C433C60084F083F3C68D1F804C09C43EC
:104B20005FEACC3C00D51C433C60521C102AFFF4C9
:104B30002FAFBDE8F88F0000083C01404438024028
:104B40000030014000000240000402400008024022
:104B5000000C024000100240001402400018024005
:104B6000001C02400069084000D0012070470AB1D3
:104B7000816170470904FBE70148806870470000C5
:104B80000800002070B5040025D094F83D000025F1
:104B900020B984F83C50204600F052FA242084F8D2
:104BA0003D002068016821F0010101602068016872
:104BB00041F4004101602068016821F40041016076
:104BC00000F006FC4D4A6168914201D84C4900E072
:104BD0004C49884201D2012070BD4B492368B0FB8B
:104BE000F1F15E6826F03F060E435E606368934213
:104BF00006D94FF4967359434FF47A73B1FBF3F12E
:104C00002368491C1E6A26F03F0631431962616819
:104C1000914210D84900401EB0FBF1F2521CC2F381
:104C20000B02042A01D2042022E0B0FBF1F0401C68
:104C3000C0F30B001CE0A268F2B301EBC10303EB6D
:104C40000116431EB3FBF6F35B1C43F480431B05C4
:104C500049D092B301EBC10202EB0111401EB0FB3F
:104C6000F1F0401CC0F30B0040F4804040F40040E1
:104C70002168CA694CF6FF739A431043C861D4E9AE
:104C8000071001432068026822F0C002114301604E
:104C9000D4E9030101432068826848F2FF339A4354
:104CA00011438160D4E9050108432168CA6822F0F4
:104CB000FF021043C86001E00EE016E020680168C2
:104CC00041F0010101602564202084F83D00256346
:104CD00084F83E50002070BD01EB4106431EB3FB3B
:104CE000F6F35B1CB3E70120C2E701EB4101401E74
:104CF000B0FBF1F0401CC0F30B00B7E7A086010049
:104D000080841E0000093D0040420F002DE9FF4F46
:104D100083B09A46DDE9118793460446DDF840905A
:104D2000FFF72AFF054694F83D00202870D119238B
:104D3000012274492046009501F034FF0028F5D186
:104D400094F83C00012863D0012084F83C002068DE
:104D50000168C90703D1016841F0010101602068C1
:104D6000016821F400610160222084F83D004020A8
:104D700084F83E0000262664C4F82490A4F82A8013
:104D8000608D20856048E062CDE9007553465A4643
:104D90002046049901F008FE002879D1208DD0B179
:104DA000012821D00228206824D041698069009020
:104DB000208D032866D801282BD0544902283B4671
:104DC0004FF00002009557D08846204601F0EAFED9
:104DD00000285DD13AE0206841698169009101684D
:104DE00041F4007101607DE02068016821F4806178
:104DF0000160F0E7016821F48061016020680168CA
:104E000041F400610160206841698069009069E0B7
:104E100075E02A463946204601F06AFF88BB54E017
:104E20002068016841F40071016020680069616ACE
:104E30000870606A401C6062218D491E2185618D69
:104E4000491E618521680969017042E02068016896
:104E500021F48061016020680069616A0870606AFD
:104E6000401C6062208D401E2085608D401E608544
:104E70003B46002241460095204601F093FE00B9D2
:104E8000CEE705E02A463946204601F031FF18B149
:104E9000012007B0BDE8F08F20680069616A0870E2
:104EA000606A401C6062208D401E81B22185608D49
:104EB000401E608520684269D243520712D40329FC
:104EC00003D1016821F48061016020680069616A92
:104ED0000870606A401C6062208D401E2085608DD5
:104EE000401E6085208D00287FF462AF202084F86A
:104EF0003D0084F83E6084F83C600020C9E7022051
:104F0000C7E70000020010000000FFFF04000100DE
:104F10002DE9FF4F83B09A46DDE911979346044689
:104F2000DDF84080FFF728FE054694F83D00202874
:104F30007FD11923012240492046009501F032FE1D
:104F4000002876D194F83C00012872D0012084F822
:104F50003C0020680168C90703D1016841F00101E4
:104F600001602068016821F400610160212084F85B
:104F70003D00402084F83E0000262664C4F82480CA
:104F8000A4F82A90608D20852C48E062CDE9007558
:104F900053465A462046049901F084FD70B930E02A
:104FA0002A463946204601F0DBFE58B1206C042821
:104FB00004D12068016841F400710160012007B04C
:104FC000BDE8F08F606A216800780861606A401C63
:104FD0006062218D491E89B22185628D521E6285D3
:104FE00022685369DB435B070BD469B10078106119
:104FF000606A401C6062208D401E2085608D401ECE
:105000006085208D0028CBD12A463946204601F004
:105010009DFD0028CAD154F83D0B016841F4007190
:105020000160202004F81E09E67766770020C6E7B5
:10503000FFE70220C3E70000020010000000FFFFAE
:10504000F0B587B0044614216846FBF71BFB1A49EC
:10505000206888422DD11948016841F0040101609F
:10506000016801F004010591016841F0010101604E
:105070000068122400F0010005904FF40070012533
:10508000032604278DE8F10069460D48FFF772FCFE
:1050900028028DE8F10069460A48FFF76BFC0748D3
:1050A0001030016841F400010160006800F4000064
:1050B000059007B0F0BD0000005C004030380240B1
:1050C0000008024000000240024881680278114452
:1050D00081607047080000200B4810B5016841F45A
:1050E00000710160016841F480610160016841F470
:1050F00080710160032000F09FF8002000F006F8A6
:1051000000F050F8002010BD003C024030B50546CC
:105110001F4887B00024016841F010010160006859
:1051200006A900F01000009001A800F031F90498E1
:10513000A8B100F04DF940001649174AB0FBF1F153
:105140001648491E026040F2E732C0E90324C0E974
:105150000114846100F056FD040003D015E000F056
:1051600037F9E9E70D4800F0C3FD04000DD1362002
:1051700000F034F8102D07D200222946362000F026
:105180003BF80748056000E0012407B0204630BD29
:105190004038024040420F0000100040040A002046
:1051A0000C0000200C4882B0016841F4804101608D
:1051B000006800F4804000900748001F016841F03B
:1051C000805101600068002200F0805000900F21A3
:1051D000901E02B000F010B844380240002809DBED
:1051E00000F01F02012191404009800000F1E02001
:1051F000C0F8001170470000F0B40E4B1B680C465D
:10520000C3F30223C3F10705042D00D90425191D9A
:10521000072901D2002300E0DB1E012606FA05F172
:10522000491E214099409E40761E16403143F0BCF5
:1052300004F06DBE0CED00E0064900F007020868BE
:105240004FF6FF03184040EA0220034A104308606B
:10525000704700000CED00E00000FA052DE9F04772
:105260000E46050065D0DFF81481D8F80000F7B2CB
:1052700000F00700B04207D288F80070D8F80000AC
:1052800000F00700B04254D128683D4C810712D588
:10529000400703D5206840F4E050206028780007DC
:1052A00003D5206840F4604020602068A96820F0A1
:1052B000F000084320602878C0072DD03049686886
:1052C0000839012812D0022813D0032811D0096808
:1052D000890700292DDA216821F0030101432160AB
:1052E000FFF74AFC814641F2883A0EE009688903DB
:1052F000EFE709688901ECE7FFF73EFCA0EB090145
:10530000514502D90320BDE8F0872068696800F0A4
:105310000C00B0EB810FEFD1D8F80010404601F03F
:105320000701B14207D90770006800F00700B042DA
:1053300001D00120E7E72878400705D52068E96813
:1053400020F4E050084320602878000706D5206844
:10535000296920F4604040EAC100206000F058F85C
:105360002168084AC1F30311515CC840064908602E
:1053700006480068FFF7CAFE0020C4E7003C024070
:1053800008380240D4FC0008140000200C00002063
:105390000F2202600C4A136803F003034360136892
:1053A00003F0F0038360136803F4E053C3601268F2
:1053B0004FF4E05303EAD20202610448006800F0AF
:1053C000070008607047000008380240003C0240B7
:1053D0000448054900680968044AC1F38221515C08
:1053E000C84070471400002008380240E4FC000860
:1053F0000448054900680968044AC1F34231515C18
:10540000C84070471400002008380240E4FC00083F
:10541000154810B5006810F00C02144813D0144958
:10542000042A0FD0082A0ED10F4C241F22682368AB
:1054300002F03F025B0207D52068C0F38810A0FB92
:10544000010106E0084610BD2168C1F38811A1FBE7
:1054500000010023FAF7FEFF2168C1F30141491C56
:105460004900B0FBF1F010BD083802400024F40000
:10547000001BB7002DE9F84F04006ED02078DFF84C
:105480004C93C007A9F104054AD009F10400016852
:10549000C1F38101012908D00068C0F3810002280E
:1054A0000AD1D9F80000400206D52868800337D514
:1054B00060680028E1D033E06068B0F5803F10D02C
:1054C000B0F5A02F286810D020F48030286028681C
:1054D00020F4802028606068A8B1FFF74DFB0646E5
:1054E0000DE0286840F48030F4E740F48020286024
:1054F000F7E700BFFFF740FB801B642873D82868DC
:105500008003F7D50CE0FFF737FB064605E000BF48
:10551000FFF732FB801B6428F0D828688003F7D49B
:105520002078DFF8AC8280074FF0000A3ED5A7480C
:10553000001D016811F00C0F08D00068C0F3810055
:1055400002280BD1D9F80000400207D42868800750
:1055500016D5E068012800D112E033E1E068B8B167
:105560000120C8F80000FFF707FB064605E000BF72
:10557000FFF702FB801B0228C0D828688007F7D5F8
:105580002868216920F0F80040EAC10028600DE099
:10559000C8F800A0FFF7F0FA064604E0FFF7ECFABF
:1055A000801B02281FD828688007F7D420780007BE
:1055B00022D5864F87486169703771B1012101603A
:1055C000FFF7DAFA064604E0FFF7D6FA801B022856
:1055D00009D838688007F7D50EE0C0F800A0FFF7BB
:1055E000CBFA064605E082E0FFF7C6FA801B0228E8
:1055F0007DD838688007F7D42078400768D5DFF871
:10560000CCB100270BF13C0BDBF80000C0000BD441
:10561000DBF8001041F08051CBF80010DBF80000FF
:10562000012700F0805000906B4E3068C00510D408
:10563000306840F480703060FFF79EFA009005E01B
:10564000FFF79AFA0099401A022850D83068C0052E
:10565000F6D55E4EA0686C3601280FD0052830685C
:1056600010D020F001003060306820F0040030607D
:10567000A068B8B1FFF780FA00900FE0306840F002
:105680000100F4E740F004003060F7E7FFF774FA38
:105690000099411A41F28830814266D8306880070B
:1056A000F4D50EE0FFF768FA009007E0FFF764FA20
:1056B0000099411A41F28830814256D830688007FB
:1056C000F4D42FB1DBF8001021F08051CBF800109A
:1056D000A069C8B33D49091D0968C1F381010229C8
:1056E0004AD00228504607D0C8F8600000E03CE0ED
:1056F000FFF742FA04463BE04746C8F86000FFF770
:105700003BFA064605E000BFFFF736FA801B022889
:105710002BD828688001F7D4D4E907010843A16A8F
:105720002E4A490802EB0141626A41EA82110843AC
:1057300094F82C1040EA0161C9F800100120386685
:10574000FFF71AFA044606E03EE000BFFFF714FA3E
:10575000001B022809D828688001F7D534E000BF73
:10576000FFF70AFA001B022802D90320BDE8F88FD0
:1057700028688001F4D427E00128F7D0D9F8000088
:10578000E26900F4800191421CD1226A00F03F01DD
:10579000914217D147F6C071626A0140B1EB821F96
:1057A00010D1A26A4FF0FF3300F4403103EB5202F4
:1057B000B1EB024F06D194F82C1000F07060B0EB02
:1057C000016F01D00120D1E70020CFE7043802406B
:1057D00000004742800E4742007000400000FFFF7B
:1057E00070B5040009D0606A002540B1256165618B
:1057F000A56294F8510040B10CE0012070BD6068D2
:10580000B0F5827FF4D0E561F2E784F8505020468D
:1058100000F044F8022084F851002068016821F06B
:1058200040010160A088218900F4827001F40441E4
:105830000843A18901F400610843217C01F00201C1
:105840000843217D01F001010843218B01F400711F
:105850000843217F01F03801084394F8201001F03B
:1058600080010843218D01F400510843216808603C
:10587000A069042101EA104094F8241001F01001FD
:105880000843216848602068C16921F40061C16152
:105890006565012084F85100002070BDF0B587B027
:1058A000044614216846FAF7EDFE1C492068884238
:1058B00032D11B480024016841F480510160006826
:1058C00000F48050059016481438016841F0020138
:1058D0000160016801F002010591016841F00101D8
:1058E00001600068022500F0010005901820CDE954
:1058F000000502AA0326052782E8D0006946094868
:10590000FFF738F88020CDE9000502AA694682E851
:10591000D0000548FFF72EF807B0F0BD0030014079
:105920004438024000040240000002402DE9FF4FCD
:1059300081B0044690F8500000260E9F1D46934605
:105940004FF0010901280FD04FF0010A84F850A050
:10595000FFF712F9804694F85100616801280DD0D4
:10596000B1F5827F08D103E0022005B0BDE8F08FD9
:10597000A16809B9042801D00226C9E002980028CC
:1059800065D0BBF1000FFBD0002DF9D094F8510089
:10599000042802D0052084F8510000206065C4F876
:1059A00038B0E587A58702992163E586A58620643E
:1059B000606420680168490603D4016841F0400131
:1059C0000160E068B0F5006F606803D0F0B3012DAE
:1059D00047D081E008B1012D3CD1206B21680088BF
:1059E000C860206B801C2063E08E401EE08631E0A2
:1059F0002068816889070FD5E18E69B1B9F1010F7F
:105A00000AD1216B0988C160206B801C2063E08E65
:105A1000401EE0864FF0000920688168C9070CD05D
:105A2000E18F51B1C068A16B0880A06B801CA0639E
:105A3000E08F401EE0874FF00109FFF79DF8A0EBD3
:105A40000800B84206D3781C04D001E009E05BE00E
:105A500003265BE0E08E0028CAD1E08F0028C7D182
:105A600040E0206B216800780873206B401C2063A5
:105A7000E08E401EE0862FE02068816889070FD500
:105A8000E18E69B1B9F1010F0AD1216B0978017377
:105A9000206B401C2063E08E401EE0864FF0000922
:105AA00020688168C9070CD0E18F51B1C068A16B33
:105AB0000870A06B401CA063E08F401EE0874FF091
:105AC0000109FFF759F8A0EB0800B84202D3781C8F
:105AD00002D0BAE7002FB8D0E08E0028CCD1E08FFA
