:020000040800F2
:1000000020830020290300089F530008774300083D
:100010009D53000889120008915D0008000000004F
:10002000000000000000000000000000690200085D
:10003000BD15000800000000C50200084955000871
:100040004303000843030008430300084303000878
:100050004303000843030008430300084303000868
:1000600043030008791600087F16000843030008C0
:10007000DD1400084303000843030008430300089D
:10008000430300084303000843030008AD120008BF
:10009000A112000843030008430300088516000866
:1000A0004303000843030008430300084303000818
:1000B0004303000843030008430300084303000808
:1000C00043030008430300084303000843030008F8
:1000D00043030008415D000843030008595D000820
:1000E00043030008430300084303000843030008D8
:1000F00043030008430300084303000843030008C8
:1001000043030008430300084303000843030008B7
:10011000430300084303000819560008430300087E
:1001200043030008E91400084303000843030008E0
:10013000430300084303000843030008C5120008F6
:10014000B9120008430300084303000843030008F2
:10015000F5140008011500080D150008755D00086C
:100160004303000843030008430300084303000857
:100170004303000843030008430300080000000095
:10018000430300084303000800F002F800F05CF8A5
:100190000AA090E8000C82448344AAF10107DA45E2
:1001A00001D100F051F8AFF2090EBAE80F0013F0D8
:1001B000010F18BFFB1A43F001031847748A0000AF
:1001C000948A00000A444FF0000C10F8013B13F031
:1001D000070408BF10F8014B1D1108BF10F8015BA0
:1001E000641E05D010F8016B641E01F8016BF9D193
:1001F00013F0080F1EBF10F8014BAD1C0C1B09D1EA
:100200006D1E58BF01F801CBFAD505E014F8016B5B
:1002100001F8016B6D1EF9D59142D6D370470000ED
:100220000023002400250026103A28BF78C1FBD8FF
:10023000520728BF30C148BF0B6070471FB507F099
:10024000E5FE1FBD10B510BD00F05AFA1146FFF7CC
:10025000F5FF06F0F5FE00F078FA03B4FFF7F2FFC1
:1002600003BC00F07BFA00002C4B19680868B0E86A
:10027000F04F80F30988BFF36F8F4FF0000080F3D9
:10028000118870470000000008480068006880F38B
:1002900008884FF0000080F3148862B661B6BFF39F
:1002A0004F8FBFF36F8F00DF00BF00BF08ED00E08E
:1002B000DFF80C00016841F470010160704700BF75
:1002C00088ED00E0EFF30980BFF36F8F134B1A68DE
:1002D0001EF0100F08BF20ED108A20E9F04F1060CB
:1002E00009B44FF0500080F31188BFF34F8FBFF374
:1002F0006F8F07F085FC4FF0000080F3118809BC78
:1003000019680868B0E8F04F1EF0100F08BFB0EC95
:10031000108A80F30988BFF36F8F704718000020A0
:10032000EFF30580704700000948804709480047FF
:10033000FEE7FEE7FEE7FEE7FEE7FEE7FEE7FEE795
:10034000FEE7FEE704480549054A064B70470000F2
:100350000956000889010008207D00202083002024
:10036000207F0020207F00209FED1A1AF5EE000A62
:1003700040EE010ABDEEE00AF5EEC00A10EE100AEA
:10038000F1EE10FA38BF401E00EE100A1349F7EEE6
:10039000001AB8EEC00A30EEC00ADFED0F0A20EEF8
:1003A000200AFCEEC00A10EE900AC0F3080000EE2E
:1003B000900A01EB8000F8EE600A90ED011A70EEF1
:1003C000600A90ED000A71EEE01A21EE800A00EE5C
:1003D000810A704783F9223E00000044F083000840
:1003E000DFED190AB5EEC00A60EE200ABDEEE01A94
:1003F00011EE100AF1EE10FA38BF401E00EE100A9E
:100400001349F7EE001AB8EEC00A30EEC00ADFED6D
:100410000F0A60EE200ABCEEE00A10EE100AC0F3EC
:10042000080000EE100A01EB8000B8EE400A90EDE3
:10043000011A70EEC00A90ED000A71EEE01A21EE8A
:10044000800A00EE810A704783F9223E00000044D2
:10045000F083000853EA020C00F069802DE9F04BAC
:100460004FF00006002B1FBFB3FA83F503FA05F423
:1004700024FA05F65E4012BF1643B2FA82F502FA7C
:1004800005F4C5F120051EBF22FA05FC44EA0C0460
:10049000203556EA044C4FEA144418BF641C4FF050
:1004A00000084FF00009904271EB030C39D300298A
:1004B00019BFB1FA81F701FA07F6B0FA80F700FA2E
:1004C00007F6C7F120071EBF20FA07FC46EA0C0614
:1004D0002037B6FBF4FCA7EB0507103F07F01F0B16
:1004E000CBF120060CFA0BFB2CFA06F644BFB34600
:1004F0000026202FA4BF5E464FF0000B5BEA060CDF
:1005000008BF4FF0010B19EB0B09ABFB027C48EB6A
:100510000608C01B06FB02CC0BFB03CC71EB0C01E5
:10052000C1E70B46024641464846BDE8F08B13B58D
:100530004FF000004FF00001AFF30080BDE81C4019
:100540007047032A40F2308010F0030C00F0158051
:1005500011F8013BBCF1020F624498BF11F801CBC6
:1005600000F8013B38BF11F8013BA2F1040298BF2B
:1005700000F801CB38BF00F8013B11F0030300F095
:100580002580083AC0F0088051F8043B083A51F839
:1005900004CBA0E80810F5E7121D5CBF51F8043B3E
:1005A00040F8043BAFF30080D20724BF11F8013BB1
:1005B00011F801CB48BF11F8012B24BF00F8013B13
:1005C00000F801CB48BF00F8012B704710B5203A66
:1005D000C0F00B80B1E81850203AA0E81850B1E8FC
:1005E0001850A0E81850BFF4F5AF5FEA027C24BFB2
:1005F000B1E81850A0E8185044BF18C918C0BDE8A9
:1006000010405FEA827C24BF51F8043B40F8043B71
:1006100008BF7047D20728BF31F8023B48BF11F826
:10062000012B28BF20F8023B48BF00F8012B704780
:1006300002F0FF0343EA032242EA024200F002B85A
:100640004FF000020429C0F0128010F0030C00F0FB
:100650001B80CCF1040CBCF1020F18BF00F8012B79
:10066000A8BF20F8022BA1EB0C0100F00DB85FEA47
:10067000C17C24BF00F8012B00F8012B48BF00F813
:10068000012B70474FF0000200B513469446964682
:10069000203922BFA0E80C50A0E80C50B1F1200195
:1006A000BFF4F7AF090728BFA0E80C5048BF0CC043
:1006B0005DF804EB890028BF40F8042B08BF7047A1
:1006C00048BF20F8022B11F0804F18BF00F8012B13
:1006D000704770477047704710B500F009F8006820
:1006E00010BD10B5044600F003F8046010BD000012
:1006F00000487047C07C002000487047C07C002044
:100700007546FFF7F9FFAE4605006946534620F0EF
:100710000700854618B020B5FFF714FEBDE820405D
:100720004FF000064FF000074FF000084FF0000BAD
:1007300021F00701AC46ACE8C009ACE8C009ACE860
:10074000C009ACE8C0098D46704710B50446AFF348
:1007500000802046BDE81040FFF77FBD014918200A
:10076000ABBEFEE726000200704705F035BB05F082
:10077000C9BBFFF7F9BDF0EE400AF5EEC00AF1EE95
:1007800010FA02DDB0EE600A7047B1EE600AFBE7D6
:10079000002803D09FED020A80ED000A7047000098
:1007A00000000000002803D0B3EE060A80ED000A26
:1007B0007047000070B52DED0C8B84B006460C46DA
:1007C00015469FED990AF0EE408A9FED970AB0EE2C
:1007D000409A9FED950AF0EE40BA9FED930AF0EE35
:1007E000409A9FED910AB0EE40AA0EB104B11DB936
:1007F00004B0BDEC0C8B70BD8C48FFF7C9FF8C4872
:10080000FFF7D0FF8A48D0ED000A9FED8A1A60EE0C
:10081000810AB0EE600A00F025F9F0EE408A28EE79
:10082000A80AF0EE408A8248D0ED000AB0EE001A25
:1008300060EE810A9FED7F1A60EE810AB0EE600AD9
:1008400000F010F9B0EE409A29EE090AB0EE409A95
:10085000DFED790AB7EE000A00EEA80ADFED770AAD
:1008600000EEC90ADFED760A20EE200A754880ED19
:10087000000A6E4890ED000ADFED730A80EE201A40
:10088000B7EE000A31EE000A20EE000A6D48D0ED06
:10089000000A80EE801A6D4880ED001A94ED000A7F
:1008A000B5EEC00AF1EE10FA0DD194ED010AB5EEE5
:1008B000C00AF1EE10FA06D194ED020AB5EEC00AB4
:1008C000F1EE10FA46D09FED580AB0EE408A0020B3
:1008D000019002900390D4ED000A60EEA00A94ED1E
:1008E000011AD4ED011A41EE210A94ED021AD4ED59
:1008F000021A41EE210AB0EE600A00F0A9F8B0EE4B
:10090000408A94ED000A20EE080A8DED010A94ED6C
:10091000010A20EE080A8DED020A94ED020A20EE8B
:10092000080A8DED030ADDED010AF1EE600AB0EE72
:10093000600AFFF71AFFF0EE409A9DED031AF0EE01
:10094000410A9DED021AB0EE410AFFF710FFB0EE2A
:1009500040AA07E09FED340AF0EE409A9FED320A7C
:10096000B0EE40AA95ED000AB5EEC00AF1EE10FA1D
:100970000DD195ED010AB5EEC00AF1EE10FA06D1DF
:1009800095ED020AB5EEC00AF1EE10FA3CD0B0EED9
:10099000690A00F067F8B0EE408AB0EE690AFFF726
:1009A000E8FEB0EE40DAB0EE4A0A00F05BF8F0EE96
:1009B00040AAB0EE4A0AFFF7DCFEB0EE40BA28EEDD
:1009C0002A0AD5ED010A20EE200AD5ED000A0DEE27
:1009D000200A68EE0B0A95ED021A00EE810AB0EECD
:1009E00040CA95ED010A20EE0B0AD5ED020A0AEE87
:1009F000E00AF0EE40CAF0EE6C0AB0EE4C0AFFF7E7
:100A0000B6FEF0EE40BA03E09FED070AF0EE40BA02
:100A1000B0EE4A1AF0EE690AB0EE6B0A304605F005
:100A2000E7FD00BFE4E60000000000006C010020CC
:100A30007001002035FA8E3CC1BFAD3B9DF8C53634
:100A40002F7C1C4174010020506CC24A78010020A8
:100A500010B505F0ADFBB7EE001AC1EE000AB0EE1E
:100A6000600A10BDFFF7BCBC2DE9F0412DED028BF3
:100A70009AB00546B0EE408A0E46174698460020CA
:100A80001790189019901490159016904DB146B18A
:100A90003FB1B8F1000F04D0B5EEC08AF1EE10FA04
:100AA00005D100201AB0BDEC028BBDE8F08196EDB7
:100AB000000A8DED170A96ED010A8DED180A96EDE4
:100AC000020A8DED190A97ED000A8DED140A97EDD3
:100AD000010A8DED150A97ED020A8DED160A17AA87
:100AE00014A9284605F0D6FB402104A8FFF7CAFD4B
:100AF00000200090019002900390002417A904A800
:100B000006F0A5FE00BF30E004A800EB041090ED55
:100B1000000AD5ED000A20EE200A04A800EB04101C
:100B2000D0ED010A95ED011A00EE810A04A800EB50
:100B30000410D0ED020A95ED021A00EE810A04A815
:100B400000EB0410D0ED030A95ED031A00EE810AC4
:100B500020EE080AF0EE000A80EE201A684600EB4C
:100B6000840080ED001A601CC4B2042CCCDB00248D
:100B700010E005EB840090ED000A684600EB84006D
:100B8000D0ED000A30EE200A05EB840080ED000A6B
:100B9000601CC4B2042CECDB284606F0B3FD012037
:100BA00080E7000010B500F01BFA0D4800F002FAD3
:100BB0000C4930B1022008704FF47A7001F0A6FBA6
:100BC00001E00120087004F0A3FC03F041FF00F0F5
:100BD00083FC00F0CBFBBDE8104000F039BD000005
:100BE000C47600205001002001221021014801F0AC
:100BF000BEBC00000000024000221021014801F0AC
:100C0000B6BC0000000002407047000001221146FF
:100C1000014801F0ACBC00000004024000220121A8
:100C2000014801F0A4BC000000040240704706F037
:100C300034BA00F091B910B5FFF7E6FFFFF7F6FF01
:100C400005F020FE08B1802402E005F087FD04468F
:100C500005F0E6FF10B144F0400010BD05F072FF52
:100C6000204310BD2DE9FC410746002016460D46E5
:100C700000900190FFF7C0FF922000F0BDF806221F
:100C80006946122000F09AF8FFF7AEFF9DF80100C8
:100C90009DF80010000200B2084300EE100A464C16
:100CA000B8EEC00AD4ED000A20EE200A85ED000A55
:100CB0009DF803009DF80210000200B2084300EE08
:100CC000100AD4ED000AB8EEC00A20EE200A85ED25
:100CD000010A9DF805009DF80410000200B20843C7
:100CE00000EE100AB8EEC00A20EE200A85ED020AD6
:100CF000FFF794FF08226946002000F05FF8FFF735
:100D000085FF9DF800000F2830D19DF803009DF865
:100D10000210000200B2084300EE100AD4ED010AEE
:100D2000B8EEC00A20EE200A87ED000A9DF8050003
:100D30009DF80410000200B2084300EE100AD4ED42
:100D4000010AB8EEC00A20EE200A87ED010A9DF8DC
:100D500007009DF80610000200B2084300EE100ADA
:100D6000B8EEC00A20EE200A87ED020AFFF744FF22
:100D7000A22000F041F802226946222000F01EF86D
:100D8000FFF732FF9DF800009DF80110C00040EA17
:100D90005110B0F5806F01DBA0F5006000EE100A85
:100DA000B4EE001AF8EEC00AB3EE070A00EE810AAC
:100DB00086ED000ABDE8FC81B000002070B5144645
:100DC0000D4640F0800000F017F806E0552000F0D6
:100DD00013F8641E05F8010BE4B2002CF6D170BDC7
:100DE00010B50C4640F0800000F006F8552000F0E9
:100DF00003F8207010BD000001B582B04FF47A7086
:100E00000090012301AA02A9024802F08FFA9DF87E
:100E100004000EBD7404002010B50C46FFF7ECFF73
:100E20002046BDE81040FFF7E7BF00B58BB00122B8
:100E300005910021CDE906120091019102910391E3
:100E400004910E21CDE90821694600F09BFC0028A1
:100E500001D000F01AFC0BB000BD000070B50D46CB
:100E6000044600680E49884201D1002103E00D4983
:100E7000884203D10E212046FFF7D7FF204601F01C
:100E800009F808B100F001FC2946204600F0FFFBFC
:100E9000002803D0BDE8704000F0F7BB70BD000033
:100EA00000640040006800402DE9F04115460E4600
:100EB000040016D00020266084F824002562A36276
:100EC0004FF4807310222946201D05F02DFF0A4F94
:100ED000002500BF57F8250030B16D1CEDB2022D82
:100EE000F8D30120BDE8F08103213046FFF7B6FFBB
:100EF00047F825400020F5E78000002006480168FB
:100F00000648B1FBF0F2064802704FF47A72B1FB6A
:100F1000F2F14160704700001400002040420F00D1
:100F20008800002070B54FF0E0240022656909496F
:100F3000A36949684843A1699942FCD002D2A3EB56
:100F4000010302E0A5EB010633441A440B4682423A
:100F5000F1D370BD8800002070B54FF0E02400226E
:100F600065690949A36909784843A1699942FCD098
:100F700002D2A3EB010302E0A5EB010633441A44BD
:100F80000B468242F1D370BD8800002020B1C0E939
:100F9000002301720020704701207047034610B5FE
:100FA0000846C3E9000204211972114602F036FE18
:100FB000002010BD8188006889B201F0D3BA05C84D
:100FC00000682AB1042A05D0082A05D001647047B8
:100FD0004163704781637047C163704701F0CCBAC9
:100FE00038B5FFF78BFF4FF48053394A0321394856
:100FF000FFF7CCFF3748082237491030FFF7CEFF04
:101000003448042234492030FFF7C8FF3148002219
:1010100031493030FFF7C2FF2E4800222F494030BF
:10102000FFF7BCFF2B4808222D495030FFF7B6FFD1
:10103000284808222B496030FFF7B0FF25482A498D
:10104000703000F0A5F84FF48064284B21486510FB
:101050002A46A3F500717030009400F0CCF81D48CA
:1010600000232A462249703000F0ACF81948214983
:10107000AC3000F08DF8204B16482A46A3F50071DD
:10108000AC30009400F0B7F8124800232A461B4900
:10109000AC3000F097F80F481949E83000F078F8C4
:1010A0000C4800231E221749E83000F08BF8154A3F
:1010B00000231E3214491548FFF7F6FE01B013480D
:1010C000BDE830400023124A12492C30FFF7ECBE35
:1010D00000040240C4760020A4050020340600204D
:1010E0005C050020140500200C070020A448002007
:1010F000A44C00207C060020A4500020A454002012
:10110000C4060020A4560020D0030020E877002069
:10111000C2660020F8030020F8B5054600680168A3
:10112000C9062DD5C068C0062AD5E86B00680168DD
:1011300021F001010160154E002400BF56F8240083
:101140002A6801680968914210D1EA6BC188126867
:101150005268891AC26889B20AB18068904756F805
:101160002400C2888168284603F082F8641CE4B237
:10117000032CE3D3E86B0068016841F001010160D2
:101180002868016840680090F8BD000040780020A1
:1011900070B50D4604000CD03C21FFF773FA0848E7
:1011A0000021256050F821202AB1491CC9B2032929
:1011B000F8D3012070BD40F82140002070BD000030
:1011C0004078002038B5A0B1012404718160C2804C
:1011D000C360016809680A684A680092CA6842F0F8
:1011E0001002CA60C2888168006803F041F80020DC
:1011F00038BD012038BD70B5049C78B10125057457
:101200004161028343630487002180F83A1022463B
:1012100019461C3005F0EDFD002070BD012070BDA9
:1012200070B5FFF7DBFE40F6B831884223D3124990
:1012300040F6C4138A68821A9A4203D94A780A701F
:10124000886017E00A78002A15D0CB684C88C31A4A
:10125000A34203D296214FF4FA7005E08D882C4406
:10126000A34205D200210846BDE8704000F00EB848
:10127000521E0A70C86070BDA0000020014948706D
:1012800070470000A0000020FEE70000034A12683B
:101290001268D0620148FFF792BE00001477002068
:1012A000014800F087BB0000D0030020014800F097
:1012B00081BB0000D0030020014800F07BBB000090
:1012C000F8030020014800F075BB0000F80300207F
:1012D0002DE9F0418CB004000CD0EFF3108572B60C
:1012E000201D05F02FFD0026D8B184F8246000BF32
:1012F00085F310880CB0BDE8F0816946201D05F02B
:10130000F4FC0098069604909DF804000796089057
:1013100084F824800AAB7A1D04A9206800F0C9F97A
:1013200002E06F464FF00108206800F02DFB002816
:10133000DED0201D05F006FD0028DED0D8E7000035
:1013400070B5054D6C6803E0204600F051F8646804
:10135000AC42F9D170BD000090000020FFF7F0FF13
:1013600000F018F8012005F098FEF7E700B587B007
:101370001C2206496846FFF729F90021684605F056
:10138000ABFE0349086007B000BD0000AC83000855
:1013900064010020F0B5A1B080216846FFF772F922
:1013A000124E74681EE000BF04F10800074605F005
:1013B0002BFD05042D0C14D0D4F8A80018B18047DB
:1013C000A84200D20546802D00D980252A466946CC
:1013D000384605F0D3FCD4F8A42012B1294668465B
:1013E00090476468B442DFD121B0F0BD980000207E
:1013F0002DE9F041044600F12605002600F108071A
:1014000063E0384605F0A4FC94F8211006293CD28C
:10141000DFE801F0031118252D3E94F820108142D9
:1014200007D1012184F82110618C4A1C628448553F
:101430004BE0668449E0A084628C511C6184505565
:10144000022011E0A18C41EA0021A184628C511C90
:1014500061845055A08C772817D2032004E0618C5A
:101460004A1C62844855042084F821002DE0618CD8
:101470004A1C62844855608C052826D105212846DF
:1014800006F006FC08B10520EEE784F82160D0E7FD
:10149000A18C628C09318A4202D2511C6184505560
:1014A000A18C608C093188420FD384F82160668456
:1014B000284606F0D3FB40B12946D4F8A83031F8CD
:1014C000012F8888E91D03B19847384605F09CFC38
:1014D000002896D1BDE8F08170470000014800F077
:1014E000A3BD000014080020014800F09DBD0000CD
:1014F00074080020014800F097BD00005407002048
:10150000014800F091BD0000D4080020014800F01F
:101510008BBD0000B407002001681823CAB2103A3E
:10152000B2FBF3F2054B6FF30901032A9B5CC36521
:1015300000D9091D81650846704700003480000805
:1015400010B5014600208B698A6A4FF0C07453B110
:10155000B3F5005F15D072B1012A0CD0022A0AD06F
:10156000032A09D104E01AB1012A06D0022A03D1C4
:10157000C96AC90100D5012010BDC96AA142FAD0CB
:1015800010BD002AF7D0012AF2D0022AF3D0032A94
:10159000F3D010BD30B50468256825F4802525609A
:1015A000046863608368402B036803D09960006817
:1015B000C26030BD9A600068C16030BD70470000F5
:1015C000214C00BFFFF70AFD0025FF23012217462B
:1015D0004FEA050604EB0211D1F804C0D1F808E087
:1015E000A0EB0C0CF4450BD991F800C0BCF1000F36
:1015F00006D0CF708978994203D20B46D5B200E06D
:10160000CE70521C152AE5DB85B104EB0515287B4D
:10161000FFF734FEA87810B1012802D00DE00B4886
:1016200001E06FF0FF0004F0F7FD06E04FF0FF204F
:1016300004F0F2FD0020FFF721FEFFF7F1FD14207A
:1016400005F02BFDBEE70000707B00200000FFFFCF
:1016500000B587B01C2206496846FEF7B7FF002197
:10166000684605F039FD0349086007B000BD000079
:10167000C883000868010020082000F06FBE102019
:1016800000F06CBE202000F069BE72B6FEE790F854
:101690002020012A07D0022A05D0416A41F4802186
:1016A000416201207047006842690A43426100209C
:1016B0007047F0B590F820500468A468012D05D05B
:1016C000022D03D0416A41F4802157E014F0406FAD
:1016D00001D1E5004FD5C4F301640125A5401D608B
:1016E0008D684FF4C0739DB1CE6835434E6845EAAE
:1016F000C605066803EB0417F5514FF4C275076879
:1017000005EB04150E697E51097D012905D009E01C
:101710000E88CD6845EA4655EBE701684E5946F418
:1017200080764E511179D579567941EA05619579DE
:101730002D0445EA062529434FF4C676056806EBD5
:101740000416A9511178D57841EA05619578527847
:101750002D0445EA022211434FF4C475026805EBDB
:1017600004155151006803EB0411425842F0010284
:1017700042500020F0BD416A41F400114162012055
:10178000F0BD000010B590F82020012A07D0022AF1
:1017900005D0416A41F480214162012010BD3B48DF
:1017A000D0F8002242F00102C0F80022D0F8002256
:1017B00022F47C52C0F80022D0F800224B6A42EAA0
:1017C0000322C0F800220A7D02F01F0301229A4082
:1017D000D0F81C329343C0F81C32CB69B3B9D0F8AF
:1017E0000C329343C0F80C328C894B6864F31F436E
:1017F0004C6900EBC404C4F840320C890B6864F3F4
:101800001F434C6900EBC404C4F84432CB69012B7C
:1018100016D1D0F80C321343C0F80C320C884B6848
:1018200064F31F434C6900EBC404C4F840320C89D4
:10183000CB6864F31F434C6900EBC404C4F8443222
:101840008B69002BD0F804320ED01343C0F8043259
:101850000B69002BD0F8143208D01343C0F81432AF
:10186000096A012904D008E09343EFE79343F5E7C1
:10187000D0F81C121143C0F81C12D0F8001221F04D
:101880000101C0F80012002010BD000000640040FB
:1018900000F0AABA70B590F82040012C05D0022CB7
:1018A00003D0416A41F4802128E0046809B3246927
:1018B000A40720D04FF4D874056804EB01142D5907
:1018C00015F00405956005682D591AD0ED0855608E
:1018D00005682C5904F00204D4604FF4DA740568EA
:1018E00004EB01142E5906F00F06082E0CD3082520
:1018F0000DE0E468DCE7416A41F400114162012037
:1019000070BD6D0D1560E3E72D5905F00F051561EC
:1019100005682D59C5F30725956105682C59240CD8
:1019200054614FF4DC72046802EB0112A4581C707D
:101930000468A458240A5C700468A458240C9C70A1
:101940000468A258120EDA704FF4DE72046802EBDB
:101950000112A4581C710468A458240A5C7104681C
:10196000A458240C9C710468A258120EDA71006805
:1019700029B1016941F020010161002070BDC168F9
:1019800041F02001C160F8E70246002092F82010E3
:10199000012901D002290CD111688A68520100D5B1
:1019A00001208A68120100D5401C8968C90000D551
:1019B000401C70472DE9F05F054600680024466929
:1019C000D0F804908768D0F80CB0D0F810A0D0F808
:1019D0001880F10748D0F90714D001218160B807B9
:1019E00003D5284600F084FA0CE0780702D54FF4BE
:1019F000006407E0380702D54FF4805402E028461F
:101A000000F074FAF80516D529684FF480708860E4
:101A1000B80503D5284600F081FA0CE0780502D518
:101A200044F4005407E0380502D544F4804402E051
:101A3000284600F071FAF80316D529684FF4803073
:101A40008860B80303D5284600F07EFA0CE07803DE
:101A500002D544F4004407E0380302D544F480344E
:101A600002E0284600F06EFA300707D55FEACB6047
:101A700004D52968102044F40074C86070074FF042
:101A8000080707D55FEA0B7004D52868C7602846A9
:101A900000F0BBF9B00706D52868C068800702D0FF
:101AA000284600F0B3F9700607D55FEACA6004D58E
:101AB0002968102044F480640861B00607D55FEA05
:101AC0000A7004D528680761284600F0BFF9F006BF
:101AD00006D528680069800702D0284600F0B8F9CA
:101AE000B00308D55FEAC96005D5296810204860B1
:101AF000284600F0CDF9F00307D55FEA097004D558
:101B000028684760284600F033FA300446D55FEA7B
:101B1000497040D5F00504D55FEAC87001D044F0A3
:101B20000104B00504D55FEA887001D544F00204D1
:101B3000700504D55FEA487001D544F0040430050F
:101B400029D518F0700F26D008F07000402815D065
:101B500006DC102809D020280AD0302816D10AE047
:101B600050280ED0602811D10EE044F008040DE09A
:101B700044F010040AE044F0200407E044F040047C
:101B800004E044F0800401E044F480742868816932
:101B900021F070018161296804204860002C05D083
:101BA000686A204368622846FFF772FEBDE8F09F2E
:101BB00070B5040003D094F8200010B104E00120B7
:101BC00070BD204600F082F82068016841F00101F4
:101BD000016000F0D1FC0546052604E000F0CCFCD5
:101BE000401B0A2811D820684068C007F6D020683A
:101BF000016821F00201016000F0BEFC05460BE027
:101C000000F0BAFC401B0A2806D9606A40F4003094
:101C1000606284F82060D2E7206840688007EFD4D3
:101C2000207E0128206801683DD021F080010160FC
:101C3000607E01282068016838D021F040010160F1
:101C4000A07E01282068016833D021F020010160C6
:101C5000E07E0128206801682ED041F0100101606B
:101C6000207F01282068016829D021F00801016047
:101C7000607F01282068016824D021F00401016000
:101C8000D4E902010843D4E904121143084361680E
:101C9000491E08432168C86100206062012084F861
:101CA0002000002070BD41F08001C0E741F04001FC
:101CB000C5E741F02001CAE721F01001CFE741F06C
:101CC0000801D4E741F00401D9E70000F0B587B07E
:101CD000044614216846FEF7D5FC3E4B3E48DFF82B
:101CE000F0E01968D4F800C03B4A03250226092712
:101CF00010300024491CF4452AD11960012907D16C
:101D0000016841F000710160006800F0007005900A
:101D1000106840F0080010601068CDE9005600F02F
:101D20000800CDE9047069462C48CDE9024500F071
:101D300021FB00220521132000F05EFF132000F09C
:101D40004DFF00220521142000F056FF14203AE038
:101D5000DFF88CE0F44538D1D0F800C04CF0806C4E
:101D6000C0F800C0D0F800C001290CF0806CCDF89C
:101D700014C0196007D1016841F00071016000686A
:101D800000F000700590106840F0020010601068CC
:101D900002AB00F0020005906020CDE9000683E868
:101DA000B00069460F4800F0E5FA002205213F2007
:101DB00000F022FF3F2000F011FF0022052140200B
:101DC00000F01AFF402000F009FF07B0F0BD00004E
:101DD000006400400400002030380240000C024043
:101DE000006800400004024090F820200021012AF1
:101DF00008D0022A06D0416A41F4802141620121C3
:101E00000846704700224262FAE7704770B58AB010
:101E1000054607AB6A460021FFF73CFD0A4E002449
:101E20002A6856F8240001680968914205D1836A3E
:101E30001BB107A9049A00989847641CE4B2022CCD
:101E4000EED30AB070BD0000800000207047000093
:101E500070B58AB0054607AB6A460021FFF71AFD48
:101E60000A4E00242A6856F8240001680968914245
:101E700005D1836A1BB107A9049A00989847641C8E
:101E8000E4B2022CEED30AB070BD00008000002046
:101E90007047000070B5044690F82000012804D077
:101EA000606A40F40020606218E0022084F820009C
:101EB0002068016821F00101016000F05DFB05462A
:101EC0000EE000BF00F058FB401B0A2808D9606AEA
:101ED00040F400306062052084F82000012070BDCD
:101EE00020684068C007EDD1606270BD7047000097
:101EF00070B5084E054600242A6856F8240001688B
:101F00000968914201D1FFF7E3F9641CE4B2022CA5
:101F1000F2D370BD800000207047000070B5084EFD
:101F2000054600242A6856F8240001680968914291
:101F300001D1FFF7CDF9641CE4B2022CF2D370BDDD
:101F4000800000207047000070B5084E0546002450
:101F50002A6856F8240001680968914201D1FFF708
:101F6000B7F9641CE4B2022CF2D370BD80000020EB
:101F700070472DE9F0410446876D00F0FDFA0646F2
:101F800094F835000025022806D08020606584F88A
:101F900034500120BDE8F0812068016821F016016D
:101FA00001602068416921F080014161206C08B91D
:101FB000A06C20B12068016821F008010160206850
:101FC000016821F0010101600CE000F0D5FA801BEE
:101FD000052807D920206065032084F8350084F89F
:101FE0003450D7E720680068C007EED194F85C1041
:101FF0003F208840B860012084F8350084F83450D0
:102000000020C7E790F83510022903D080214165F0
:1020100001207047052180F835100068016821F023
:1020200001010160002070472DE9F84304464FF09C
:102030000009CDF8009063484FF41651A56D006873
:10204000B0FBF1F72E6894F85C10082000FA01F15B
:1020500031420FD021680A6852070BD50A6822F076
:1020600004020A6094F85C108840A860606D40F03B
:102070000100606594F85C104FF0010808FA01F067
:10208000304208D021684969090604D5A860606D0E
:1020900040F00200606594F85C10042088403042F3
:1020A00008D021680968890704D5A860606D40F0F0
:1020B0000400606594F85C1010208840304218D00D
:1020C00021680968090714D5A860206801684903D8
:1020D00004D50068000308D5A16C07E00168C905B4
:1020E00003D4016821F008010160216C09B1204688
:1020F000884794F85C1020208840304231D0216815
:102100000968C9062DD5A86094F83500052820680F
:10211000016806D0490347D5006800031DD4616CEF
:102120001CE021F0160101602068416921F0800166
:102130004161206C08B9A06C20B12068016821F0D1
:102140000801016094F85C103F208840A86084F882
:10215000358084F83490216D1FE0E16B09B1204691
:102160008847606D00282BD0606DC00714D0052013
:1021700084F835002068016821F0010101600098B1
:10218000401C0090B84203D820680068C007F6D110
:1021900084F8358084F83490E16C002910D001B0C7
:1021A0002046BDE8F04308470168C905D5D4016859
:1021B00021F01001016084F8358084F83490CCE778
:1021C000BDE8F883140000202DE9F041044600F03A
:1021D000D3F906465CB1022084F83500002584F866
:1021E00034502068016821F0010101600DE00120F8
:1021F000BDE8F08100F0C0F9801B052805D920203A
:102200006065032084F83500F2E720680068C007A5
:10221000F0D12268116820480140D4E90103184335
:10222000D4E903363343184363691843A369184359
:10223000E3691843236A18430843616A042903D1F8
:10224000D4E90B1319430843106020684069666A9B
:1022500020F0070130460E43012704280CD1A06A64
:102260000643E06A40B12046FFF76AF920B14020FA
:10227000606584F83570BAE7206846612046FFF74C
:102280004BF994F85C203F2191408160656584F8AA
:1022900035700020ACE700003F8010F02DE9F041E0
:1022A0000446866D90F83400002501280DD00120E9
:1022B00084F8340094F835700020012F07D084F89A
:1022C000340002252846BDE8F0810220FBE7022702
:1022D00084F8357060652046FFF75CF994F85C106F
:1022E0003F208840B0602068016841F0160101601D
:1022F000206C20B12068016841F00801016020686D
:10230000016841F001010160DCE7000070B504469E
:1023100000F032F90546601C02D0044800780444FD
:1023200000F02AF9401BA042FAD370BD080000203B
:1023300070B5094E0546002456F824104868A84296
:1023400004D1087A052801D1C8688047641CE4B22A
:102350000E2CF1D370BD00006C460020044910B56E
:102360000A68024202D00860FFF7E2FF10BD0000D9
:10237000143C01402DE9F84FDFF8BCA100220125F3
:1023800003264FF00F090AF1040BAAF1040E00BF57
:102390000B6805FA02F42340A34270D10F7907F0CD
:1023A0000307012F01D0022F16D187684FEA420898
:1023B00006FA08FC27EA0C07D1F80CC00CFA08FC56
:1023C0004CEA070CC0F808C04768A7430C79C4F36F
:1023D000001494403C4344600C79E443A4070AD0C1
:1023E000C4684FEA420C06FA0CF7BC438F6807FA40
:1023F0000CF72743C7600C7904F00304022C12D1B8
:10240000D40800EB840CDCF820405707FF0E09FAD3
:1024100007F824EA0804D1F8108008FA07F848EA17
:102420000408CCF8208004684FEA420C06FA0CF746
:10243000BC430F7907F0030707FA0CF7274307603F
:102440004C6814F4403F70D03C4C276847F48047F8
:102450002760246822F0030704F480440094384C79
:1024600007EB040CDCF8084897074FEA177809FADD
:1024700008F7BC43334FB84202D1002724E054E0B0
:10248000314FB84201D101271EE0304FB84201D18F
:10249000022719E02E4FB84201D1032714E02D4F37
:1024A000B84201D104270FE02B4FB84201D10527D4
:1024B0000AE02A4FB84201D1062705E0284FB8426A
:1024C00001D1072700E0082707FA08F72743CCF8CF
:1024D0000878DAF800405746D1F804C09C435FEA18
:1024E000CC2C00D51C433C60DBF800405F46D1F8A3
:1024F00004C09C435FEA8C2C00D51C433C60DEF892
:1025000000407746D1F804C09C435FEA8C3C00D57C
:102510001C433C60084F083F3C68D1F804C09C4312
:102520005FEACC3C00D51C433C60521C102AFFF4EF
:102530002FAFBDE8F88F0000083C0140443802404E
:102540000030014000000240000402400008024048
:10255000000C02400010024000140240001802402B
:10256000001C02400069084000D0012070470AB1F9
:10257000816170470904FBE70148806870470000EB
:102580000800002070B5040025D094F83D00002517
:1025900020B984F83C50204600F052FA242084F8F8
:1025A0003D002068016821F0010101602068016898
:1025B00041F4004101602068016821F4004101609C
:1025C00000F006FC4D4A6168914201D84C4900E098
:1025D0004C49884201D2012070BD4B492368B0FBB1
:1025E000F1F15E6826F03F060E435E606368934239
:1025F00006D94FF4967359434FF47A73B1FBF3F154
:102600002368491C1E6A26F03F063143196261683F
:10261000914210D84900401EB0FBF1F2521CC2F3A7
:102620000B02042A01D2042022E0B0FBF1F0401C8E
:10263000C0F30B001CE0A268F2B301EBC10303EB93
:102640000116431EB3FBF6F35B1C43F480431B05EA
:1026500049D092B301EBC10202EB0111401EB0FB65
:10266000F1F0401CC0F30B0040F4804040F4004007
:102670002168CA694CF6FF739A431043C861D4E9D4
:10268000071001432068026822F0C0021143016074
:10269000D4E9030101432068826848F2FF339A437A
:1026A00011438160D4E9050108432168CA6822F01A
:1026B000FF021043C86001E00EE016E020680168E8
:1026C00041F0010101602564202084F83D0025636C
:1026D00084F83E50002070BD01EB4106431EB3FB61
:1026E000F6F35B1CB3E70120C2E701EB4101401E9A
:1026F000B0FBF1F0401CC0F30B00B7E7A08601006F
:1027000080841E0000093D0040420F002DE9FF4F6C
:1027100083B09A46DDE9118793460446DDF8409080
:10272000FFF72AFF054694F83D00202870D11923B1
:10273000012274492046009501F034FF0028F5D1AC
:1027400094F83C00012863D0012084F83C00206804
:102750000168C90703D1016841F0010101602068E7
:10276000016821F400610160222084F83D004020CE
:1027700084F83E0000262664C4F82490A4F82A8039
:10278000608D20856048E062CDE9007553465A4669
:102790002046049901F008FE002879D1208DD0B19F
:1027A000012821D00228206824D041698069009046
:1027B000208D032866D801282BD0544902283B4697
:1027C0004FF00002009557D08846204601F0EAFEFF
:1027D00000285DD13AE02068416981690091016873
:1027E00041F4007101607DE02068016821F480619E
:1027F0000160F0E7016821F48061016020680168F0
:1028000041F400610160206841698069009069E0DD
:1028100075E02A463946204601F06AFF88BB54E03D
:102820002068016841F40071016020680069616AF4
:102830000870606A401C6062218D491E2185618D8F
:10284000491E618521680969017042E020680168BC
:1028500021F48061016020680069616A0870606A23
:10286000401C6062208D401E2085608D401E60856A
:102870003B46002241460095204601F093FE00B9F8
:10288000CEE705E02A463946204601F031FF18B16F
:10289000012007B0BDE8F08F20680069616A087008
:1028A000606A401C6062208D401E81B22185608D6F
:1028B000401E608520684269D243520712D4032922
:1028C00003D1016821F48061016020680069616AB8
:1028D0000870606A401C6062208D401E2085608DFB
:1028E000401E6085208D00287FF462AF202084F890
:1028F0003D0084F83E6084F83C600020C9E7022077
:10290000C7E70000020010000000FFFF0400010004
:102910002DE9FF4F83B09A46DDE9119793460446AF
:10292000DDF84080FFF728FE054694F83D0020289A
:102930007FD11923012240492046009501F032FE43
:10294000002876D194F83C00012872D0012084F848
:102950003C0020680168C90703D1016841F001010A
:1029600001602068016821F400610160212084F881
:102970003D00402084F83E0000262664C4F82480F0
:10298000A4F82A90608D20852C48E062CDE900757E
:1029900053465A462046049901F084FD70B930E050
:1029A0002A463946204601F0DBFE58B1206C042847
:1029B00004D12068016841F400710160012007B072
:1029C000BDE8F08F606A216800780861606A401C89
:1029D0006062218D491E89B22185628D521E6285F9
:1029E00022685369DB435B070BD469B1007810613F
:1029F000606A401C6062208D401E2085608D401EF4
:102A00006085208D0028CBD12A463946204601F02A
:102A10009DFD0028CAD154F83D0B016841F40071B6
:102A20000160202004F81E09E67766770020C6E7DB
:102A3000FFE70220C3E70000020010000000FFFFD4
:102A4000F0B587B0044614216846FDF71BFE1A490D
:102A5000206888422DD11948016841F004010160C5
:102A6000016801F004010591016841F00101016074
:102A70000068122400F0010005904FF40070012559
:102A8000032604278DE8F10069460D48FFF772FC24
:102A900028028DE8F10069460A48FFF76BFC0748F9
:102AA0001030016841F400010160006800F400008A
:102AB000059007B0F0BD0000005C004030380240D7
:102AC0000008024000000240024881680278114478
:102AD00081607047080000200B4810B5016841F480
:102AE00000710160016841F480610160016841F496
:102AF00080710160032000F09FF8002000F006F8CC
:102B000000F050F8002010BD003C024030B50546F2
:102B10001F4887B00024016841F01001016000687F
:102B200006A900F01000009001A800F031F9049807
:102B3000A8B100F04DF940001649174AB0FBF1F179
:102B40001648491E026040F2E732C0E90324C0E99A
:102B50000114846100F056FD040003D015E000F07C
:102B600037F9E9E70D4800F0C3FD04000DD1362028
:102B700000F034F8102D07D200222946362000F04C
:102B80003BF80748056000E0012407B0204630BD4F
:102B90004038024040420F0000100040340900203D
:102BA0000C0000200C4882B0016841F480410160B3
:102BB000006800F4804000900748001F016841F061
:102BC000805101600068002200F0805000900F21C9
:102BD000901E02B000F010B844380240002809DB13
:102BE00000F01F02012191404009800000F1E02027
:102BF000C0F8001170470000F0B40E4B1B680C4683
:102C0000C3F30223C3F10705042D00D90425191DC0
:102C1000072901D2002300E0DB1E012606FA05F198
:102C2000491E214099409E40761E16403143F0BC1B
:102C300003F0C2B80CED00E0064900F00702086896
:102C40004FF6FF03184040EA0220034A1043086091
:102C5000704700000CED00E00000FA052DE9F04798
:102C60000E46050065D0DFF81481D8F80000F7B2F1
:102C700000F00700B04207D288F80070D8F80000D2
:102C800000F00700B04254D128683D4C810712D5AE
:102C9000400703D5206840F4E05020602878000702
:102CA00003D5206840F4604020602068A96820F0C7
:102CB000F000084320602878C0072DD030496868AC
:102CC0000839012812D0022813D0032811D009682E
:102CD000890700292DDA216821F0030101432160D1
:102CE000FFF74AFC814641F2883A0EE00968890301
:102CF000EFE709688901ECE7FFF73EFCA0EB09016B
:102D0000514502D90320BDE8F0872068696800F0CA
:102D10000C00B0EB810FEFD1D8F80010404601F065
:102D20000701B14207D90770006800F00700B04200
:102D300001D00120E7E72878400705D52068E96839
:102D400020F4E050084320602878000706D520686A
:102D5000296920F4604040EAC100206000F058F882
:102D60002168084AC1F30311515CC8400649086054
:102D700006480068FFF7CAFE0020C4E7003C024096
:102D8000083802403C800008140000200C0000209D
:102D90000F2202600C4A136803F0030343601368B8
:102DA00003F0F0038360136803F4E053C360126818
:102DB0004FF4E05303EAD20202610448006800F0D5
:102DC000070008607047000008380240003C0240DD
:102DD0000448054900680968044AC1F38221515C2E
:102DE000C840704714000020083802404C8000089A
:102DF0000448054900680968044AC1F34231515C3E
:102E0000C840704714000020083802404C80000879
:102E1000154810B5006810F00C02144813D014497E
:102E2000042A0FD0082A0ED10F4C241F22682368D1
:102E300002F03F025B0207D52068C0F38810A0FBB8
:102E4000010106E0084610BD2168C1F38811A1FB0D
:102E500000010023FDF7FEFA2168C1F30141491C7E
:102E60004900B0FBF1F010BD083802400024F40026
:102E7000001BB7002DE9F84F04006ED02078DFF872
:102E80004C93C007A9F104054AD009F10400016878
:102E9000C1F38101012908D00068C0F38100022834
:102EA0000AD1D9F80000400206D52868800337D53A
:102EB00060680028E1D033E06068B0F5803F10D052
:102EC000B0F5A02F286810D020F480302860286842
:102ED00020F4802028606068A8B1FFF74DFB06460B
:102EE0000DE0286840F48030F4E740F4802028604A
:102EF000F7E700BFFFF740FB801B642873D8286802
:102F00008003F7D50CE0FFF737FB064605E000BF6E
:102F1000FFF732FB801B6428F0D828688003F7D4C1
:102F20002078DFF8AC8280074FF0000A3ED5A74832
:102F3000001D016811F00C0F08D00068C0F381007B
:102F400002280BD1D9F80000400207D42868800776
:102F500016D5E068012800D112E033E1E068B8B18D
:102F60000120C8F80000FFF707FB064605E000BF98
:102F7000FFF702FB801B0228C0D828688007F7D51E
:102F80002868216920F0F80040EAC10028600DE0BF
:102F9000C8F800A0FFF7F0FA064604E0FFF7ECFAE5
:102FA000801B02281FD828688007F7D420780007E4
:102FB00022D5864F87486169703771B10121016060
:102FC000FFF7DAFA064604E0FFF7D6FA801B02287C
:102FD00009D838688007F7D50EE0C0F800A0FFF7E1
:102FE000CBFA064605E082E0FFF7C6FA801B02280E
:102FF0007DD838688007F7D42078400768D5DFF897
:10300000CCB100270BF13C0BDBF80000C0000BD467
:10301000DBF8001041F08051CBF80010DBF8000025
:10302000012700F0805000906B4E3068C00510D42E
:10303000306840F480703060FFF79EFA009005E041
:10304000FFF79AFA0099401A022850D83068C00554
:10305000F6D55E4EA0686C3601280FD00528306882
:1030600010D020F001003060306820F004003060A3
:10307000A068B8B1FFF780FA00900FE0306840F028
:103080000100F4E740F004003060F7E7FFF774FA5E
:103090000099411A41F28830814266D83068800731
:1030A000F4D50EE0FFF768FA009007E0FFF764FA46
:1030B0000099411A41F28830814256D83068800721
:1030C000F4D42FB1DBF8001021F08051CBF80010C0
:1030D000A069C8B33D49091D0968C1F381010229EE
:1030E0004AD00228504607D0C8F8600000E03CE013
:1030F000FFF742FA04463BE04746C8F86000FFF796
:103100003BFA064605E000BFFFF736FA801B0228AF
:103110002BD828688001F7D4D4E907010843A16AB5
:103120002E4A490802EB0141626A41EA82110843D2
:1031300094F82C1040EA0161C9F8001001203866AB
:10314000FFF71AFA044606E03EE000BFFFF714FA64
:10315000001B022809D828688001F7D534E000BF99
:10316000FFF70AFA001B022802D90320BDE8F88FF6
:1031700028688001F4D427E00128F7D0D9F80000AE
:10318000E26900F4800191421CD1226A00F03F0103
:10319000914217D147F6C071626A0140B1EB821FBC
:1031A00010D1A26A4FF0FF3300F4403103EB52021A
:1031B000B1EB024F06D194F82C1000F07060B0EB28
:1031C000016F01D00120D1E70020CFE70438024091
:1031D00000004742800E4742007000400000FFFFA1
:1031E00070B5040009D0606A002540B125616561B1
:1031F000A56294F8510040B10CE0012070BD6068F8
:10320000B0F5827FF4D0E561F2E784F850502046B3
:1032100000F044F8022084F851002068016821F091
:1032200040010160A088218900F4827001F404410A
:103230000843A18901F400610843217C01F00201E7
:103240000843217D01F001010843218B01F4007145
:103250000843217F01F03801084394F8201001F061
:1032600080010843218D01F4005108432168086062
:10327000A069042101EA104094F8241001F0100123
:103280000843216848602068C16921F40061C16178
:103290006565012084F85100002070BDF0B587B04D
:1032A000044614216846FDF7EDF91C492068884260
:1032B00032D11B480024016841F48051016000684C
:1032C00000F48050059016481438016841F002015E
:1032D0000160016801F002010591016841F00101FE
:1032E00001600068022500F0010005901820CDE97A
:1032F000000502AA0326052782E8D000694609488E
:10330000FFF738F88020CDE9000502AA694682E877
:10331000D0000548FFF72EF807B0F0BD003001409F
:103320004438024000040240000002402DE9FF4FF3
:1033300081B0044690F8500000260E9F1D4693462B
:103340004FF0010901280FD04FF0010A84F850A076
:10335000FFF712F9804694F85100616801280DD0FA
:10336000B1F5827F08D103E0022005B0BDE8F08FFF
:10337000A16809B9042801D00226C9E002980028F2
:1033800065D0BBF1000FFBD0002DF9D094F85100AF
:10339000042802D0052084F8510000206065C4F89C
:1033A00038B0E587A58702992163E586A586206464
:1033B000606420680168490603D4016841F0400157
:1033C0000160E068B0F5006F606803D0F0B3012DD4
:1033D00047D081E008B1012D3CD1206B21680088E5
:1033E000C860206B801C2063E08E401EE08631E0C8
:1033F0002068816889070FD5E18E69B1B9F1010FA5
:103400000AD1216B0988C160206B801C2063E08E8B
:10341000401EE0864FF0000920688168C9070CD083
:10342000E18F51B1C068A16B0880A06B801CA063C4
:10343000E08F401EE0874FF00109FFF79DF8A0EBF9
:103440000800B84206D3781C04D001E009E05BE034
:1034500003265BE0E08E0028CAD1E08F0028C7D1A8
:1034600040E0206B216800780873206B401C2063CB
:10347000E08E401EE0862FE02068816889070FD526
:10348000E18E69B1B9F1010F0AD1216B097801739D
:10349000206B401C2063E08E401EE0864FF0000948
:1034A00020688168C9070CD0E18F51B1C068A16B59
:1034B0000870A06B401CA063E08F401EE0874FF0B7
:1034C0000109FFF759F8A0EB0800B84202D3781CB5
:1034D00002D0BAE7002FB8D0E08E0028CCD1E08F20
:1034E0000028C9D142463946204601F059FF18B19B
:1034F0000126202060650BE0A06818B92068C1682B
:1035000080680090606D08B1012601E084F851A048
:10351000002084F85000304627E77047704710B508
:1035200090F83C20012A22D0012280F83C20CA6871
:103530008C6822F4407222434C6822F48062224359
:103540000C6822F4006222430C6922F48052224368
:103550004C6922F400522243C969002322F48042BC
:103560000A4301684A6480F83C30002010BD022004
:1035700010BD000070B590F83C20012A32D0012423
:1035800080F83C40022280F83D2003685A689D681C
:1035900022F070060A6832435A60134B02689A425E
:1035A00014D0B2F1804F11D0104B9A420ED0104B74
:1035B0009A420BD00F4B9A4208D00F4B9A4205D03B
:1035C0000E4B9A4202D00E4B9A4204D1496825F024
:1035D00080031943916080F83D40002180F83C1041
:1035E000084670BD022070BD00000140000400408C
:1035F00000080040000C0040000401400040014071
:103600000018004010B5040003D094F83D0010B13C
:1036100007E0012010BD002084F83C00204600F0A7
:103620001FF8022084F83D00211D206801F0FAFFF8
:10363000012084F8460084F83E0084F83F0084F8B6
:10364000400084F8410084F8420084F8430084F884
:10365000440084F8450084F83D00002010BD0000BF
:1036600008B51D4902681D488A4207D1016841F02A
:1036700001010160006800F001000AE01749184BE1
:10368000091F9A4207D1086840F0020008600868E4
:1036900014E0009008BD134B9A4207D1086840F02F
:1036A00008000860086800F00800F2E70E498A4246
:1036B00007D1016841F002010160006800F00200DA
:1036C000E7E70A498A42E5D1016841F40031016027
:1036D000006800F40030DCE700000140443802409C
:1036E00000040040000C0040000401400044014080
:1036F00090F83D10012901D001207047022180F887
:103700003D100168CA6842F00102CA6000681149B0
:10371000884214D0B0F1804F11D00F4988420ED0AA
:103720000E4988420BD00E49884208D00D49884284
:1037300005D00D49884202D00C49884204D18168E5
:1037400001F00701062903D0016841F00101016081
:1037500000207047000001400004004000080040C5
:10376000000C0040000401400040014000180040EF
:1037700070B5044690F83C000025012817D00126BA
:1037800084F83C60022084F83D002068826822F0C2
:10379000770222F47F4282600868502838D00DDC1E
:1037A00020284FD005DC90B3102811D14AE0022028
:1037B00070BD302846D040280AD13BE060282FD089
:1037C00070280DD0B0F5805F03D0B0F5005F12D047
:1037D000012584F83D60002084F83C00284670BD37
:1037E000CB68D1E90121206801F095FF206881684C
:1037F00041F0770109E0CB68D1E90121206801F0AF
:103800008AFF2068816841F480418160E1E719E026
:10381000CA684968206802F053F85021206806E021
:10382000CA684968206802F05CF86021206801F0ED
:103830007CFFCEE7CA684968206802F041F8402161
:103840002068F4E7226801461046F0E770472DE94A
:10385000F04104460068C66805694FF00007A907F3
:1038600013D5B10711D5F91E016101202077206819
:1038700080698007204602D0FFF7E8FF04E000F0EF
:1038800023F9204600F0C8F92777680716D5700796
:1038900014D521686FF004000861022020772068A9
:1038A000806910F4407F204602D0FFF7CFFF04E08C
:1038B00000F00AF9204600F0AFF92777280715D560
:1038C000300713D521686FF00800086104202077C5
:1038D0002068C0698007204602D0FFF7B7FF04E0E8
:1038E00000F0F2F8204600F097F92777E80616D5A1
:1038F000F00614D521686FF01000086108202077C9
:103900002068C06910F4407F204602D0FFF79EFF78
:1039100004E000F0D9F8204600F07EF92777E807A8
:1039200008D0F00706D021686FF00100086120463A
:1039300000F0D8F9280608D5300606D521686FF0C2
:10394000800008612046FFF7E8FD680608D570068C
:1039500006D521686FF040000861204600F0CCF9E0
:10396000A8060AD5B00608D521686FF020000861C6
:103970002046BDE8F041FFF7D1BDBDE8F081000071
:1039800030B587B0044614216846FCF77BFE2368F7
:10399000404C002140480222A34211D1036843F069
:1039A00010030360006800F0100005901002009002
:1039B000CDE901210120CDE903106946374812E025
:1039C000374CA34213D1036843F00403036000683B
:1039D00000F004000590A0150090CDE90121CDE98B
:1039E000031269462F48FEF7C5FC07B030BD2E4CC8
:1039F000A34210D1036843F008030360006800F09D
:103A00000800059020140090CDE90121CDE90312B2
:103A100069462648E7E7264CA34211D1036843F0E4
:103A200080030360006800F0800005904FF4E050D0
:103A30000090CDE90121CDE9031269461D48D2E786
:103A40001D4D0324AB4210D1036843F4807303601F
:103A5000006800F48070059080200090CDE901217D
:103A6000CDE9031469461548BDE7154DAB42BCD1FD
:103A7000036843F020030360006800F02000059015
:103A800040200090CDE90121CDE9031469460D489D
:103A9000A9E7000000000140303802400010024059
:103AA000000400400008024000080040000C0240F2
:103AB000000C0040001C02400004014000200240B5
:103AC0000044014000140240704770B5044690F86D
:103AD0003C0000260D4601280FD0012084F83C0050
:103AE0006AB1042A1DD0082A2FD00C2A3FD0012603
:103AF000002084F83C00304670BD022070BD206874
:103B000001F01CFE2068816941F008018161206894
:103B1000816921F004018161206881692A6911436A
:103B200011E0206801F03AFE2068816941F40061EB
:103B300081612068816921F48061816120688169E7
:103B40002A6941EA02218161D2E7206801F05CFE26
:103B50002068C16941F00801C1612068C16921F094
:103B60000401C1612068C1692A69114311E020681C
:103B700001F07EFE2068C16941F40061C1612068E6
:103B8000C16921F48061C1612068C1692A6941EA83
:103B90000221C161ACE710B5040003D094F83D00E8
:103BA00010B107E0012010BD002084F83C00204641
:103BB00000F01EF8022084F83D00211D206801F06D
:103BC00031FD012084F8460084F83E0084F83F006F
:103BD00084F8400084F8410084F8420084F84300EF
:103BE00084F8440084F8450084F83D00002010BDAE
:103BF00008B500680649884208D10648016841F0C6
:103C000004010160006800F00400009008BD00009D
:103C100000080040403802407047000010B50446DC
:103C2000022249B104290ED0082913D094F841008A
:103C3000012816D0012010BD94F83E000128F9D1CA
:103C400084F83E200FE094F83F000128F2D184F878
:103C50003F2008E094F840000128EBD184F8402090
:103C600001E084F841200122206801F047FD164957
:103C70002068164A884201D0904203D1436C43F435
:103C8000004343642068884213D0B0F1804F10D0C5
:103C90000F4988420DD00F4988420AD00E49884208
:103CA00007D0904205D00D49884202D00C49884285
:103CB00004D1816801F00701062903D0016841F0B1
:103CC00001010160002010BD00000140000401401E
:103CD0000004004000080040000C0040004001408B
:103CE0000018004000680349884201D1FEF7ECBE8D
:103CF0007047000000100040704770477047000098
:103D0000F8B5016804460868CA684B6910F00F0FDF
:103D10004FF0000559D003F0010602F490773743C5
:103D200065D0C10705D0D10503D5616C41F0010113
:103D30006164410705D5D90703D0616C41F00201E8
:103D40006164810705D5D90703D0616C41F0040196
:103D50006164010707D502F02001314303D0616C93
:103D600041F008016164616C00293AD0800604D5F5
:103D7000900602D5204601F0B3FE20684069616CD0
:103D8000C0F38010090700D460B3204601F073FE31
:103D900020684069400621D52068143050E8001F93
:103DA00021F0400140E80012002AF5D1E06BA8B1F3
:103DB0006E490165E06BFEF725F9002811D0E06B34
:103DC000016D01B0BDE8F040084783060FD59306AA
:103DD0000DD52046BDE8F84001F082BE2046FFF731
:103DE0008DFFF8BD2046FFF789FF6564F8BD266B9F
:103DF0002023012E7DD1C6067BD5D60679D508684D
:103E00004868009048694FF00206400641D5E16BD2
:103E1000086840680004000CE8D0A28D8242E5D911
:103E2000E085C869B0F5807F2DD020680C3050E85F
:103E3000001F21F4807140E80012002AF5D12068AB
:103E4000143050E8001F21F0010140E80012002A60
:103E5000F5D12068143050E8001F21F0400140E8FF
:103E60000012002AF5D184F84230256320680C3016
:103E700050E8001F21F0100140E80012002AF5D19F
:103E8000E06BFEF776F86663A08DE18D401A81B293
:103E90002AE0A08DE18D401A81B2E08D0028A5D0E6
:103EA0000029A3D022680C3252E8000F20F4907051
:103EB00042E80007002FF5D12068143050E8002FA9
:103EC00022F0010240E80027002FF5D184F84230AB
:103ED000256320680C3050E8002F22F0100240E8E3
:103EE0000023002BF5D166632046FFF706FFF8BDDF
:103EF000FFE705062BD5150629D594F841002128A2
:103F0000F5D1A068B0F5805F01D12069B0B1206A19
:103F1000411C2162216800784860E08C401E00044A
:103F2000000CE084E3D12068C16821F08001C16009
:103F30002068C16841F04001C160D8E7206A00886C
:103F4000C0F308004860206A801C2062E5E7400654
:103F5000CDD55006CBD5CA68204622F04002CA60B3
:103F600084F8413000F0D0F9C1E700002D59000875
:103F700070B5040004D094F84100002510B106E0AB
:103F8000012070BD84F84050204600F023F8242022
:103F900084F841002068C16821F40051C1602046C6
:103FA00001F000FE2068016921F490410161206860
:103FB000416921F02A0141612068C16841F4005142
:103FC000C1606564202084F8410084F84200656384
:103FD000002070BD2DE9F04F87B0044614216846DB
:103FE000FCF750FB9748DFF8588214380221D4F8C8
:103FF00000C0944B032200250715CE034FF0070B9A
:104000004FF48079C4456FD1D3F800C04CF0100C48
:10401000C3F800C01B6803F010030593036843F066
:1040200002030360036803F002030593036843F08F
:104030000103036000688A4600F0010005908020BB
:10404000CDE9000A0DF1080C90468CE8200969467C
:104050007D48FEF78FF9F011CDE9000A0DF1080A4D
:1040600069468AE820097948FEF784F9DFF8E4B167
:10407000774958464FF00068CBF80010C0E9018539
:10408000C0E90357CBF82060CBF81450CBE90659B0
:10409000BA46CBF82450FEF797F808B1FDF7F5FAC9
:1040A0006C4F6B48C4F83CB060373030CBF83840C8
:1040B000E7E802084020A7E82104664847F81459B9
:1040C0006030BD61C7E907567D62FEF77DF808B133
:1040D000FDF7DBFAA763002205212520BC63FEF76C
:1040E0008BFD252047E0FFE7DFF86C81C44547D111
:1040F000544B1B1FD3F800C04CF4802CC3F800C0F5
:104100001B6803F480230593036843F004030360F2
:10411000006800F0040005904FF440608DE8230033
:10412000CDE9032B69464D48FEF724F9DFF82481D9
:104130004B4908F1C0084046C8F800104FF0006134
:10414000C0E90115C0E90357C8F82060C8F8145049
:10415000C8E90659C8F82450FEF736F808B1FDF74B
:1041600094FAC4F83C80002205212720C8F8384082
:10417000FEF742FD2720FEF731FD07B0BDE8F08FC6
:10418000DFF8E080C445F8D1D3F800C04CF0200C33
:10419000C3F800C01B6803F020030593036843F0D5
:1041A00040030360006800F0400005904FF4844035
:1041B0008DE823000820CDE9032069462A48FEF750
:1041C000D9F82349DFF8A480603940464FF0206BCE
:1041D000C8F80010C0E901B5C0E90357C8F820606D
:1041E000C8F81450C8E90659BA46C8F82450FDF773
:1041F000EBFF08B1FDF749FA1C4F1548C4F83C80A5
:1042000060371830C8F83840E7E8020B4020A7E8CC
:104210002104164847F814596030BD61C7E90756B4
:104220007D62FDF7D1FF08B1FDF72FFAA7630022E9
:1042300005214720BC63FEF7DFFC47209BE7000019
:1042400000100140443802400004024000000240D7
:1042500088640240540700200048004000080240E3
:104260002860024000140140001802407408002039
:1042700090F84230202B01D00220704721B11AB1B2
:104280000023036301F014BD01207047704770479D
:1042900070B5044690F84100202801D0022070BD7E
:1042A00049B342B32162A284E284002060642123E6
:1042B00084F84130A56B114BEB63A56B104B2B645D
:1042C000A56B104BEB64A36B1865256813462A1D7C
:1042D000A06BFDF7E3FF21686FF0400008602068E5
:1042E000143050E8001F41F0800140E80012002A1D
:1042F000F5D1002070BD012070BD00002B5A0008D0
:104300006D5A00083D5900082DE9F0470025184F67
:104310000646A84657F8254031682068006888425C
:1043200020D1414684F83A80E4B1207CD0B1208D80
:104330000004000C14D0218B814201D9814600E099
:1043400089464A4604F11C00616902F017FD01200C
:1043500084F83A004A4661692068FFF799FF01E056
:1043600084F83A106D1CEDB2032DD3D3BDE8F0876D
:10437000407800207047FEE701684A69D243520541
:104380000FD46FF480624A61002140F8301F202270
:1043900042738173026942F00402026101730120D9
:1043A00070470020704700002DE9F84F0446006870
:1043B00089460B9D01689846174641F4806101606B
:1043C0002068016841F48071016000954FF0011B85
:1043D0000022594620460A9B00F0E4F84FF4007A88
:1043E00040B120680068C00501D5C4F840A0032092
:1043F000BDE8F88F216809F0FE0008612B462849C6
:1044000020460A9A00F016F9F0BB206841698069DD
:1044100000902A4620460A9900F0A2F940B1206C8B
:1044200004283AD12068016841F40071016034E049
:10443000FEB2B8F1010F09D02168380A08612A4696
:1044400020460A9900F08CF90028E8D1206806611E
:104450002A4620460A9900F083F90028DFD1206817
:10446000016841F4807101600095002259462046A0
:104470000A9B00F097F80028B3D1216809F0FF00EB
:1044800040F00100086100E007E02B4604492046A7
:104490000A9A00F0CFF80028AAD00120A8E700006F
:1044A000020001002DE9F843044600680D46DDE9ED
:1044B000089701689846164641F4807101604B46A2
:1044C00000224FF001112046009700F06BF848B130
:1044D00020680068C00502D54FF4007020640320F6
:1044E000BDE8F883216805F0FE0008613B464A46B6
:1044F0001549204600F09EF888B920684169806916
:1045000000903A464946204600F02AF948B1206C0E
:10451000042804D12068016841F400710160012081
:10452000DEE7F5B2B8F1010F09D02168300A086161
:104530003A464946204600F013F90028E7D12068A2
:1045400005610020CCE700000200010070B51646AE
:104550000D4604461EE02046FFF70EFF08B101207D
:1045600070BD681C16D0FEF707F8801BA84200D863
:1045700085B920684069C04340070BD5002044F846
:10458000300F20216173A073216941F02001216166
:104590002073E4E720684069C0434007DBD4002073
:1045A00070BD00002DE9F047984617460D460446B9
:1045B000C1F30746DDF820902AE000BFB8F1FF3FC5
:1045C00026D0FDF7D9FFA0EB0901414502D8B8F18B
:1045D000000F1DD12068012E16D0806925EA000049
:1045E0000004000C12D00020B84211D1002044F881
:1045F000300F20216173A073216941F020012161F6
:1046000020730120BDE8F0874069E7E70120EBE770
:104610002068012E0AD0806925EA00000004000C01
:1046200006D00020B842C9D00020EBE74069F3E78C
:104630000120F7E72DE9F047984616460D46044657
:104640004FF000094FF0200AC1F3074723E020682C
:104650004069C043400515D42068016841F40071E9
:10466000016021686FF480604861C4F8309084F87C
:104670003DA084F83E90216C41F00401216484F84F
:104680003C9021E0701C06D0FDF776FFA0EB0800FF
:10469000B04203D816B1012F1FD021E02068012FAE
:1046A00015D0806925EA00000004000C18D000BF76
:1046B00044F8309F84F80DA084F80E90216941F0F1
:1046C0002001216184F80C900120BDE8F087406949
:1046D00025EA00000004000CEAD12068406901E0EE
:1046E0002068806925EA00000004000CAFD1ECE7E7
:1046F0002DE9F041002590460E460446202728E08B
:104700004069C043C0060CD454F8301B6FF0100051
:10471000486144F810596777A577206A20622577A9
:1047200014E0FDF729FFA0EB0800B04200D886B9DD
:1047300020684069C04340060BD544F8305F67737A
:10474000A573206940F02000206125730120BDE899
:10475000F08120684169C9434906D1D40020F6E7B9
:1047600070B516460D4604461EE02046FFF704FECF
:1047700008B1012070BD681C16D0FDF7FDFE801B3E
:10478000A84200D885B920684069C04300060BD50F
:10479000002044F8300F20216173A073216941F09B
:1047A000200121612073E4E720684069C0430006CE
:1047B000DBD4002070BD000020499FED210AA1F14B
:1047C0000C0391ED001A01F10C0283ED001AD2EDF9
:1047D000000AC1ED000A60EE801ADFED1A0A90EDC2
:1047E000002A41EE201A9FED181A42EE011AC2ED7E
:1047F000001AD1ED011AC3ED011A92ED012A81EDE3
:10480000012A22EE002A01EEA02AD0ED011A01EEC3
:10481000812A82ED012AD1ED021AC3ED021A92ED2E
:10482000022A81ED022A22EE000A01EEA00AD0ED52
:10483000020A00EE810A82ED020A704758780020D1
:104840005AF8F63F5D896EBFD5A9183B2DE9F04FA8
:10485000DFF8DCC0DFF8DCA00CF12408099F00249D
:104860000AF1180B08F124090AF1240E04EB44069E
:104870000CEB860593ED050AD5ED000A95ED011ABE
:1048800020EE200AD3ED060A00EE810AD3ED070AD6
:1048900095ED021A0AEB840500EE810AD5ED000AB7
:1048A00000EB840530EE200A85ED000A08EB860552
:1048B00093ED010AD5ED000A95ED011A20EE200ACC
:1048C000D3ED020A00EE810AD3ED030A95ED021A38
:1048D0000BEB840500EE810AD5ED000A01EB84059F
:1048E00030EE200A85ED000A09EB860597ED010AF6
:1048F000D5ED000A95ED011A20EE200AD7ED020A47
:1049000000EE810AD7ED030A95ED021A0EEB84053D
:1049100000EE810AD5ED000A02EB8405641CE4B2C6
:10492000032C30EE200A85ED000A9FD3BDE8F08FFE
:10493000DC000020047900200048704770780020D7
:1049400038B502E0642002F0A8FBFCF774F90028F7
:10495000F8D102E0642002F0A0FB02F031FB002855
:10496000F8D12B4AA2F10C01101DFCF77BF9284865
:104970001430A0F16C02A0F17801A0F124030090A2
:1049800015460C468438FFF761FF21482A46443813
:1049900021460546FBF70EFF1D4C703CA4F10C01AF
:1049A00094ED030AA1F10C0281ED000AA1F11800B7
:1049B00082ED000A80ED000A94ED040A00F1640320
:1049C00081ED010A82ED010A80ED010A94ED050AEC
:1049D00081ED020A82ED020A80ED020A5432503162
:1049E000284602F013FAD4ED0F0A9FED0A0A60EE92
:1049F000800AC4ED150AD4ED110A60EE800AC4EDF8
:104A0000170AD4ED100A20EE800A84ED160A38BD8C
:104A1000E0780020E12E65422DED028B82B002F09D
:104A20004FFB9FED098A094CCDF80000B0EE480A13
:104A300000F082F8A06890ED090A00F03BF805212B
:104A4000684602F031FBF1E70AD7A33B580100208A
:104A500010B588B0FFF774FFFFF76EFF0D4C9FEDA8
:104A60000E2ADFED0E1AA0609FED0D1ADFED0D0A84
:104A70009FED0D0A03210D4802F0FAFB1C220C49A0
:104A80006846FBF7A3FD0021684602F025FB606045
:104A900008B010BD5801002000000000CDCC4C3EF5
:104AA0000000C8440080894500A08C452C7B002074
:104AB0009083000810B51948194C0178A9B1DFEDB1
:104AC000190A204602F032FB94ED0B0AB5EEC00A3B
:104AD000F1EE10FA03D29FED140A84ED0B0ABCEE3E
:104AE000C00A10EE100A81B212E010EE101A0F4A3E
:104AF00091420BDD4178491CC9B24170C82905D9E2
:104B000001219FED0B0A017084ED090A41F2873102
:104B1000BDE810400748FCF752BA000058010020D9
:104B20002C7B0020000020420000000000002042FA
:104B300000401C450477002070B5254A2DED028BFE
:104B4000A2F1100482B0B0EE408A211D101DFCF7C6
:104B500089F804F12400A0F16C02A0F17801009022
:104B6000234616460D468438FFF770FE94ED040A7E
:104B7000603C284684ED090AFFF71EFE214601F13C
:104B80002C003346A4F10C02B0EE480A0546FBF7B0
:104B90006BFF04F13C031A1D111D284602F036F983
:104BA000D4ED0F0A9FED0B0A60EE800AC4ED120AE5
:104BB000D4ED110A60EE800AC4ED140AD4ED100A97
:104BC00020EE800A84ED130A02B0BDEC028B70BDAA
:104BD000E0780020E12E6542104810B50E490160D2
:104BE0000321416000214FF410228160C0E90312CB
:104BF0004FF4001242610176012242768276C2763B
:104C000001774277FCF7D4FF002803D0BDE81040BD
:104C1000FCF73BBD10BD000000640040D003002045
:104C2000104810B50E4901600321416000214FF486
:104C300010228160C0E903124FF400124261017634
:104C4000012242768276C27601774277FCF7B0FF86
:104C5000002803D0BDE81040FCF717BD10BD0000D0
:104C600000680040F80300201D4808B5016841F4C1
:104C700080010160016801F480010091016841F444
:104C8000001101600068002200F40010009005216E
:104C90000C20FDF7B1FF0C20FDF7A0FF002205213D
:104CA0003920FDF7A9FF3920FDF798FF00220521E3
:104CB0004420FDF7A1FF4420FDF790FF00220521CD
:104CC0004520FDF799FF4520FDF788FF00220521CB
:104CD0004620FDF791FFBDE808404620FDF77EBF66
:104CE0003038024000B587B01C2206496846FBF701
:104CF0006DFC0021684602F0EFF90349086007B037
:104D000000BD000018800008000000202DE9F041DF
:104D100086B014216846FBF7B5FC5F4800250168A2
:104D200041F002010160016801F002010591016892
:104D300041F040010160016801F040010591016806
:104D400041F001010160016801F001010591016874
:104D500041F008010160016801F008010591016856
:104D600041F004010160016801F00401059101684E
:104D700041F480710160016801F48071059101685E
:104D800041F080010160016801F080010591016836
:104D900041F020010160016801F0200105910168E6
:104DA00041F01001016000683C4E00F010000590D9
:104DB000002240213046FDF7DAFB394F0022102156
:104DC0003846FDF7D4FBDFF8DC80002201214046A5
:104DD000FDF7CDFB01244020CDE900040294694693
:104DE00030460394FDF7C6FA082000904FF40410F3
:104DF000CDE9010469463046FDF7BCFA0720CDE94C
:104E00000005294E694630460295FDF7B3FACDE913
:104E10000045694638460294FDF7ACFA10208DE84B
:104E20003100694638460395FDF7A4FA302000901A
:104E30004FF48810CDE9010469463046FDF79AFA2F
:104E40002003CDE90005694602944046FDF792FA39
:104E50000094CDE90145694640460395FDF78AFA7D
:104E6000002205210920FDF7C7FE0920FDF7B6FE47
:104E7000002205210A20FDF7BFFE0A20FDF7AEFE45
:104E8000002205211720FDF7B7FE1720FDF7A6FE2B
:104E900006B0BDE8F0810000303802400018024042
:104EA0000000024000040240000802400D4810B516
:104EB0000B4901600C49416000214FF48042816040
:104EC000C0E9031241618161C1610162FDF75AFBD2
:104ED000002803D0BDE81040FCF7D7BB10BD000090
:104EE000005C004020040020801A0600104810B525
:104EF0000E4901604FF482714160002102228160FD
:104F0000C0E9031201224261520282613822C0E9E3
:104F10000721416281620A21C162FEF761F900281E
:104F200003D0BDE81040FCF7B0BB10BD003001401D
:104F30007404002010B588B01C216846FBF7A2FB62
:104F4000144813490024C0E9001441F28731C0E934
:104F5000024104618461FEF755FB08B1FCF795FB43
:104F60000C48FEF718FE08B1FCF78FFB6020CDE976
:104F7000000402940022694606480494FEF7A5FD49
:104F800008B1FCF782FB0348FEF7FAFC08B010BD3D
:104F9000004401403406002010B596B000240F9460
:104FA00010941194129413941C2108A81494FBF7E4
:104FB00069FB20216846FBF765FB2948274901600A
:104FC00041F26701C0E9011440F21F31C0E9031446
:104FD00044618461FEF716FB08B1FCF756FB4FF401
:104FE00080500F900FA91E48FEF7C2FB08B1FCF7D6
:104FF0004CFB1B48FEF7CFFD08B1FCF746FB1394B2
:1050000013A917481494FEF7B5FA08B1FCF73DFB55
:105010006020CDE908040A940B940C940D940022AE
:1050200008A90F480E94FEF750FD08B1FCF72DFBC0
:1050300000944FF40050CDE904400294019403948D
:10504000694607480794FEF76AFA08B1FCF71DFBAA
:105050000348FEF795FC16B010BD000000000140AB
:10506000CC04002010B58EB0002407940894099455
:105070000A940B941C2168460C94FBF703FB1E4812
:105080001C49C0E9001442F2CF01C0E902410461A9
:105090008461FEF7B7FA08B1FCF7F7FA4FF48050D5
:1050A000079007A91448FEF763FB08B1FCF7EDFA77
:1050B0001148FEF770FD08B1FCF7E7FA0B940BA955
:1050C0000D480C94FEF756FA08B1FCF7DEFA6020A2
:1050D000CDE9000402940822694607480494FEF7CB
:1050E000F4FC08B1FCF7D1FA0348FEF749FC0EB016
:1050F00010BD0000000400401405002010B58AB067
:10510000002407941C2168460894FBF7BBFA164854
:10511000144901605321C0E9011444F61F61C0E93C
:1051200003148461FEF737FD08B1FCF7AEFA07946B
:1051300007A90D480894FEF71DFA08B1FCF7A5FA77
:105140006020CDE9000402940822694606480494D0
:10515000FEF7BBFC08B1FCF798FA0348FEF710FC19
:105160000AB010BD000800405C05002010B58EB0EC
:1051700000240794089409940A940B941C2168460F
:105180000C94FBF77FFA26482449C0E900144FF637
:10519000FF71C0E9024104618461FEF733FA08B18E
:1051A000FCF773FA4FF48050079007A91C48FEF7EC
:1051B000DFFA08B1FCF769FA1948FEF7ECFC08B110
:1051C000FCF763FA0B940BA915480C94FEF7D2F97F
:1051D00008B1FCF75AFA6020CDE9000402940022DD
:1051E00069460F480494FEF770FC08B1FCF74DFACD
:1051F000042269460A48FEF768FC08B1FCF745FA44
:10520000082269460648FEF760FC08B1FCF73DFA43
:105210000348FEF7B5FB0EB010BD0000000C0040C7
:10522000A405002010B596B000240F94109411949A
:10523000129413941C2108A81494FBF723FA20213C
:105240006846FBF71FFA284826490160A721C0E9F4
:10525000011444F61F61C0E9031444618461FEF740
:10526000D1F908B1FCF711FA4FF480500F900FA953
:105270001D48FEF77DFA08B1FCF707FA1A48FEF759
:105280008AFC08B1FCF701FA139413A91648149488
:10529000FEF770F908B1FCF7F8F96020CDE90804D1
:1052A0000A940B940C940D94082208A90E480E94AD
:1052B000FEF70BFC08B1FCF7E8F900944FF400503E
:1052C000CDE904400294019403946946064807948A
:1052D000FEF725F908B1FCF7D8F90348FEF750FBB3
:1052E00016B010BD00040140EC0500200C4810B5BC
:1052F0000A4901604FF4E1314160002181600C22D4
:10530000C160C0E904128161C161FEF731FE00286D
:1053100003D0BDE81040FCF7B8B910BD0010014043
:105320007C0600200D4810B50B4901600C49416016
:1053300000214FF40052C0E90212D21002610C2287
:10534000C0E90521C161FEF713FE002803D0BDE8C6
:105350001040FCF79AB910BD00480040C406002078
:10536000A08601000C4810B50A4901604FF4E131F4
:105370004160002181600C22C160C0E9041281619A
:10538000C161FEF7F5FD002803D0BDE81040FCF731
:105390007CB910BD001401400C070020FEE7FEE7B9
:1053A000F8B515460E460B4600920446012202212E
:1053B00000F02CF8A0B9134813490068B0FBF1F0D5
:1053C0004FF47A71484300906068B0F5827F0DD148
:1053D0003346002280212046009500F017F870B176
:1053E000606D40F0200060650320F8BD009830B18A
:1053F000401E009020688068C0430006F6D500205B
:10540000F8BD00001400002000366E012DE9F843BD
:105410001E46914688460446089DFDF7ADF8401BA0
:10542000351AFDF7A9F8074625480068C0F3CB30C8
:10543000684338E0701C37D0FDF79EF8C01BA842C7
:1054400003D215B1009860B32CE02068416821F0C8
:10545000E00141606068B0F5827F0BD1A068B0F5D3
:10546000004F02D0B0F5806F04D12068016821F0B0
:1054700040010160A06AB0F5005F09D120680168B1
:1054800021F4005101602068016841F4005101607D
:10549000012084F85100002084F850000320BDE86A
:1054A000F8830025401E00902068816838EA0100DA
:1054B00004D000214945BDD10020F0E70121F9E7E2
:1054C0001400002008B501F0FBFD104ECDF80000DF
:1054D00000F01AFA5FF0010506EB0514207860B1C0
:1054E000E16851B102F050F9022806D1D4E9020175
:1054F00088472078616802F071F96D1C152DEBDB8F
:105500000121684601F0D0FDE2E70000DC790020CF
:1055100000B587B002F050F91C2206496846FBF737
:1055200055F80021684601F0D7FD0349086007B02F
:1055300000BD00007483000854010020FBF732FB1B
:10554000642001F0AAFDFBE710B5502080F311881C
:10555000BFF34F8FBFF36F8F02F090FC18B1044977
:105560004FF080500860002080F3118810BD0000CB
:1055700004ED00E030B593B030216846FBF782F8C7
:1055800014210CA8FBF77EF81D480025016841F0A6
:1055900080510160006800F0805011901948016846
:1055A00041F4804101600068022400F480401190C1
:1055B00001200090000401908001CDE90640062002
:1055C0000890A820CDE9090404200B906846FDF757
:1055D00051FC08B172B6FEE70CA90F2081E831003A
:1055E0004FF4A0500F904FF48050109005210CA85C
:1055F000FDF734FB002801D072B6FEE713B030BDD2
:1056000040380240007000400248016841F47001D7
:105610000160704788ED00E00148FEF718B900000E
:1056200034090020F0B50268294C2A4D2A4E2B4F30
:105630002B4B4FF0804CA04209D0604507D0A842C8
:1056400005D0B04203D0B84201D0984204D122F034
:10565000700E4A6842EA0E02A0421BD0604519D083
:10566000A84217D0B04215D0B84213D0984211D0FA
:105670001C4DA8420ED01C4DA8420BD01B4DA84279
:1056800008D01B4DA84205D01A4DA84202D01A4D91
:10569000A84203D122F44075CA682A434D6922F01A
:1056A00080022A4302608A68C2620A688262A0425B
:1056B00001D0984201D10969016301214161016969
:1056C000C90703D0016921F001010161F0BD0000AB
:1056D000000001400004004000080040000C0040B1
:1056E00000040140004001400044014000480140E6
:1056F00000180040001C00400020004010B501F0E0
:105700001F030121046A99408C430462016A9A4094
:105710001143016210BD10B5846842EA032224F4EB
:105720007F440A432243826010BD826822F07002E7
:105730000A4342F00701816070470000F0B5036A38
:10574000026A22F00102026242688469124E24F069
:1057500073050C682C4323F002058B682B430D4D19
:10576000A84201D0B04205D123F00807CB683B43E3
:1057700023F00403A84201D0B04205D14D6922F4C0
:10578000407215438A692A434260846149684163D3
:105790000362F0BD0000014000040140F0B5026A60
:1057A000036A23F010030362436884690D6824F4DC
:1057B000E64444EA05248D6822F0200242EA0512FC
:1057C0000F4D104EA84201D0B04206D1CF6822F052
:1057D000800242EA071222F04002A84201D0B04201
:1057E00007D14D6923F4406343EA85038D6943EA99
:1057F000850343608461496881630262F0BD0000F3
:105800000000014000040140F0B5026A036A23F47D
:10581000807303624368C46922F4007224F0730544
:105820000C68124E2C438D6842EA05220E4DA842A8
:1058300001D0B04206D1CF6822F4006242EA0722CA
:1058400022F48062A84201D0B04207D14D6923F40E
:10585000405343EA05138D6943EA05134360C4616D
:105860004968C1630262F0BD0000014000040140CC
:1058700030B5046A026A22F4805202624268C36947
:105880000D6823F4E64343EA05238D6824F40054AD
:1058900044EA0534084DA84202D0084DA84204D17C
:1058A0004D6922F4804242EA85124260C361496830
:1058B0000164046230BD00000000014000040140AA
:1058C00010B5036A046A24F001040462846924F0B8
:1058D000F00444EA021423F00A020A4384610262DB
:1058E00010BD10B5036A046A24F0100404628469D0
:1058F00023F0A00324F4704444EA023243EA011185
:105900008261016210BD00000749012031F830209A
:105910002AB101EBC0035A680AB1521E5A60401CFA
:10592000C0B21528F2D370473479002010B5806BCF
:105930000021C185C184FEF7E1F910BD70B5846B0B
:105940002068406994F84110C0F3C0100025212957
:1059500004D118B1E584204600F0B4F8206840690D
:1059600094F84210C0F38010222904D118B1E585C3
:10597000204600F080F8606C40F010006064204623
:10598000FEF7BCF970BD10B50146806B0968096867
:105990004FF00002C9052ED4C28501680C3151E8D0
:1059A000003F23F4807341E80034002CF5D10168F6
:1059B000143151E8003F23F0010341E80034002C8A
:1059C000F5D10168143151E8003F23F0400341E86C
:1059D0000034002CF5D1202180F84210016B012900
:1059E00009D101680C3151E8003F23F0100341E870
:1059F0000034002CF5D14263016B012902D0FEF77F
:105A000045FC10BD818DFEF778F910BD10B5806B97
:105A100001214163016B012902D0FEF738FC10BD62
:105A2000818D4908FEF769F910BD10B50146806BFC
:105A300009680968C90516D40021C18401681431B8
:105A400051E8002F22F0800241E80023002BF5D11D
:105A500001680C3151E8002F42F0400241E8002378
:105A6000002BF5D110BDFEF74FFC10BD10B5806BBB
:105A7000FEF780FC10BD01680C3151E8002F22F4C4
:105A8000907241E80023002BF5D10168143151E8F0
:105A9000002F22F0010241E80023002BF5D1016B19
:105AA000012909D101680C3151E8002F22F01002C0
:105AB00041E80023002BF5D1202180F8421000217D
:105AC0000163704701680C3151E8002F22F0C002D9
:105AD00041E80023002BF5D1202180F841107047C8
